:020000040800F2
:1000000090060020890200085F170008C911000847
:100010005D17000853070008991B00080000000046
:10002000000000000000000000000000191B000894
:100030005507000800000000611700081B1B00089E
:10004000A3020008A3020008A3020008A3020008FC
:10005000A3020008A3020008A3020008A3020008EC
:10006000A3020008A3020008A3020008A3020008DC
:10007000A3020008A3020008A3020008A3020008CC
:10008000A302000800000000A3020008A302000869
:10009000A3020008A3020008A3020008A3020008AC
:1000A000A3020008A3020008A3020008A30200089C
:1000B000A3020008A3020008A3020008A30200088C
:1000C000A3020008A3020008A3020008A30200087C
:1000D000A3020008A3020008A3020008A30200086C
:1000E000A3020008A3020008A3020008A30200085C
:1000F000A3020008A3020008A302000800000000F9
:1001000000000000A302000800000000A302000895
:10011000A302000800000000A3020008A3020008D8
:10012000A3020008A3020008A3020008A30200081B
:10013000A30200080000000000000000A302000865
:10014000A3020008A3020008000000000000000055
:10015000000000000000000000000000000000009F
:10016000000000000000000000000000A3020008E2
:10017000A3020008000000000000000000000000D2
:1001800000000000A30200080000000000000000C2
:10019000000000000000000000000000000000005F
:1001A0000000000000000000A3020008A3020008F5
:1001B000A3020008A3020008A30200080000000038
:1001C00000000000A3020008000000000000000082
:1001D000A3020008A302000800F002F800F044F8AF
:1001E0000AA090E8000C82448344AAF10107DA4592
:1001F00001D100F039F8AFF2090EBAE80F0013F0A0
:10020000010F18BFFB1A43F001031847F42C00003C
:10021000142D0000103A24BF78C878C1FAD85207CC
:1002200024BF30C830C144BF04680C607047000070
:100230000023002400250026103A28BF78C1FBD8EF
:10024000520728BF30C148BF0B607047642900F0D7
:10025000A580732900F03F82002070471FB501F090
:1002600059FD1FBD10B510BD00F039FA1146FFF75A
:10027000F5FF01F029FD00F057FA03B4FFF7F2FF94
:1002800003BC00F05FFA00000948804709480047B6
:10029000FEE7FEE7FEE7FEE7FEE7FEE7FEE7FEE736
:1002A000FEE7FEE704480549054A064B7047000093
:1002B000891B0008D901000890000020900600204A
:1002C00090020020900200200FB41CB50C0007AA79
:1002D000009001D02044401E074B7B4469460190AA
:1002E000069800F0C6F9002C03D06946002000F003
:1002F000D3F91CBC5DF814FBC503000070B50446BF
:1003000085690068C10601D5302600E02026C007B7
:1003100007D070BDD4E9012130469047206A401CC7
:1003200020626D1EF6D570BD70B5044685690078F3
:10033000C00707D170BDD4E9012120209047206A71
:10034000401C20626D1EF6D570BD70B50C4605468A
:10035000012A05D02878800600D5EA69002302E04A
:10036000012305E05B1C934202D2E05C0028F9D136
:10037000A869E618C01AA861286A184428622846A5
:10038000FFF7BCFF04E0D5E9012114F8010B904709
:10039000B442F8D32846FFF7C7FF70BD2DE9F041FE
:1003A0000646002410687529314616A510D0AFF313
:1003B0000080002802DA404213A507E031688A076E
:1003C00001D512A502E0490704D511A5012401E0D9
:1003D000AFF3008000210A2206F1240709E0B0FBF8
:1003E000F2FCB0FBF2F302FB1C00303078541846EC
:1003F000491C0028F3D123462A463046BDE8F04187
:1004000000F0D8B8000000002D0000002B00000014
:10041000200000002DE9F0474FF0000A894604460D
:10042000C0F820A02046E1688847002876D025281B
:1004300006D0D4E901219047206A401C2062F1E7F0
:10044000E168204600258847C4F81CA0064600271E
:10045000C4F818A02A2E09D0304601F0AEFB38B3FC
:1004600004EB8708303EC8F8186019E059F8041BFF
:10047000204604EB87029161E1688847012F064618
:1004800018D1E069002820DA25F020051DE0D8F811
:10049000180000EB800006EB40003038C8F8180068
:1004A0002046E1688847064601F087FB0028EED128
:1004B000012F0AD02E2E08D12046E16888477F1CE4
:1004C0000646022F45F02005C4DBA069002803DAA8
:1004D000404245F00105A061E80701D025F0100574
:1004E000B6B1A6F14100192802D8203645F40065BE
:1004F0004A463146204625604D46FFF7A7FE58B1D3
:10050000012806D0ED1D25F0070000F1080989E754
:1005100004E005F1040985E730468AE7206ABDE872
:10052000F08710B5431C02E010F8011B71B1810780
:10053000FAD14FF0013202C88C1A8C4314EAC2116E
:10054000F9D0C01A0A0603D0C01E10BDC01A10BDD3
:100550000A0401D0801E10BD0902FCD0401E10BD4F
:100560004FF0000200B5134694469646203922BF4C
:10057000A0E80C50A0E80C50B1F12001BFF4F7AF97
:10058000090728BFA0E80C5048BF0CC05DF804EB79
:10059000890028BF40F8042B08BF704748BF20F8E7
:1005A000022B11F0804F18BF00F8012B70477047E5
:1005B000704770472DE9F0470D469946924604462C
:1005C00000F124080168880604D5E06921F01001D3
:1005D000216000E00120A84201DD471B00E0002768
:1005E000A1697A1902EB0900081AA0612078C006F7
:1005F00002D42046FFF782FE002608E0D4E901215C
:100600001AF806009047206A401C761C20624E456E
:10061000F4DB2078C0060AD52046FFF76FFE06E01F
:10062000D4E9012130209047206A401C2062381E06
:10063000A7F10107F4DC07E0D4E9012118F805006F
:100640009047206A401C2062281EA5F10105F3DCBA
:100650002046FFF769FE2078000602D50220BDE89B
:10066000F0870120FBE7000001694A1C026108785D
:10067000704700B58FB0CDE90131002105910549E2
:100680007944CDE9031011466846FFF7C3FE0FB069
:1006900000BD0000E5FFFFFF0A6802F8010B0A60D9
:1006A0007047D1E900239A4202D2531C0B601070AC
:1006B000704710B5436913B1AFF3008001E0FFF755
:1006C00044FE012010BD127800F124010A700022BE
:1006D0004A700122EDE711684FF0FF32E9E77546F5
:1006E00000F02CF8AE4605006946534620F007009E
:1006F000854618B020B5FFF7D5FDBDE820404FF086
:1007000000064FF000074FF000084FF0000B21F0FB
:100710000701AC46ACE8C009ACE8C009ACE8C009C8
:10072000ACE8C0098D46704710B50446AFF30080B1
:100730002046BDE81040FFF7A0BD0000004870470C
:100740002C00002001491820ABBEFEE72600020065
:100750007047FEE77047002240F6B83306E00021FC
:10076000491C89B29942FBD3521C92B28242F6D301
:100770007047000070B5044600F0F8F80546601CAC
:1007800002D004484068044400F0F0F8401BA04246
:10079000FAD370BD080000202DE9FC4FDFF8A0A1BE
:1007A000002301250AF1040B03244FF00F0C0BF179
:1007B000040EBDE005FA03F632406FD04F68012FFA
:1007C00005D0022F03D0112F01D0122F17D1D0F84E
:1007D00008905F0004FA07F829EA08090097D1F8A1
:1007E0000C8008FA07F848EA0908C0F8088047684A
:1007F000B7430E79C6F300169E403E434660C66876
:100800004FEA430804FA08F7BE4301978F6807FAD6
:1008100008F73743C7604E68022E01D0122E13D15D
:10082000DE0800EB86060096366A5F07FF0E0CFABC
:1008300007F926EA0906D1F8109009FA07F949EAFA
:100840000609009EC6F820900668019FBE430F79F6
:1008500007F0030707FA08F7374307604E68F6000A
:1008600065D5384E376E47F001073766366E23F090
:10087000030706F001060096334E3E44B146B668C3
:100880009F074FEA17780CFA08F7BE43B0F1904F74
:1008900005D02E4FB84204D1012717E047E00027CA
:1008A00014E02B4FB84201D102270FE0294FB84284
:1008B00001D103270AE0284FB84201D1042705E0FF
:1008C000264FB84201D1052700E0062707FA08F7AE
:1008D0003743C9F80870DAF800605746D1F8048049
:1008E00096435FEAC83800D516433E60DBF80060E7
:1008F0005F46D1F8048096435FEA883800D51643F6
:100900003E60DEF800607746D1F8048096435FEAE7
:10091000C82800D516433E60094F0C373E68D1F811
:10092000048096435FEA882800D516433E605B1C2E
:100930000A6832FA03F67FF43DAFBDE8FC8F000091
:100940000004014000100240000001400004004883
:1009500000080048000C004800100048001400483F
:100960000069084000D001207047000001488068FD
:100970007047000008000020024881684268114466
:10098000816070470800002010B50024032000F0AB
:1009900065F80F2000F008F808B1012401E000F02C
:1009A00025F8204610BD000070B50E4E0546002407
:1009B000706898B14FF47A71B1FBF0F00A49096898
:1009C000B1FBF0F000F0ECFB40B9102D06D2002294
:1009D0002946501E00F022F8356000E00124204630
:1009E00070BD000008000020140000200A4882B0FA
:1009F000016E41F001010166016E01F001010091FB
:100A0000816D41F080518165806D00F080500090D3
:100A100002B000F093B8000000100240F0B40E4B9A
:100A20001B680C46C3F30223C3F10705042D00D94C
:100A30000425191D072901D2002300E0DB1E012631
:100A400006FA05F1491E214099409E40761E164047
:100A50003143F0BC01F0A1B80CED00E0064900F014
:100A6000070208684FF6FF03184040EA0220034AD5
:100A700010430860704700000CED00E00000FA052C
:100A80002B492C4B0A6832214A432B4940B1B0F51F
:100A9000007F086829D020F4C06040F480602CE01A
:100AA0000868C0F34120022804D051F8800F20F4D8
:100AB000807022E0D1F8800020F48070C1F88000BE
:100AC000086820F4C06040F400700860B2FBF3F0E6
:100AD000401C00E0401E4A69520501D50028F9D1AA
:100AE000486940050AD503207047C0F34120022819
:100AF00006D051F8800F40F48070086000207047E5
:100B0000D1F8800040F48070C1F88000086820F4BB
:100B1000C06040F400700860B2FBF3F0401C00E0DD
:100B2000401E4A695205DBD50028F9D1D8E70000FC
:100B30001400002040420F0000700040024881680D
:100B400041F4804181607047007000402DE9F0471A
:100B50000E4605004FF0000725D0DFF8AC81D8F82D
:100B6000000000F00F00B0420CD2D8F8001021F0C5
:100B70000F013143C8F80010D8F8000000F00F0052
:100B8000B04210D12968614CC80741F2883A5AD066
:100B90006868DFF87C91032808D0022820682DD0EF
:100BA000400500282CDB0120BDE8F087206880018B
:100BB000F9D5E06800F00302E068C0F30310401CC0
:100BC000032A19D0534A00BFB2FBF0F0E268C2F327
:100BD00006225043E268C2F34162521C5200B0FB4D
:100BE000F2F0484517D9A06810F0F00F0CD0880734
:100BF00011D5A86840B10EE0474AE5E78003D0E789
:100C000000F092F8484506D9A06820F0F00040F0C6
:100C10008000A0608027A068696820F00300084376
:100C2000A060FFF7A3FE814606E000BFFFF79EFE2F
:100C3000A0EB090151453AD8A068696800F00C00A2
:100C4000B0EB810FF2D12868810714D5400703D596
:100C5000A06840F4E060A0602878000705D5A0688F
:100C600020F4605040F4E060A060A068A96820F023
:100C7000F000084304E0802F03D1A06820F0F000CA
:100C8000A060D8F80010404601F00F01B14216D91B
:100C9000016821F00F0131430160FFF767FE07464D
:100CA00007E000BFFFF762FEC11B514501D90320D9
:100CB0007AE7D8F8000000F00F00B042F2D12878AF
:100CC000400705D5A068E96820F4E0600843A0600B
:100CD0002878000706D5A068296920F4605040EA0A
:100CE000C100A06000F020F8A1680C4AC1F3031114
:100CF000515C01F01F01C8400949086009480068BB
:100D0000BDE8F047FFF750BE00200240001002404F
:100D100000B4C4040024F40000127A00EE2E00088F
:100D20001400002008000020184910B58868C0F39E
:100D300081021748012A0BD08A684310C2F381024E
:100D4000022A06D08A68C2F38102032A03D0002057
:100D500010BD184610BDCA6802F00304CA68C2F389
:100D60000312521C032C02D0B0FBF2F001E0B3FBE3
:100D7000F2F0CA68C968C2F306225043C1F3416168
:100D8000491C4900B0FBF1F010BD0000001002400A
:100D90000024F4002DE9F84304007AD02078FA4DBD
:100DA000C00747D0A868E96800F00C0001F0030113
:100DB0000C2802D0082817D001E0032914D060685D
:100DC000B0F5803F17D0B0F5A02F286817D020F4D9
:100DD00080302860286820F4802028606068E0B1B6
:100DE000FFF7C4FD064614E02868800322D560683A
:100DF0000028D2D01EE0286840F48030EDE740F4AF
:100E000080202860F7E700BFFFF7B0FD801B642853
:100E100070D828688003F7D50CE0FFF7A7FD0646D9
:100E200005E000BFFFF7A2FD801B6428F0D828680A
:100E30008003F7D4207880074CD5A868E96800F0D3
:100E40000C0001F003010C2802D004280DD001E0B1
:100E500002290AD0E068002828682BD040F480706E
:100E60002860FFF783FD064619E02868400502D593
:100E7000E068002891D06868217C20F0FE4040EABC
:100E800001606860C1480068FFF78EFD002800D14E
:100E900020E076E1FFF76AFD801B0228B8D82868B9
:100EA0004005F7D56868217C20F0FE4040EA0160EB
:100EB00068600FE020F480702860FFF757FD064659
:100EC00005E000BFFFF752FD801B0228A0D828686C
:100ED0004005F7D42078000729D560690028D5F8A7
:100EE000940013D040F00100C5F89400FFF73EFDD8
:100EF000064606E090E000BFFFF738FD801B0228A1
:100F000086D8D5F894008007F6D510E020F00100CF
:100F1000C5F89400FFF72AFD064604E0FFF726FD1A
:100F2000801B022878D8D5F894008007F6D4207862
:100F3000400761D5A86D0026C00008D4A86D40F018
:100F40008050A865A86D012600F080500090904860
:100F50000168C90511D40168804641F480710160BF
:100F6000FFF704FD074604E0FFF700FDC01B022861
:100F700052D8D8F80000C005F6D5A068012815D0D1
:100F80000528D5F8900016D020F00100C5F8900093
:100F9000D5F8900020F00400C5F89000A06841F258
:100FA0008838B8B1FFF7E2FC07460EE0D5F89000AC
:100FB00040F00100F0E740F00400C5F89000F5E7CC
:100FC000FFF7D4FCC11B414526D8D5F89000800717
:100FD000F6D50CE0FFF7CAFC074604E0FFF7C6FCB5
:100FE000C11B414518D8D5F890008007F6D41EB132
:100FF000A86D20F08050A8652078800629D5A069CA
:101000000028D5F8980013D040F00100C5F89800EA
:10101000FFF7ACFC064606E077E000BFFFF7A6FC52
:10102000801B022877D8D5F898008007F6D510E005
:1010300020F00100C5F89800FFF798FC064604E090
:10104000FFF794FC801B022865D8D5F8980080072C
:10105000F6D4E069F0B3A968C1F38101032961D036
:101060000228286820F0807028600BD0E86820F003
:101070000300E860E86847490840E860FFF776FC4D
:1010800004464BE0FFF772FC064604E0FFF76EFCF7
:10109000801B02283FD828688001F7D4F4E90801B2
:1010A0006FF00F0202EB01110843218A5204490834
:1010B00002EB4151A26841EA02210843217D4FF031
:1010C0007E42490802EB41610843217B40EAC1604E
:1010D000E96800E062E0304A11400843E8602868AF
:1010E00040F080702860E86840F08070E860FFF7AA
:1010F0003DFC044605E000BFFFF738FC001B02285A
:1011000009D828688001F7D548E004E0FFF72EFCF5
:10111000001B022802D90320BDE8F883286880015B
:10112000F4D43BE00128F7D0E868226A00F003011C
:10113000914226D1616A00F0F00209011039914212
:101140001FD1A26A00F4FE41B1EB022F19D194F82D
:101150002C2000F07841B1EBC26F12D1218E00F447
:10116000C00249084905A1F50011914209D194F83E
:10117000341000F0C06049084906A1F100718142B5
:101180000CD00120C8E70000001002400800002039
:1011900000700040FFFFEEFE0C809F010020BBE7C7
:1011A00010B5401EB0F1807F01D3012010BD4FF07B
:1011B000E02460610F21601700F0EFFC0020A061C7
:1011C00007202061002010BDFEE7000000B585B0BB
:1011D00014216846FFF7C4F9C02000900120019057
:1011E00002900220039069460248FFF7D5FA05B045
:1011F00000BD00000004004870B50824002500F080
:1012000053FC13E06806050E002000F035FC1420A6
:1012100000F0DAFC142000F0D7FC012000F02CFCD8
:10122000142000F0D1FC00F033FC0543641EE4B24E
:10123000E8D2002000F020FC142000F0C5FC00F0F3
:1012400055FC284670BD70B50446082516E000F030
:1012500013FC142000F0B8FC04F0800000F03AFC0D
:10126000142000F0B1FC6006040E142000F0ACFC69
:10127000012000F001FC142000F0A6FC6D1EEDB270
:101280004FF00000E3D200F0F7FBBDE870401420FF
:1012900000F09ABC10B5012000F01CFC142000F0F6
:1012A00093FC142000F090FC012000F0E5FB1420DA
:1012B00000F08AFC002000F0DFFBBDE810401420A5
:1012C00000F082BC10B5012000F004FC142000F0F6
:1012D0007BFC012000F0D0FB142000F075FC002006
:1012E00000F0F8FB142000F06FFC002000F0C4FBBD
:1012F000BDE81040142000F067BC10B5002000F0DD
:10130000BBFB142000F060FC002000F0E3FB142085
:1013100000F05AFC012000F0AFFB142000F054FC58
:10132000012000F0D7FBBDE81040142000F04CBCB9
:1013300010B5052400F0B8FB142000F045FC012096
:1013400000F09AFB142000F03FFC05E0641EA4B2FC
:10135000142000F039FC6CB100F09AFB0028F5D1A4
:1013600000F0C4FB002000F087FB142000F02CFCF0
:10137000002010BD00F0BAFBFFF7BFFF012010BD39
:1013800000B585B014216846FFF7EAF84FF6FF7004
:10139000009000200321CDE9020101906946024836
:1013A000FFF7FAF905B000BD0008004800B585B0A8
:1013B00014216846FFF7D4F84FF6FF700090012023
:1013C0000190032003900020029069460248FFF735
:1013D000E3F905B000BD00000008004870B5002426
:1013E00006462146204600F0FBF800F035F94FF4A0
:1013F0009635304600F000F9641CAC42F9D370BD5C
:1014000030B587B014216846FFF7AAF81E48C16CB2
:1014100041F00401C164C16C01F004010591C16C8B
:1014200041F00101C164C16C01F001010591C16C81
:1014300041F00201C164C06C012500F0020005907A
:101440004FF44870CDE900050024039469460294E6
:101450000E48FFF7A1F9280203940090CDE901544A
:101460004FF0904469462046FFF796F9FFF79EFF3C
:10147000A06940F48070A06104481830016841F40C
:101480000871016007B030BD001002400004004840
:10149000203AD2B2034B02EB420203EB021200F0FD
:1014A00019B800001E1D0008F0B50E4607460025BD
:1014B00040F23F1407E021463846FFF7E9FF103CB1
:1014C0006D1CA4B2761C3278002A01D0142DF2D300
:1014D000F0BD00002DE9F04791468A4600260446FB
:1014E00000F07EF8DFF84080012700BF00F0B4F87C
:1014F0005FF0000539F8160007FA05F1084240468A
:1015000001D1408800E0008800F076F86D1C102DB5
:10151000F0D3641CE4B25146204600F061F8761C1A
:10152000182EE3D3BDE8F0870000002010B5FFF7C8
:1015300067FF002000F014F8084CA080A088A0F5F8
:101540000241303906D000F095F9002000F008F88B
:10155000A08010BD00F005F9F7E7000000000020B2
:1015600070B51D490A6842F400720A600A6842F4C4
:1015700080720A60184C103C226842F020022260FF
:10158000164A1060086840F02000086000BF00BFE5
:1015900000BF206840F020002060206840F4807088
:1015A0002060FFF7EDFE4FF09041886A40F48070B4
:1015B000886200BF00BF00BF0848001F006885B2F6
:1015C000886940F480708861FFF7F0FE206840F47D
:1015D00000702060284670BD2804004814080048A8
:1015E00010B50C460146202000F068F82146BDE801
:1015F0001040212000F062B830B5154B1968154A2B
:101600008CB2116841F400711160124910390D68F3
:1016100045F480750D600D6845F020050D6018607B
:10162000106840F02000106000BF00BF00BF0868D5
:1016300040F020000860086840F48070086000BF37
:1016400000BF00BF086840F4007008601C6030BD37
:101650001408004828040048164A10B510681649B6
:1016600083B2086840F400700860086840F4807035
:10167000086011481038046844F0200404602224F3
:1016800014600C6844F020040C6000BF00BF00BF71
:10169000016841F020010160016841F4807101603E
:1016A00000BF00BF00BF016841F40071016013601A
:1016B00010BD0000140800482804004870B51A4CFA
:1016C00022681A4B95B21A6842F400721A601A68BE
:1016D00042F480721A60154A103A166846F02006E5
:1016E00016602060186840F02000186000BF00BF3E
:1016F00000BF106840F020001060106840F4807057
:1017000010602160186840F02000186000BF00BF22
:1017100000BF106840F020001060106840F4807036
:101720001060256070BD00001408004828040048BF
:10173000094808B5C16C41F02001C164C16C01F0D9
:1017400020010091C16C41F00101C164C06C00F046
:101750000100009008BD000000100240FEE7FEE717
:10176000704730B501210020FFF7A8FF4FF47A70D1
:10177000FEF7F1FF00210120FFF7A0FF41F2907179
:101780001020FFF79BFF4FF41C516020FFF796FFDE
:1017900001216120FFF792FF02214620FFF78EFF13
:1017A00048F210011320FFF789FF48F2FE011220D2
:1017B000FFF784FF4FF4A0610220FFF77FFF41F2A3
:1017C00030010320FFF77AFF40F203342146302036
:1017D000FFF774FF21463120FFF770FF21463220CA
:1017E000FFF76CFFE51E29463320FFF767FF032153
:1017F0003420FFF763FF21463520FFF75FFF1421F8
:101800003620FFF75BFF21463720FFF757FF2146C1
:101810003820FFF753FF21463920FFF74FFF2946B5
:101820003A20FFF74BFF03213B20FFF747FF2146FC
:101830003C20FFF743FF4FF4A0513D20FFF73EFF50
:101840004FF400719220FFF739FF21469320FFF7F4
:1018500035FF40F60D019020FFF730FF41F21801EF
:101860000320FFF72BFFBDE8304040F27311072043
:10187000FFF724BF10B543F20801E320FFF71EFF76
:101880001221E720FFF71AFF41F23121EF20FFF785
:1018900015FF00210120FFF711FF4FF4E061022046
:1018A000FFF70CFF41F230010320FFF707FF002193
:1018B0000420FFF703FF40F207210820FFF7FEFE98
:1018C00000210920FFF7FAFE00210A20FFF7F6FEAB
:1018D00000210C20FFF7F2FE00210D20FFF7EEFEA5
:1018E00000210F20FFF7EAFE00211020FFF7E6FE9F
:1018F00007211120FFF7E2FE00211220FFF7DEFE94
:1019000000211320FFF7DAFEC820FEF733FF41F273
:1019100090611020FFF7D2FE40F227211120FFF73F
:10192000CDFE3220FEF726FF1D211220FFF7C6FE56
:101930003220FEF71FFF4FF400611320FFF7BEFEB9
:1019400014212920FFF7BAFE0B212B20FFF7B6FE4A
:101950003220FEF70FFF00212020FFF7AFFE00210D
:101960002120FFF7ABFE07213020FFF7A7FE40F252
:1019700007713120FFF7A2FE06213220FFF79EFEFD
:1019800040F204713520FFF799FE41F604713620CC
:10199000FFF794FE04213720FFF790FE0021382046
:1019A000FFF78CFE40F206713920FFF787FE40F208
:1019B00001713C20FFF782FE0F213D20FFF77EFEE4
:1019C00000215020FFF77AFEEF215120FFF776FE2D
:1019D00000215220FFF772FE40F23F115320FFF723
:1019E0006DFE4FF41C516020FFF768FE012161205D
:1019F000FFF764FE00216A20FFF760FE00218020CF
:101A0000FFF75CFE00218120FFF758FE00218220B5
:101A1000FFF754FE00218320FFF750FE00218420B1
:101A2000FFF74CFE00218520FFF748FE1021902093
:101A3000FFF744FE00219220FFF740FE0321932090
:101A4000FFF73CFE4FF488719520FFF737FE002129
:101A50009720FFF733FE00219820FFF72FFE41F279
:101A600018010320FFF72AFEBDE8104040F2731171
:101A70000720FFF723BE000008B1044801E0034837
:101A80001030016841F040010160704718040048BF
:101A900010B580210348FEF763FF012800D0002025
:101AA00010BD00000004004800B585B01421684650
:101AB000FEF756FD8020009000200190012002904A
:101AC0000220039069460248FEF766FE05B000BD9D
:101AD0000004004808B1044801E0034810300168E0
:101AE00041F08001016070471804004800B585B0DE
:101AF00014216846FEF734FD8020009011200190EB
:101B0000002002900220039069460248FEF744FE3E
:101B100005B000BD000400487047FEF72DBF00B5BA
:101B200093B038216846FEF71BFD14210EA8FEF77E
:101B300017FD4FF40070FEF7A3FF0220C1010391CF
:101B4000402104910121CDE9080100900A21CDE94D
:101B50000A1007900C900D906846FFF71BF908B12A
:101B600072B6FEE70F200E9003200F900020109019
:101B70001190129002210EA8FEF7E8FF002801D074
:101B800072B6FEE713B000BD0248016841F470016F
:101B90000160704788ED00E0FEE70907090E0028A4
:101BA00004DB00F1E02080F80014704700F00F0023
:101BB00000F1E02080F8141D704730380A2801D267
:101BC0000120704700207047002100E0491C81423D
:101BD000FCD3704710B50446FFF774FBA020FFF755
:101BE00032FBFFF7A5FB2046FFF72DFBFFF7A0FB1D
:101BF000FFF783FBFFF766FBA120FFF724FBFFF74E
:101C000097FBFFF7F9FA0446FFF744FBFFF775FB74
:101C1000204610BD70B50D460446FFF753FBA020CB
:101C2000FFF711FBFFF784FB2046FFF70CFBFFF7E4
:101C30007FFB2846FFF707FBFFF77AFBFFF75DFB0B
:101C4000BDE870401420FEF795BD000008B5FFF711
:101C50006DFC0020FFF7C2FB4FF6FF70ADF80000EF
:101C6000BDF80010044801800021ADF80010BDF857
:101C70000010418008BD0000000000207FB505462F
:101C80000C460846FEF74DFCC0F11400430809A0BD
:101C900008A1CDE90014CDE9023007A214210948BA
:101CA000FEF712FB04B02846BDE870400549FFF777
:101CB000FBBB000000000000252A732573252A7352
:101CC000000000001800002086B0FEF75DFEFFF760
:101CD00026FFFFF72DFDFFF7B9FFFFF777FA0A217F
:101CE0000020FFF797FF0020FFF774FF034605A2CF
:101CF00014216846FEF7E8FA69460020FFF7BEFFA8
:101D0000FEE70000726561642066726F6D3A2025FF
:101D1000640000004FF04070E1EE100A70470000D0
:101D200000000000000000000000000000000000B3
:101D300000000000000000000000000000000000A3
:101D40000000000000000000000000000000000093
:101D5000800180018001800180018001800180017B
:101D6000800180018001800180010000000080016D
:101D700080010000000000000000000000000000E2
:101D80000000CC00CC00CC00CC00CC00CC0000008B
:101D90000000000000000000000000000000000043
:101DA0000000000000000000000000000000000033
:101DB00000000000000000000000600C600C600CDF
:101DC00030063006FE1FFE1F300638071803FE1FC0
:101DD000FE1F180318038C018C018C010000000009
:101DE0008000E003F80F9C0E8C1C8C188C0098006F
:101DF000F801E007800E801C8C188C189C18B80C19
:101E0000F00FE003800080000000000000000000F0
:101E1000000000000E181B0C110C11061106110316
:101E200011039B018E01C038C06C60446044304493
:101E300030441844186C0C3800000000000000000A
:101E4000E001F0033807180618063003F001F0002F
:101E5000F8009C310E33061E061C061C063FFC7360
:101E6000F021000000000000000000000000000061
:101E700000000C000C000C000C000C000C0000001A
:101E80000000000000000000000000000000000052
:101E90000000000000000000000000000000000042
:101EA000000200038001C000C0006000600030003C
:101EB0003000300030003000300030003000600072
:101EC0006000C000C00080010003000200000000AC
:101ED00020006000C00080018001000300030006B4
:101EE00000060006000600060006000600060003C5
:101EF000000380018001C00060002000000000009D
:101F000000000000000000000000C000C000D80673
:101F1000F807E0013003380700000000000000006F
:101F200000000000000000000000000000000000B1
:101F3000000000000000000000008001800180011E
:101F400080018001FC3FFC3F800180018001800115
:101F50008001000000000000000000000000000000
:101F60000000000000000000000000000000000071
:101F70000000000000000000000000000000000061
:101F800080018001000100018000000000000000CD
:101F90000000000000000000000000000000000041
:101FA000000000000000E007E00700000000000063
:101FB0000000000000000000000000000000000021
:101FC0000000000000000000000000000000000011
:101FD0000000000000000000000000000000000001
:101FE000C000C00000000000000000000000000071
:101FF000000C000C000600060006000300030003AE
:102000008003800180018001C000C000C00060002A
:102010006000000000000000000000000000000060
:10202000E003F007380E180C0C180C180C180C18DC
:102030000C180C180C180C180C18180C380EF0078B
:10204000E0030000000000000000000000000000AD
:1020500000018001C001F001980188018001800128
:102060008001800180018001800180018001800168
:1020700080010000000000000000000000000000DF
:10208000E003F80F180C0C180C1800180018000CBE
:10209000000600038001C000600030001800FC1F33
:1020A000FC1F000000000000000000000000000015
:1020B000E001F807180E0C0C0C0C000C0006C00315
:1020C000C007000C001800180C180C18180CF807A2
:1020D000E00300000000000000000000000000001D
:1020E000000C000E000F000F800DC00C600C600C87
:1020F000300C180C0C0CFC3FFC3F000C000C000CCE
:10210000000C0000000000000000000000000000C3
:10211000F80FF80F180018000C00EC03FC071C0E59
:10212000001C0018001800180C181C0C180EF807DA
:10213000E0030000000000000000000000000000BC
:10214000C007F00F381C181818000C00CC03EC0F57
:102150003C0E1C1C0C180C180C18181C380EF00720
:10216000E00300000000000000000000000000008C
:10217000FC1FFC1F000C000600060003800380010A
:10218000C001C000E000600060007000300030005E
:10219000300000000000000000000000000000000F
:1021A000E003F007380E180C180C180C3806F0076E
:1021B000F007180C0C180C180C180C18380CF80F29
:1021C000E00300000000000000000000000000002C
:1021D000E003F007380E1C0C0C180C180C181C1C13
:1021E000381EF81BE0190018000C000C1C0EF80734
:1021F000F0010000000000000000000000000000EE
:1022000000000000000000000000800180010000CC
:10221000000000000000000000000000000080013D
:10222000800100000000000000000000000000002D
:10223000000000000000000000008001800100009C
:10224000000000000000000000000000000080010D
:10225000800100010001800000000000000000007B
:10226000000000000000000000000000000000105E
:10227000001C800FE003F8001800F800E003800F56
:10228000001C001000000000000000000000000022
:102290000000000000000000000000000000F81F27
:1022A000000000000000F81F000000000000000017
:1022B000000000000000000000000000000000001E
:1022C0000000000000000000000000000000080006
:1022D0003800F001C007001F0018001FC007F00100
:1022E00038000800000000000000000000000000AE
:1022F000E003F80F180C0C180C180018000C00065E
:1023000000038001C000C000C00000000000C00049
:10231000C0000000000000000000000000000000FD
:102320000000E00718180420C229224A1144094479
:102330000944094409221113E20C02400420181830
:10234000E0070000000000000000000000000000A6
:1023500080038003C006C006C006600C600C301805
:1023600030183018F83FF83F1C700C600C6006C045
:1023700006C0000000000000000000000000000097
:10238000FC03FC0F0C0C0C180C180C180C0CFC07A4
:10239000FC0F0C180C300C300C300C300C18FC1FDF
:1023A000FC0700000000000000000000000000002A
:1023B000C007F01F38381C300C700660060006009D
:1023C000060006000600060006600C701C30F01FB8
:1023D000E007000000000000000000000000000016
:1023E000FE03FE0F060E06180618063006300630ED
:1023F000063006300630063006180618060EFE0FA8
:10240000FE030000000000000000000000000000CB
:10241000FC3FFC3F0C000C000C000C000C00FC1FEF
:10242000FC1F0C000C000C000C000C000C00FC3F0E
:10243000FC3F000000000000000000000000000061
:10244000F83FF83F18001800180018001800F81F8F
:10245000F81F1800180018001800180018001800BD
:102460001800000000000000000000000000000054
:10247000E00FF83F3C780E6006E007C00300030061
:1024800003FE03FE03C007C006C00EC03CF0F83FC9
:10249000E00F00000000000000000000000000004D
:1024A0000C300C300C300C300C300C300C30FC3F4D
:1024B000FC3F0C300C300C300C300C300C300C303D
:1024C0000C300000000000000000000000000000D0
:1024D00080018001800180018001800180018001F4
:1024E00080018001800180018001800180018001E4
:1024F000800100000000000000000000000000005B
:10250000000600060006000600060006000600069B
:102510000006000600060006180618063807F00335
:10252000E0010000000000000000000000000000CA
:1025300006300618060C060606038601C60066006D
:102540007600DE008E0106030606060C061806302D
:102550000660000000000000000000000000000015
:1025600018001800180018001800180018001800AB
:102570001800180018001800180018001800F81F9C
:10258000F81F000000000000000000000000000034
:102590000EE01EF01EF01EF036D836D836D836D8EB
:1025A00066CC66CC66CCC6C6C6C6C6C6C6C686C31C
:1025B00086C30000000000000000000000000000D2
:1025C0000C301C303C303C306C306C30CC30CC307B
:1025D0008C310C330C330C360C360C3C0C3C0C3868
:1025E0000C300000000000000000000000000000AF
:1025F000E007F81F1C380E70066003C003C003C05C
:1026000003C003C003C003C006600E701C38F81F6F
:10261000E0070000000000000000000000000000D3
:10262000FC0FFC1F0C380C300C300C300C300C182C
:10263000FC1FFC070C000C000C000C000C000C0034
:102640000C0000000000000000000000000000007E
:10265000E007F81F1C380E70066003E003C003C0DB
:1026600003C003C003C007E006630E3F1C3CF83FF5
:10267000E0F700C0000000000000000000000000C3
:10268000FE0FFE1F06380630063006300638FE1FE5
:10269000FE0706030606060C061806180630063066
:1026A00006600000000000000000000000000000C4
:1026B000E003F80F1C0C0C180C180C001C00F8039D
:1026C000E00F001E0038063006300E301C1CF80FDC
:1026D000E007000000000000000000000000000013
:1026E000FE7FFE7F800180018001800180018001EA
:1026F00080018001800180018001800180018001D2
:102700008001000000000000000000000000000048
:102710000C300C300C300C300C300C300C300C30D9
:102720000C300C300C300C300C300C301818F81FFA
:10273000E0070000000000000000000000000000B2
:1027400003600630063006300C180C180C18180CF4
:10275000180C380E30063006700760036003C001A5
:10276000C0010000000000000000000000000000A8
:102770000360C361C361C361663366336633663326
:10278000663366336C1B6C1B6C1B2C1A3C1E380E9C
:10279000380E0000000000000000000000000000F3
:1027A0000FE00C7018303018700C600EC0078003FA
:1027B0008003C003E006700C301C18180C300E604B
:1027C00007E0000000000000000000000000000022
:1027D00003C006600C301C383818300C6006E00767
:1027E000C00380018001800180018001800180019F
:1027F0008001000000000000000000000000000058
:10280000FC7FFC7F006000300018000C0006000315
:102810008001C0006000300018000C000600FE7F40
:10282000FE7F00000000000000000000000000002B
:10283000E003E00360006000600060006000600092
:102840006000600060006000600060006000600088
:102850006000600060006000E003E0030000000032
:1028600030003000600060006000C000C000C000A8
:10287000C001800180018001000300030003000605
:102880000006000000000000000000000000000042
:10289000E003E00300030003000300030003000360
:1028A0000003000300030003000300030003000310
:1028B0000003000300030003E003E0030000000046
:1028C0000000C001C00160036003600330063006F1
:1028D000180C180C000000000000000000000000B0
:1028E00000000000000000000000000000000000E8
:1028F00000000000000000000000000000000000D8
:1029000000000000000000000000000000000000C7
:10291000FFFFFFFF000000000000000000000000BB
:102920000C000C000C000C000C000C00000000005F
:102930000000000000000000000000000000000097
:102940000000000000000000000000000000000087
:1029500000000000000000000000F003F8071C0C5D
:102960000C0C000FF00FF80C0C0C0C0C1C0FF80FDB
:10297000F01800000000000000000000000000004F
:1029800018001800180018001800D803F80F380CA9
:10299000181818181818181818181818380CF80FCC
:1029A000D80300000000000000000000000000004C
:1029B00000000000000000000000C003F007300E1F
:1029C000180C1800180018001800180C300EF0072A
:1029D000C003000000000000000000000000000034
:1029E00000180018001800180018C01BF01F301C39
:1029F000181818181818181818181818301CF01F5C
:102A0000C01B0000000000000000000000000000EB
:102A100000000000000000000000C003F00F300CB8
:102A20001818F81FF81F180018003818301CF00F7D
:102A3000C0070000000000000000000000000000CF
:102A4000800FC00FC000C000C000F007F007C0003A
:102A5000C000C000C000C000C000C000C000C00076
:102A6000C0000000000000000000000000000000A6
:102A700000000000000000000000E00DF80F180E3C
:102A80000C0C0C0C0C0C0C0C0C0C0C0C180EF80F89
:102A9000E00D000C0C0C1C06F807F0010000000013
:102AA00018001800180018001800D807F80F381C74
:102AB0001818181818181818181818181818181896
:102AC00018180000000000000000000000000000D6
:102AD000C000C000000000000000C000C000C00036
:102AE000C000C000C000C000C000C000C000C000E6
:102AF000C000000000000000000000000000000016
:102B0000C000C000000000000000C000C000C00005
:102B1000C000C000C000C000C000C000C000C000B5
:102B2000C000C000C000C000F80078000000000035
:102B30000C000C000C000C000C000C0C0C060C0320
:102B40008C01CC006C00FC009C018C030C030C0677
:102B50000C0C00000000000000000000000000005D
:102B6000C000C000C000C000C000C000C000C00065
:102B7000C000C000C000C000C000C000C000C00055
:102B8000C000000000000000000000000000000085
:102B9000000000000000000000007C3CFF7EC7E356
:102BA00083C183C183C183C183C183C183C183C105
:102BB00083C10000000000000000000000000000D1
:102BC000000000000000000000009807F80F381C0B
:102BD0001818181818181818181818181818181875
:102BE00018180000000000000000000000000000B5
:102BF00000000000000000000000C003F00F300CD7
:102C0000181818181818181818181818300CF00F69
:102C1000C0030000000000000000000000000000F1
:102C200000000000000000000000D803F80F380C7E
:102C3000181818181818181818181818380CF80F29
:102C4000D803180018001800180018000000000031
:102C500000000000000000000000C01BF01F301C3E
:102C6000181818181818181818181818301CF01FE9
:102C7000C01B001800180018001800180000000001
:102C800000000000000000000000B007F00370002A
:102C900030003000300030003000300030003000B4
:102CA00030000000000000000000000000000000F4
:102CB00000000000000000000000E003F003380EF8
:102CC000180C3800F003C007000C180C380EF00781
:102CD000E003000000000000000000000000000011
:102CE00000008000C000C000C000F007F007C00076
:102CF000C000C000C000C000C000C000C000C007CD
:102D0000800700000000000000000000000000003C
:102D10000000000000000000000018181818181823
:102D2000181818181818181818181818381CF01F20
:102D3000E01900000000000000000000000000009A
:102D4000000000000000000000000C18180C180C17
:102D5000180C300630063006600360036003C001C3
:102D6000C0010000000000000000000000000000A2
:102D700000000000000000000000C141C141C3612B
:102D80006363636363633636363636361C1C1C1C3D
:102D90001C1C0000000000000000000000000000FB
:102DA000000000000000000000001C38381C300C3F
:102DB000600660036003600360036006300C381C2B
:102DC0001C380000000000000000000000000000AF
:102DD000000000000000000000001830301830181B
:102DE0007018600C600CE00CC006C0068003800305
:102DF000800380018001C001F0007000000000002D
:102E000000000000000000000000FC1FFC1F000C80
:102E1000000600038001C000600030001800FC1FA5
:102E2000FC1F000000000000000000000000000087
:102E300000038001C000C000C000C000C000C0008E
:102E400060006000300060004000C000C000C000B2
:102E5000C000C000C00080010003000000000000AE
:102E6000800180018001800180018001800180015A
:102E7000800180018001800180018001800180014A
:102E8000800180018001800180018001000000003C
:102E90006000C000C00180018001800180018001CC
:102EA000000300030006000300018001800180018F
:102EB000800180018001C00060000000000000006F
:102EC0000000000000000000000000000000F01002
:102ED000F81F080F000000000000000000000000C4
:102EE00000000000000000000000000000000000E2
:102EF00000000000000001020304060708090000AA
:102F0000202F000800000020180000001402000814
:102F1000382F000818000020780600003002000852
:102F20000000FFFF00000000100000000100000092
:082F3000000000000024F40081
:04000005080001D915
:00000001FF
