:020000040800F2
:10000000E00C0020D50100089F1E0008991E000882
:100010009D1E0008D3050008091F0008000000000D
:10002000000000000000000000000000A31E000807
:100030008D16000800000000A11E0008A51E000883
:10004000EF010008EF010008EF010008EF010008D0
:10005000EF010008EF010008EF010008EF010008C0
:10006000EF010008EF010008EF010008EF010008B0
:10007000EF010008EF010008EF010008EF010008A0
:10008000EF010008EF010008EF010008EF01000890
:10009000EF010008EF010008EF010008EF01000880
:1000A000EF010008EF010008EF010008EF01000870
:1000B000EF010008EF010008EF010008EF01000860
:1000C000EF010008EF010008EF010008EF01000850
:1000D000EF010008EF010008EF010008EF01000840
:1000E000EF010008EF010008EF010008EF01000830
:1000F000EF010008EF010008EF010008EF01000820
:10010000EF010008EF010008EF010008EF0100080F
:10011000EF010008EF010008EF010008EF010008FF
:10012000EF010008EF010008EF010008EF010008EF
:1001300000F002F800F03FF80AA090E8000C8244BA
:100140008344AAF10107DA4501D100F034F8AFF297
:10015000090EBAE80F0013F0010F18BFFB1A43F0A5
:1001600001031847E053000000540000103A24BF78
:1001700078C878C1FAD8520724BF30C830C144BF0C
:1001800004680C607047000000230024002500264E
:10019000103A28BF78C1FBD8520728BF30C148BFEA
:1001A0000B607047642900F08380002070471FB502
:1001B0001FBD10B510BD00F0D7F91146FFF7F7FFCE
:1001C00003F024F800F0F5F903B4FFF7F2FF03BCE5
:1001D00000F0F8F90948804709480047FEE7FEE7C4
:1001E000FEE7FEE7FEE7FEE7FEE7FEE7FEE7FEE7E7
:1001F00004480549054A064B70470000071F0008E0
:1002000031010008E0060020E00C0020E00800209A
:10021000E00800200FB41CB50C0007AA009001D024
:100220002044401E074B7B4469460190069800F02D
:1002300072F9002C03D06946002000F07FF91CBC45
:100240005DF814FB1D0300002DE9F0410E46044645
:10025000002020622046E168884730B3252805D079
:10026000D4E901219047206A401CF2E7E16820466A
:1002700000278847050018D0A5F14100192802D8A9
:1002800020354FF400673246294620462760FFF7A5
:1002900089FF40B1012804D0F61D26F00706083674
:1002A000D8E7361DD6E72846DAE7206ABDE8F081B0
:1002B0002DE9F0410646002410687529314616A53F
:1002C00010D0AFF30080002802DA404213A507E007
:1002D00031688A0701D512A502E0490704D511A5A6
:1002E000012401E0AFF3008000210A2206F1240777
:1002F00009E0B0FBF2FCB0FBF2F302FB1C00303073
:1003000078541846491C0028F3D123462A46304623
:10031000BDE8F04100F0A0B8000000002D00000092
:100320002B000000200000004FF000020429C0F064
:10033000128010F0030C00F01B80CCF1040CBCF117
:10034000020F18BF00F8012BA8BF20F8022BA1EB69
:100350000C0100F00DB85FEAC17C24BF00F8012B4E
:1003600000F8012B48BF00F8012B70474FF0000246
:1003700000B5134694469646203922BFA0E80C509B
:10038000A0E80C50B1F12001BFF4F7AF090728BF76
:10039000A0E80C5048BF0CC05DF804EB890028BFF2
:1003A00040F8042B08BF704748BF20F8022B11F01B
:1003B000804F18BF00F8012B704700004FF0013C40
:1003C00050F8042B51F8043B9A4221D1A2EB0C03C4
:1003D000934313EACC1317D150F8042B51F8043B84
:1003E0009A4215D1A2EB0C03934313EACC130BD121
:1003F00050F8042B51F8043B9A4209D1A2EB0C03AC
:10040000934313EACC13DBD04FF00000704700BFDA
:10041000D01A01BAB1FA81F101F0180122FA01F003
:10042000CB40C1F12001DBB2C0B2C01A2CFA01F3FB
:10043000D11A914311EAC311E6D170477047704752
:10044000704710B500F088F8006810BD10B504467C
:1004500000F082F8046010BD2DE9F0470D46994682
:100460009246044600F124080168880604D5E06934
:1004700021F01001216000E00120A84201DD471BAE
:1004800000E00027A1697A1902EB0900081AA061AF
:100490002078C00602D42046AFF30080002608E092
:1004A000D4E901211AF806009047206A401C761C06
:1004B00020624E45F4DB2078C0060AD52046AFF313
:1004C000008006E0D4E9012130209047206A401CDA
:1004D0002062381EA7F10107F4DC07E0D4E901210E
:1004E00018F805009047206A401C2062281EA5F1DC
:1004F0000105F3DC2046AFF300802078000602D52A
:100500000220BDE8F0870120FBE7000001694A1CDA
:1005100002610878704700B58FB0CDE90131002144
:10052000059105497944CDE9031011466846FFF766
:100530008BFE0FB000BD0000E5FFFFFF0A6802F868
:10054000010B0A607047D1E900239A4202D2531C82
:100550000B60107070470000004870478006002054
:1005600000487047800600207546FFF7F9FFAE4649
:1005700005006946534620F00700854618B020B5AF
:10058000FFF736FEBDE820404FF000064FF00007B1
:100590004FF000084FF0000B21F00701AC46ACE82B
:1005A000C009ACE8C009ACE8C009ACE8C0098D4698
:1005B000704710B50446AFF300802046BDE81040F8
:1005C000FFF702BE01491820ABBEFEE7260002007D
:1005D0007047FEE770B50446808860F30F05207C05
:1005E00001F0B8FC618901EB1041284661F31F401E
:1005F00070BDC260416070470160704709688160EA
:1006000070477CB50026ADF80060C36A05463246E7
:1006100069469847ADF80460EB6A012201A92846B3
:100620009847BDF80400BDF8001060F31F44204651
:1006300061F30F007CBD00002DE9F04F83460C46AE
:10064000086885B025A1FFF7B9FE002843D0A0684F
:10065000009094F810A0504601F07CFC1FFA80F83E
:100660004FEA1049221D04F10C01584601F033FEF7
:10067000002637463546049023E0218906FB081002
:10068000ADF80000618907FB0910ADF80200009881
:1006900001902068237C01A9425D584601F0E7FDE6
:1006A00053466A4604A9584602F09CF828B1002631
:1006B0007F1CA088FFB2208101E0761CF6B26D1C81
:1006C000EDB22068405D0028D7D10098A060218954
:1006D00001EB0800208105B0BDE8F08F00000000AC
:1006E0002DE9F74F0C46086886B0934631A1FFF715
:1006F00065FEA0B1A068009094F810A0504601F0EB
:1007000029FC87B24FEA1049221D04F10C0106981A
:1007100001F0E1FD0026B0463546049029E060680E
:1007200009B0BDE8F08F208901A906FB0700ADF8EC
:100730000000628908FB0920ADF8020000980190D2
:100740002068237C425D069801F091FD53466A467D
:1007500004A9069802F046F838B108F1010000F04B
:10076000FF08A0880026208101E0761CF6B26D1CEF
:10077000EDB22068405D0028D5D10098A0602089A6
:10078000384420815FEA0B000CD0BBF1010F0ED181
:10079000A088ADF80000BDF8021001EB0900ADF82B
:1007A000020004E0BDF800003844ADF800000098F5
:1007B000B6E70000000000001CB58A68002A07D0D8
:1007C000CB88CDE900328B884A88C4690988A04764
:1007D0001CBD0000037403A3C0E90031C0E902128C
:1007E000704700000000000080E80E007047000025
:1007F0002DE9F0410446069F81601D4616460846D5
:10080000FFF7FFFEAA1981B2B2EB510F11D8BA1946
:10081000000CB2EB500F0CD8A6812580491B6780D5
:10082000A180C01BE080044820610448A061044806
:100830006061BDE8F0810000C92900081D2800089A
:10084000332300082DE9F34FB1F90450B1F906B094
:10085000C5F101000FFA80F9B1F908000C46002635
:100860008246034681B05A462946304601F04CFE86
:1008700050B12088ADF80000608869462844ADF882
:100880000200019800F024FB684201B24FF000081A
:1008900053465A460F46404601F036FE50B1208876
:1008A000ADF8000060886946401BADF80200019871
:1008B00000F00EFB53465A463146284601F024FE0E
:1008C00050B1208869462844ADF800006088ADF832
:1008D0000200019800F0FCFA53465A464146384659
:1008E00001F012FE00287DD02088401BADF80000EA
:1008F0006088A7E0761C36B2B9F1000F02DA09EB86
:10090000460004E06D1E2DB2711B09EB4100401C36
:100910000FFA80F953465A462946304601F0F4FD55
:1009200058B1208869463044ADF8000060882844FA
:10093000ADF80200019800F0CBFA53465A46314612
:10094000284601F0E1FD58B1208869462844ADF8F9
:10095000000060883044ADF80200019800F0B8FA59
:10096000684201B2704200B253465A468846074672
:1009700001F0CAFD58B120886946801BADF800001F
:100980006088401BADF80200019800F0A1FA5346C0
:100990005A463946404601F0B7FD58B120886946AD
:1009A000401BADF800006088801BADF80200019884
:1009B00000F08EFA53465A464146304601F0A4FDF7
:1009C00058B1208869463044ADF800006088401B6B
:1009D000ADF80200019800F07BFA53465A463946BA
:1009E000284600E034E001F08FFD58B120886946C8
:1009F0002844ADF800006088801BADF80200019823
:100A000000F066FA53465A462946384601F07CFD06
:100A100058B120886946801BADF8000060882844E2
:100A2000ADF80200019800F053FA53465A46314699
:100A3000404601F069FD58B12088401BADF8000028
:100A400060883044ADF802006946019800F040FA31
:100A5000AE42FFF64FAFBDE8FE8F2DE9F84380466A
:100A60008888B1F90450C0F1010007B20888ADF8D8
:100A7000000048880C462844ADF80200002669466C
:100A8000404600F025FA2088ADF8000060886946ED
:100A9000401BADF80200404600F01AFA2088694673
:100AA0002844ADF800006088ADF80200404600F030
:100AB0000FFA2088401BADF80000608867E0761CC4
:100AC00036B2002F02DA07EB460004E06D1E2DB2AD
:100AD000701B07EB4000401C07B220886946304479
:100AE000ADF8000060882844ADF80200404600F0F0
:100AF000EFF9208869462844ADF80000608830444A
:100B0000ADF80200404600F0E3F920886946801BFA
:100B1000ADF800006088401BADF80200404600F0D0
:100B2000D7F920886946401BADF800006088801B1B
:100B3000ADF80200404600F0CBF920886946304409
:100B4000ADF800006088401BADF80200404600F0A0
:100B5000BFF9208869462844ADF800006088801BF2
:100B6000ADF80200404600F0B3F920886946801BCA
:100B7000ADF8000060882844ADF80200404600F05F
:100B8000A7F92088401BADF8000060883044ADF81C
:100B900002006946404600F09BF9AE428FDBBDE89B
:100BA000F88300002DE9F34F8FB0B1F904000290F3
:100BB000B1F906400D46A14604FB09F007B20298C0
:100BC000002640430FFA80F8604203F090FB0022B9
:100BD0009D4B03F00DF983468A46404603F087FBA0
:100BE0005A46534603F0EAFB83468A46384603F0EA
:100BF0007EFB5A46534603F0FBF803F0C7F8069015
:100C00002888ADF80C00688803A92044ADF80E00D0
:100C10000F9800F05DF92888ADF80C00688803A9EA
:100C2000001BADF80E000F9800F052F92888ADF8BF
:100C30000C00688803A92044ADF80E000F9800F05E
:100C400047F92888ADF80C00688803A9001BADF8A7
:100C50000E000F9800F03CF9404603F048FBCDE948
:100C6000070150E00698B0F5000F4FF0030000EBCD
:100C7000460000FB07F006DA03F0F6FD069903F0E4
:100C800091FD06900DE06242022101EB420208FB59
:100C9000020003F0E9FD069903F084FD641E24B20E
:100CA00006900E9803A906B228883044ADF80C00CF
:100CB00068882044ADF80E000F9800F009F92888E4
:100CC00003A9801BADF80C006888001BADF80E006E
:100CD0000F9800F0FDF8288803A9801BADF80C00E0
:100CE00068882044ADF80E000F9800F0F1F82888CD
:100CF00003A93044ADF80C006888001BADF80E0065
:100D00000F9800F0E5F8204603F0F1FA00224E4B70
:100D100003F05EFC02460B46DDE9070103F04EFBE3
:100D20008246701C0E908B46784303F0E0FA5246E0
:100D30005B4603F007FB95D308FB07F003F0D7FAF7
:100D4000824607910298611E4843404303F0CFFA60
:100D50000C900991304603F0CAFA00223A4B03F096
:100D600047F8834648460B9103F0C1FA5A460B9B5D
:100D700003F024FB02460B4603F020FB099B0C9A70
:100D800003F036F85246079B03F022FC02F0FEFF08
:100D9000814653E0B9F5000F12DA022000EB46005D
:100DA00062420321784301EB420208FB020003F098
:100DB0005BFD494603F0F6FC761C814636B20BE03B
:100DC0006142032000EB410000FB08F003F04CFD02
:100DD000494603F0E7FC81462888641E3044ADF89C
:100DE0000C00688824B22044ADF80E0003A90F98C7
:100DF00000F06EF8288803A9801BADF80C00688805
:100E0000001BADF80E000F9800F062F8288803A9C7
:100E1000801BADF80C0068882044ADF80E000F98D8
:100E200000F056F8288803A93044ADF80C00688813
:100E3000001BADF80E000F9800F04AF8002CA9DC5A
:100E400011B0BDE8F08F00000000E03FF8B50646A5
:100E50000C4608888988884218D1E188608802F0A9
:100E6000E0F90746E188608802F0DFF92188ADF8F3
:100E70000010054608E000BFADF802506946304654
:100E800000F026F86D1CADB2BD42F5D96088E1884E
:100E9000884217D1A188208802F0C3F90746A188AB
:100EA000208802F0C2F96188ADF80210054607E01B
:100EB000ADF800506946304600F00AF86D1CADB23E
:100EC000BD42F5D921463046BDE8F84001F0CFB823
:100ED0004A884369098818477CB5064688880D46C4
:100EE00060F30F044888096860F31F44224668468F
:100EF00000F0BFFB69463046FFF7A8FF6A6821464D
:100F0000684600F0B6FB69463046FFF79FFF288829
:100F1000296860F30F04E88860F31F44224668469E
:100F200000F0A7FB69463046FFF790FF6A6821464C
:100F3000684600F09EFB69463046FFF787FF7CBDA0
:100F40002DE9F84381468888B1F90450C0F10100C9
:100F50000FFA80F80888ADF8000048880C4628444D
:100F6000ADF80200002669464846FFF7B1FF208829
:100F7000ADF8000060886946401BADF802004846A5
:100F8000FFF7A6FF208869462844ADF80000608876
:100F9000ADF802004846FFF79BFF20886946401BDA
:100FA000ADF800006088ADF802004846FFF790FFFA
:100FB000684207B20CE02088ADF8000060886946FE
:100FC0003844ADF802004846FFF782FF7F1C3FB26D
:100FD000AF42F0DBADE0761C36B2B8F1000F02DABA
:100FE00008EB460004E06D1E2DB2711B08EB4100BA
:100FF000401C0FFA80F8208869463044ADF80000A4
:1010000060882844ADF802004846FFF761FF208859
:1010100069462844ADF8000060883044ADF802000D
:101020004846FFF755FF20886946801BADF8000051
:101030006088401BADF802004846FFF749FF208852
:101040006946401BADF800006088801BADF80200C7
:101050004846FFF73DFF208869463044ADF8000060
:101060006088401BADF802004846FFF731FF20883A
:1010700069462844ADF800006088801BADF8020086
:101080004846FFF725FF20886946801BADF8000021
:1010900060882844ADF802004846FFF719FF208811
:1010A0006946401BADF8000060883044ADF802008E
:1010B0004846FFF70DFF684207B219E020886946ED
:1010C0003044ADF8000060883844ADF8020048466E
:1010D000FFF7FEFE20886946801BADF8000060889F
:1010E0003844ADF802004846FFF7F2FE7F1C3FB2DD
:1010F000AF42E3DB704207B219E02088694628441A
:10110000ADF8000060883844ADF802004846FFF7AB
:10111000DFFE20886946401BADF800006088384437
:10112000ADF802004846FFF7D3FE7F1C3FB2B7423E
:10113000E3DBAE42FFF64FAFBDE8F8832DE9F34F96
:101140008FB0B1F904000190B1F906500C46AA46DF
:1011500005FB0AF00FFA80F80198002640430FFAC9
:1011600080F96842099003F0C2F80022C94B02F0EE
:101170003FFE07468B46484603F0B9F83A465B46C1
:1011800003F01CF907468B46404603F0B0F85B4677
:101190003A4602F02DFE02F0F9FD0790099807B2D9
:1011A00017E000BFADF81800608806A93844ADF814
:1011B0001A000F98FFF78CFE2088ADF818006088A1
:1011C00006A93844ADF81A000F98FFF781FE7F1C7E
:1011D0003FB22088AF42E5DB3044ADF818006088AC
:1011E00006A92844ADF81A000F98FFF771FE208871
:1011F00006A9801BADF818006088401BADF81A00E6
:101200000F98FFF765FE208806A9801BADF818002F
:1012100060882844ADF81A000F98FFF759FE20881F
:1012200006A93044ADF818006088401BADF81A00DC
:101230000F98FFF74DFE484603F059F8CDE9080135
:101240006AE00798B0F5000F4FF0030000EB46008E
:1012500000FB08F006DA03F007FB079903F0A2FA97
:1012600007900DE06A42022101EB420209FB0200F5
:1012700003F0FAFA079903F095FA6D1E2DB2079064
:101280000E9806B2684207B214E03844ADF81A006E
:1012900006A90F98FFF71CFE208806A9801BADF851
:1012A000180060883844ADF81A000F98FFF710FE58
:1012B0007F1C3FB22088AF423044ADF818006088F0
:1012C000E3DB2844ADF81A0006A90F98FFF700FEEB
:1012D000208806A9801BADF818006088401BADF877
:1012E0001A000F98FFF7F4FD208806A9801BADF8BF
:1012F000180060882844ADF81A000F98FFF7E8FD41
:10130000208806A93044ADF818006088401BADF86D
:101310001A000F98FFF7DCFD284602F0E8FF0022D4
:101320005C4B03F055F902460B46DDE9080103F07A
:1013300045F88B46711C074608FB01F00E9102F040
:10134000D6FF3A465B4602F0FDFFFFF47AAF09FB99
:1013500008F002F0CCFF834607910198691E4843CC
:10136000404302F0C4FF0C900F46304602F0BFFF2E
:101370000022484B02F03CFD0E900591504602F0D1
:10138000B6FF059B0E9A03F019F802460B4603F0D0
:1013900015F83B460C9A02F02BFD5A46079B03F0CA
:1013A00017F902F0F3FC82466FE000BFBAF5000FB8
:1013B00013DA022000EB46006A42032100FB08F02A
:1013C00001EB420209FB020003F04EFA514603F022
:1013D000E9F9761C824636B20BE06942032000EB45
:1013E000410000FB09F003F03FFA514603F0DAF93F
:1013F00082466D1E2DB2684207B214E03844ADF843
:101400001A0006A90F98FFF763FD208806A9801B24
:10141000ADF8180060883844ADF81A000F98FFF74F
:1014200057FD7F1C3FB22088AF423044ADF8180012
:101430006088E3DB2844ADF81A0006A90F98FFF78F
:1014400047FD208806A9801BADF818006088401B66
:10145000ADF81A000F98FFF73BFD208806A9801B06
:10146000ADF8180060882844ADF81A000F98FFF70F
:101470002FFD208806A93044ADF818006088401B75
:10148000ADF81A000F98FFF723FD002D8EDC11B088
:10149000BDE8F08F0000E03FF8B50E4607460D8826
:1014A00011E000BFADF80050748807E0ADF80240CD
:1014B00069463846FFF70CFD641CA4B2F088A042D0
:1014C000F4D26D1CADB2B088A842EBD2F8BD2DE9C4
:1014D000F04786B082460888ADF800008888ADF8ED
:1014E00002000889ADF804004888ADF80800C888F3
:1014F000ADF80A004889ADF80C000321684601F0F8
:101500006DFE0446032102A801F068FE8046032117
:10151000684601F053FE8146032102A801F04EFE09
:10152000ADF810400646ADF8128016E04546A7B269
:101530000FE0ADF81070ADF8125004AA02A9684689
:1015400001F014F818B104A95046FFF7C1FC6D1C56
:101550002DB2B542EDDB641C24B24C45E6DB06B08F
:10156000BDE8F087002303704160094941610949E2
:1015700001620949C161094981610949C0E909124A
:101580000849C1600849016108498160704700004D
:1015900081210008D3210008E3250008C1270008A5
:1015A00063260008A52300086F280008D529000835
:1015B00010B5029C01600481C380828010BD0000D0
:1015C0002DE9F0410446DDE90650A3602160227157
:1015D0000026E56084F8386084F8416084F83900BA
:1015E000154860611548A061154820611548E06103
:1015F00015482062154860621548E0621548A062EF
:101600001548206315486063002D12D09F6A7868E2
:101610006860387C00F09EFC000C6881B8892881E5
:10162000A06840682860AE810420E8810C482861E9
:101630002E75BDE8F081000019240008F728000885
:10164000CF290008492900087F2700088B270008B8
:10165000C52300088D28000899220008952100085C
:10166000F721000801608280704701608280C3809A
:10167000704701604260704701804280704701609E
:1016800042607047016042608360704770470000AD
:1016900070B5044600F010F90546601C02D00448FD
:1016A0000078044400F008F9401BA042FAD370BD52
:1016B000F00000202DE9F84FDFF8C8910024A9F1CF
:1016C000040B23460F2709F1040AABF1040ED1E005
:1016D0000125A54006EA0502AA4276D1DFF8A8C195
:1016E0004E68A6EB0C0866452BD00DDC032E34D0DB
:1016F00005DC36B3012E19D0022E2FD11BE0112E9E
:1017000016D0122E2AD119E0B8F5881F19D006DCA0
:10171000B8F5803F15D0B8F5801F1FD111E0B8F59E
:10172000001F0ED0B8F5041F18D10AE0CB6815E0F1
:10173000CB681B1D12E0CB6808330FE0CB680C337D
:101740000CE08B682BB1012B4FF0080303D04561EF
:1017500004E0042302E0056100E00023FF2A01D831
:10176000064601E000F104064FEA840501D9A5F11F
:101770002005D6F8008007FA05FC28EA0C0803FAD1
:1017800005F548EA0508C6F800804D68ED0070D5FB
:101790003E4DAE6946F00106AE61AD6924F0030628
:1017A00005F0010500953A4D06EB050CDCF80850F4
:1017B000A607360F07FA06F825EA0805DFF8D480F1
:1017C000404503D14FF0000825E052E0DFF8C88023
:1017D000404502D14FF001081DE0DFF8C0804045D0
:1017E00002D14FF0020816E0DFF8B480404502D184
:1017F0004FF003080FE0DFF8AC80404502D14FF016
:10180000040808E0DFF8A080404502D14FF0050849
:1018100001E04FF0060808FA06F848EA0508CCF897
:1018200008804D68D9F80060ED024D4601D5164399
:1018300000E096432E604D68DAF80060AD02554630
:1018400001D5164300E096432E604D68DBF800603A
:10185000AD035D4601D5164300E096432E604D680A
:10186000DEF80060ED03754601D5164300E09643AF
:101870002E60641C0A681646E2407FF429AFBDE87A
:10188000F88F000008040140000011100010024011
:101890000000014000080140000C01400010014020
:1018A0000014014000180140001C01400AB1016110
:1018B00070470904FBE7000001488068704700009A
:1018C000F00000200248816802781144816070476E
:1018D000F0000020074810B5016841F010010160D8
:1018E000032000F067F80F2000F006F800F024F85D
:1018F000002010BD0020024070B50D4D04464FF48D
:101900007A712878B1FBF0F00A490968B1FBF0F070
:1019100000F0AEFA48B9102C07D200222146501E22
:1019200000F028F800206C6070BD012070BD000040
:10193000F0000020FC0000200C4808B5816941F04F
:1019400001018161816901F001010091C16941F0EA
:101950008051C161C06900F0805000900448416826
:1019600021F0E06141F08061416008BD001002405B
:1019700000000140F0B40E4B1B680C46C3F3022379
:10198000C3F10705042D00D90425191D072901D22B
:10199000002300E0DB1E012606FA05F1491E214066
:1019A00099409E40761E16403143F0BC00F0C1BA0B
:1019B0000CED00E0064900F0070208684FF6FF034F
:1019C000184040EA0220034A1043086070470000B4
:1019D0000CED00E00000FA052DE9F0470F46050088
:1019E00061D0434E306800F00700B84209D2306839
:1019F00020F0070038433060306800F00700B8423C
:101A000051D128683B4C810712D5400703D5606847
:101A100040F4E06060602878000703D5606840F417
:101A2000605060606068A96820F0F0000843606062
:101A30002878C00728D06868012810D021680228BB
:101A400010D0890700292EDA616821F003010143D3
:101A50006160FFF731FF804641F288390DE021686F
:101A60008903EFE78901EDE7FFF726FFA0EB080107
:101A7000494502D90320BDE8F0876068696800F035
:101A80000C00B0EB810FEFD1306800F00700B842D6
:101A90000BD9306820F0070038433060306800F020
:101AA0000700B84201D00120E5E72878400705D5B6
:101AB0006068E96820F4E060084360602878000707
:101AC00006D56068296920F4605040EAC100606072
:101AD00000F018F86168084AC1F30311515CC8406E
:101AE0000649086006480068FFF706FF0020C2E7C5
:101AF0000020024000100240FD530008FC000020BE
:101B0000F40000200E4A51680E4801F00C03042B2B
:101B100011D0082B0FD10C48C1F38343C903C05C1B
:101B20000AD55168084AC1F34041921E515C054AEA
:101B30005043B0FBF1F07047044948437047000040
:101B40000010024000127A00ED53000800093D0029
:101B50002DE9F84F040070D02078C04DC00749D05F
:101B60006868C0F38100012807D06868C0F381006D
:101B7000022809D16868C00306D52868800339D5D2
:101B800060680028E7D035E06068B0F5803F0BD092
:101B900010B1B0F5A02F11D0286820F48030286053
:101BA000286820F4802002E0286840F48030286013
:101BB000606890B1FFF780FE06460AE0286840F4AE
:101BC00080202860F0E700BFFFF776FE801B6428C6
:101BD00073D828688003F7D50CE0FFF76DFE064642
:101BE00005E000BFFFF768FE801B6428F0D8286876
:101BF0008003F7D420789A4E80074FF001094FF008
:101C0000000839D5686810F00C0F07D06868C0F379
:101C10008100022809D16868C00306D428688007BB
:101C200014D52069012808D110E02069B0B1C6F8A8
:101C30000090FFF741FE074605E00AE1FFF73CFE92
:101C4000C01B0228C4D828688007F7D528686169B6
:101C500020F0F80040EAC10028600DE0C6F80080DE
:101C6000FFF72AFE074604E0FFF726FEC01B022806
:101C700023D828688007F7D4207800072CD5794826
:101C8000A169D9B1C0F80090FFF716FE074604E03D
:101C9000FFF712FEC01B02280FD8686A8007F7D52D
:101CA00071484FF4FA510068B0FBF1F0009000BFAA
:101CB0000098411E0091FAD20EE080E0C0F800804A
:101CC000FFF7FAFD074604E0FFF7F6FDC01B022808
:101CD00075D8686A8007F7D42078400760D5E8692E
:101CE0000027C00008D4E86940F08050E861E86946
:101CF000012700F0805000905C480168C90513D4AA
:101D00000168834641F480710160FFF7D5FD82468A
:101D100006E000BFFFF7D0FDA0EB0A0064284ED814
:101D2000DBF80000C005F5D5E06801280AD008B14D
:101D3000052813D0286A20F001002862286A20F0C4
:101D4000040002E0286A40F001002862E06841F2E5
:101D5000883B98B1FFF7B0FD82460BE0286A40F05F
:101D600004002862EEE700BFFFF7A6FDA0EB0A0122
:101D700059455AD8286A8007F6D50CE0FFF79CFD34
:101D8000824605E0FFF798FDA0EB0A0159454CD8C3
:101D9000286A8007F6D41FB1E86920F08050E86116
:101DA000E06988B36968C1F38101022944D002283F
:101DB000C6F8608004D0FFF77FFD044638E034E0C9
:101DC000FFF77AFD074604E0FFF776FDC01B022807
:101DD0002BD828688001F7D4206AB0F5803F05D160
:101DE0006868A16820F4003008436860D4E90801FD
:101DF0000843696821F4741108436860C6F860906C
:101E0000FFF75AFD044606E025E000BFFFF754FD4A
:101E1000001B022809D828688001F7D51BE000BF05
:101E2000FFF74AFD001B022802D90320BDE8F88F06
:101E300028688001F4D40EE00128F7D06868226A8F
:101E400000F48031914204D1616A00F4701088423C
:101E500001D00120EAE70020E8E70000001002407E
:101E60000000424280044242FC000020007000401A
:101E700010B5401EB0F1807F01D3012010BD4FF09E
:101E8000E02460610F21601700F053F80020A0618A
:101E900007202061002010BDFEE77047FEE7FEE747
:101EA00070477047FFF70EBD30B58FB028216846E8
:101EB000FEF75CFA14210AA8FEF758FA012108047B
:101EC000CDE900100024029402250491CDE90750C9
:101ED0004FF4E01009906846FFF73AFE08B172B679
:101EE000FEE70F20CDE90A054FF48060CDE90C40F4
:101EF00002210AA80E94FFF76FFD002801D072B6E8
:101F0000FEE70FB030BD7047FEE7490050EAC12040
:101F100018BF04204A0D18BF40F0010040F2FF72C4
:101F2000B2EB515F08BF40F00200012808BF052056
:101F300070470907090E002804DB00F1E02080F853
:101F40000014704700F00F0000F1E02080F8141D2D
:101F50007047000002004FF000004FF0080108D069
:101F6000012A05D1102262F31F4000BF61F30F0068
:101F7000704761F31F400621F8E770B51446826987
:101F8000054690474FF47A706043FFF781FB28467F
:101F9000296ABDE8704008472DE9F0414F1E00EB6B
:101FA000C7010446D1E9000115461E4637F0060276
:101FB0000DD02A46334602F001FA7F1E04EBC70318
:101FC000D3E9002301F014FF37F00602F1D1022F0C
:101FD00025D0042F13D0062F18BFBDE8F0812A4664
:101FE000334602F0EBF9D4E90A2301F001FF2A4657
:101FF000334602F0E3F9D4E9082301F0F9FE2A465A
:10200000334602F0DBF9D4E9062301F0F1FE2A465B
:10201000334602F0D3F9D4E9042301F0E9FE2A465D
:10202000334602F0CBF9D4E9022301F0E1FE2A465F
:10203000334602F0C3F9D4E90023BDE8F04101F0D2
:10204000D7BE012202F01BBD01F0D2BE024A002021
:10205000110702F014BD000001FDFFFF0278002A05
:1020600004D14068826A0A60C06A486070472DE9FE
:10207000F04F8DB083460888ADF804004888ADF86D
:1020800010008888ADF80000C888ADF81400BDF9CC
:102090000400BDF900104FF000084646884207DDF5
:1020A000694601A801F0F9FD05A904A801F0F5FDB4
:1020B000BDF91010BDF91400814207DD49424042CC
:1020C000ADF81010ADF814004FF00108BDF9140080
:1020D000BDF91010BDF90420401ABDF90010891A8D
:1020E000884208DD04A901A801F0D7FD05A96846CA
:1020F00001F0D3FD0126BDF80000BDF90440BDF993
:102100001050011BBDF81400401B42000FFA82FA68
:10211000421A52000FFA82F9C1EB400021E0ADF8FB
:102120001850604208E01EB3ADF81850ADF81A40E0
:1021300004E0ADF818406842ADF81A0006A9584608
:10214000FEF7C6FEBDF90000844216DA641C24B214
:10215000002F02DA07EB0A0003E06D1C2DB207EB3B
:10216000090007B2B8F1000FDDD0002EE1D0D6E7AC
:10217000ADF81840ADF81A50E0E70DB0BDE8F08FAB
:1021800010B50446806AFEF737FA2046BDE81040D5
:1021900000F06DBB70B5054690F8416095F83810B9
:1021A000006801EB4101082202EB810144584CB167
:1021B00069692846884785F8416094F8410018B15C
:1021C000A16A02E0002070BDA16920468847204630
:1021D00070BD38B5816A04464868C9680A0C8BB27C
:1021E0000092020C81B26068056AA8472046BDE8EB
:1021F000384000F0EFBB38B50446007D00281DD004
:102200006089009020682389E288856AA188A847B0
:10221000A088A189084481B2A180E088E2891044A5
:1022200082B2E2806089009020682389856AA8478D
:102230002068016901B0BDE83040084738BD70B57D
:102240000446B0F90E000D46002803DB0AE02046E4
:10225000FFF7D1FFE08869888842F8D870BD204632
:10226000FFF7C9FFE08869888842F8D370BD2DE97F
:10227000F041054617460C461E461846FFF76AFE13
:1022800060603946304600F0E3FBA06021462846F6
:10229000BDE8F041FEF790BA70B5054690F8416090
:1022A00095F83810006801EB4101042202EB81012E
:1022B00044584CB169692846884785F8416094F8CC
:1022C000410018B1A16A02E0002070BDA16920465A
:1022D0008847204670BD2DE9FC410027ADF800700D
:1022E00016460C46C36A05463A4669469847ADF815
:1022F0000470EB6A012201A928469847318820889A
:1023000063880844718882B219448BB22046BDF9B3
:10231000001062F30F0063F31F408A4201DD61F396
:102320000F00BDF904108B4201DD61F31F40BDE8D1
:10233000FC8138B50446C0886288801A80B200905B
:10234000A0892188401C83B2A068056AA847A0899B
:10235000401C80B20090A08821886288401A83B215
:10236000A068056AA847E0886288801A401C80B28D
:102370000090A088A389C01A81B2A068056AA84706
:10238000A0890090A2882188521A521C93B2E28838
:10239000101A82B2A068056AA8472046BDE83840F6
:1023A00000F012BB38B5816A0446C88900906068A5
:1023B0008B89CA88056A8988A8472046BDE83840C5
:1023C00000F008BB3EB50446C06B002823D00020B7
:1023D00084F84100024601A9204600F02EF90022AF
:1023E00002A9204600F031F90021E06800F0B1F9BF
:1023F000A068DDE90112436A984794F84000102371
:1024000000010090A068002211464068056AA847B4
:10241000204600F073FA3EBD10B50446FFF7D2FF28
:10242000A068C1688847E068002807D0017D0029BE
:1024300004D0BDE81040002100F08BB910BD0000B1
:1024400010B504462F4886B0816941F004018161CE
:10245000816901F004010491816941F00401816105
:10246000816901F004010491816941F004018161F5
:10247000816901F004010491816941F004018161E5
:10248000816901F004010491816941F004018161D5
:102490008069694600F004000490002000900190DB
:1024A00002900390A08800900120019003200390E7
:1024B0002068FFF7FFF8A08900906946A068FFF741
:1024C000F9F8A08A009069462069FFF7F3F8A08C1C
:1024D00000906946206AFFF7EDF8A08B00906946EE
:1024E000A069FFF7E7F8A18A00222069FFF7DEF96B
:1024F000C820FFF7CDF8A18A01222069FFF7D6F99D
:1025000006B010BD001002402DE9F0411C461546F2
:10251000884601F0ECFE06460F46404601F0E7FE15
:1025200032463B4600F05CFD0D4A0E4B01F01CFDAF
:1025300000220D4B01F042FF01F0AAFE00B2A542BD
:1025400008DA854204DAA04202DA0120BDE8F0810F
:102550000020FBE78542F8DCA042F9DDF5E700004A
:102560001F85EB51B81E0940008066402DE9F043FD
:10257000914605460020B9F802400246022300BFFA
:1025800031F91260A64202DD4FF0010C01E04FF07C
:10259000000C31F91370A74202DD4FF0010801E091
:1025A0004FF00008C44513D035F913C035F9123087
:1025B000A4EB0608ACEB030C0CFB08FCBE1B9CFB5D
:1025C000F6F61E44B9F800309E4201DD38B1002015
:1025D0001346521CD2B2032AD2D3BDE8F0830120A5
:1025E000F6E738B504460D46806AFDF7F3FF009024
:1025F0002946A06AFEF700F86946A06AFDF7FEFFCB
:10260000204600F034F938BD7CB50E46921C0446D5
:10261000D5B26946FFF722FD009A46F0B001606826
:102620009047102040EA1511009A60689047009A80
:1026300005F00F01606890477CBD0AB1102000E0F2
:102640000020088000204880704783689B6A9B892F
:1026500002B110229A1A0A808068806AC089488074
:10266000704770B515460E460446FFF79BFE2A4696
:102670003146A06ABDE87040FDF7BBBF70B50D469E
:102680000446818B80690022FFF710F9A18C00229B
:10269000206AFFF70BF90026A1890022A068FFF746
:1026A00005F905F08002A1882068FFF7FFF8A189ED
:1026B0000122A068FFF7FAF86806761C050EF6B24C
:1026C000082EE9D3A18C0122206AFFF7EFF8A18B35
:1026D000A069BDE870400122FFF7E8B82DE9F04796
:1026E00090468946044600252FE000BF19F8057082
:1026F000A18B0122A069FFF7D9F8A18C0022206AE2
:10270000FFF7D4F80026A1890022A068FFF7CEF8D1
:1027100007F08002A1882068FFF7C8F8A18901228C
:10272000A068FFF7C3F87806761C070EF6B2082EED
:10273000E9D3A18C0122206AFFF7B8F8A18B01220E
:10274000A069FFF7B3F86D1CADB24545CED3BDE827
:10275000F087F8B50446007D0D46A8420ED060898A
:10276000009020682389E288866AA188B047257591
:102770002068016901B0BDE8F0400847F8BDC068B5
:10278000002801D0FFF7E5BF7047F0B4C16380F8BF
:1027900040200022164610230BE002EB420501EB1D
:1027A0008504E380A38021F825601501521C658013
:1027B000D2B290F840409442EFD8F0BC00F066B836
:1027C00070B50D460446FFF704FDA06A011DFDF734
:1027D00015FF2946A06AFDF70FFF2046BDE87040AF
:1027E00000F045B870B5184614460D46FFF7B2FB29
:1027F00080B201F093FD0022074B01F0DFFD01F0F4
:1028000047FD218800B208442988884201DB012065
:1028100070BD002070BD00000000F83F7CB505468B
:102820000024D5E90001CDE9000119E0BDF8000060
:102830006946401CADF80000BDF80200401CADF830
:102840000200BDF80400401EADF80400BDF806000B
:10285000401EADF80600A868FEF73EFB641CA4B25B
:10286000A889A042E2D8284600F0AEF87CBD10B599
:102870000446816A4068FDF7DFFE2078002804D016
:102880002046BDE8104000F0A5B810BD7CB5044658
:10289000C06B00282ED0012084F841000246694612
:1028A0002046FFF7CAFE012201A92046FFF7CDFE10
:1028B0000021E068FFF74DFFA068DDE90012436AE0
:1028C000984700250BE000BFE06B05EB450100EBEE
:1028D0008101A0684068FDF76FFF6D1CEDB294F8B0
:1028E0004000A842F0D80121E068FFF732FF2046FF
:1028F00000F004F87CBD00F001B8000070B504469B
:10290000007900281FD00021E068FFF722FFA668A9
:102910002068B26901683046904701250AE000BF8F
:10292000206805EB4501F26950F8211030469047C8
:102930006D1CEDB22079A842F2D8E068BDE8704085
:102940000121FFF706BF70BD7CB590F838208A42A0
:102950001FD007D2C268B2F90E30002B09DA5B42F1
:10296000D38106E0C368B3F90E20002A01DD52428C
:10297000DA8180F83810C2685368019352894A435B
:10298000ADF8062090F8391021B1C06801A9FFF711
:1029900056FC7CBDC468207D0028FAD06089009078
:1029A00020682389E288856AA188A8470198606029
:1029B0006089009020682389E288856AA188A847F9
:1029C0002068016988477CBD806801690847806884
:1029D000816808474068016908470000416003704A
:1029E000CBB90E4981600E49C1600E4941610E4963
:1029F00001610E4901620E4981610E4981620E49F1
:102A000041620E49C1610E49C1620E4901630E491E
:102A100041630E498163836811461847FD31000800
:102A20008B310008953C0008533D00087D310008BB
:102A3000793C00087F3C0008453D0008AB310008A8
:102A40004F3C0008353C0008913100088D3C0008DF
:102A500018B1012808D00020704701EB410005495A
:102A600001EB4000C0387047034800EB0110A0F5AF
:102A7000007070470A4B0008444D000830B5054609
:102A8000002060F30F0460F31F4491B02846FDF767
:102A9000B8FD0246002321460BA8FDF79BFE0BAABA
:102AA00029466846FEF75EFD01208DF800005AA118
:102AB00005226846FFF761FA614907226846FFF779
:102AC0005CFA60A104226846FFF757FA64A1042269
:102AD0006846FFF752FA284601F047F84FF47A7437
:102AE0002046FEF7D5FD61A104226846FFF745FAAE
:102AF000284600F0F7FF2046FEF7CAFD5EA104223B
:102B00006846FFF73AFA284600F086FF2046FEF7AF
:102B1000BFFD5DA104226846FFF72FFA284601F0A9
:102B20003DF82046FEF7B4FD5BA104226846FFF79E
:102B300024FA284601F05EF82046FEF7A9FD5AA1C6
:102B400004226846FFF719FA284600F088FF20465D
:102B5000FEF79EFD58A104226846FFF70EFA2846AC
:102B600000F0C0FE2046FEF793FD56A10422684601
:102B7000FFF703FA5AA104226846FFF7FEF960A1A5
:102B800004226846FFF7F9F9284600F08DFF204639
:102B9000FEF77EFD5FA104226846FFF7EEF92846A6
:102BA00000F0B8FE2046FEF773FD5EA104226846E1
:102BB000FFF7E3F962A104226846FFF7DEF968A196
:102BC00004226846FFF7D9F9284600F0CFFD2046D9
:102BD000FEF75EFD66A104226846FFF7CEF928469F
:102BE00000F0E8FC2046FEF753FD64A1042268468D
:102BF000FFF7C3F9284600F0F3FC2046FEF748FD36
:102C000061A104226846FFF7B8F967A1042268466B
:102C1000FFF7B3F911B030BD48656C6C6F212057D8
:102C2000656C636F6D6520434347726170686963CB
:102C30002053696D706C6554657374210000000049
:102C4000E4540008477261706869632054657374C6
:102C5000204F6E204261736520626567696E0000D7
:102C60005465737420506F696E7473005465737487
:102C7000204C696E6573000054657374204369725B
:102C8000636C6573000000005465737420526563C3
:102C900074616E676C6500005465737420547269CA
:102CA000616E676C650000005465737420456C6C40
:102CB000697073650000000054657374204172638D
:102CC0000000000047726170686963205465737486
:102CD000204F6E204261736520656E640000000025
:102CE000477261706869632054657374204F6E2069
:102CF00077696467657420626567696E000000002B
:102D00005465737420496D61676520447261776909
:102D10006E670000546573742041736369692044D1
:102D200072617700477261706869632054657374DB
:102D3000204F6E2077696467657420656E640000BB
:102D4000477261706869632054657374204F6E2008
:102D5000636F6D706F6E656E7420626567696E007B
:102D60005465737420546578744564697400000078
:102D700054657374204672616D6500005465737408
:102D8000204D656E750000004772617068696320B0
:102D900054657374204F6E20636F6D706F6E656E37
:102DA0007420656E6400000046696E697368205483
:102DB000657374696E672C20656E6A6F79210000F7
:102DC0002DE9F84F04460D4621F00040009173496B
:102DD000814211DC7249884201DC06D12CB12046C7
:102DE0002946BDE8F84FFFF72CB96E48002DCCBF3F
:102DF0006D496E49BDE8F88F6D49814211DD6D491D
:102E00008142D8BF4FF0FF366DDD20462946FFF7DF
:102E10007CF8042808BFFFF719F920462946BDE8C9
:102E2000F88F6549654F25F00045814233DD6449DF
:102E3000814219DD002632464FF080432046294664
:102E400000F0D6FF80468A4601222046294601F03E
:102E500016FE00223B4601F0BBFB4246534601F002
:102E600083F804460D463EE001260022BA463B4662
:102E70002046294600F0BCFF80460F4600225346FC
:102E80002046294601F0A4FB42463B4601F06CF87F
:102E900004460D4627E04B4981421BDDDFF828A19F
:102EA0000226002253462046294601F087FA0022D6
:102EB0003B4600F09DFF80460F46002253462046C9
:102EC000294601F085FB42463B4601F04DF8044699
:102ED0000D4608E0032622462B4600203B4901F020
:102EE00043F804460D4622462B461046194601F08B
:102EF00065FA8B46824602460B4601F05FFA0746AA
:102F00000246334888460B4606217844FFF744F8CA
:102F100052465B4601F052FA82462E488B463A46AC
:102F2000434605217844FFF737F83A46434601F017
:102F300045FA02460B46002E504659460CDA00F080
:102F400057FF22462B4601F039FA01B022462B46A4
:102F5000BDE8F04F01F030BB00F04AFF22462B469F
:102F600001F02CFA1C4A7A4402EBC603D3E9002391
:102F700001F02EFB22462B4601F02AFB174A7A4429
:102F800002EBC603D3E9002301F016FB009A002AE6
:102F9000B8BF81F00041BDE8F88F00000000104488
:102FA0000000F07F182D4454FB21F93FFB21F9BFAD
:102FB0000000DC3F0000203E0000F33F0000F03F37
:102FC0000000E63F008003400000F83F0000F0BF33
:102FD0006A25000028250000C62400008E24000079
:102FE0002DE9F04D9446CCF1000423F000464CEA64
:102FF0000404594F46EAD4749A46884621F00042A8
:10300000BC4206D8454240EA050442EAD474BC42B8
:1030100004D9BDE8F04D6246FFF716B8AAF1405555
:10302000A5F17F6555EA0C040BD0022404EAAA74CA
:103030004A4DDFF82CE144EAD87452EA000B04D080
:103040000CE0BDE8F04DFFF7BBBE002C14BF012C17
:10305000BDE8F08D022C30D0032C32D056EA0C0B98
:103060000AD0BE4220D1BA4209D126F0804622F0D1
:1030700080423346114617E000291ADB25E0DFF8CD
:10308000E4B0FB44002C04BFDBE90001BDE8F08D97
:10309000012C02BFDBE9000181F00041BDE8F08DA9
:1030A000022C0AD0032C0CD0BA4212D1B8F1000F76
:1030B0000BDA2A482C49BDE8F08D28462B49BDE89B
:1030C000F08D28467146BDE8F08D24482849BDE8BA
:1030D000F08D921B12153C2AC4BF204F244E10DCE9
:1030E000BAF1000FBEBF12F13C0F00273E4608DBCD
:1030F000624600F039FF21F00041FFF761FE07460C
:103100000E4694B1012C08BF86F000460DD0194A36
:10311000194B022C3846314615D001F059FA2A468F
:10312000BDE8F04D114B01F053BA0022134638466A
:10313000314601F071F804BF0220FDF787F93846E7
:103140003146BDE8F08D01F043FA2A46BDE8F04D66
:10315000064B01F031BA00000000F07F182D4454F6
:10316000FB2109C022240000FB21F9BFFB210940FB
:10317000FB21F93F075C143326A6A13C38B5406813
:10318000049C009400F07AF838BD406800F0ACB8B8
:103190004068AFF300801CB504466946FEF75EFF49
:1031A000009A6068AE2190471CBD7CB5DDE90645FC
:1031B0004068CDE9004500F09FF87CBD10B503469E
:1031C000B0F90000002206E033F91240844200DD2D
:1031D0002046521C12B28A42F6DB10BD10B50346DF
:1031E000B0F90000002206E033F91240844200DA10
:1031F0002046521C12B28A42F6DB10BD0A784068A3
:10320000002A02D1496800F08FB97047FEF762FBCF
:10321000FEF74AFEFEF741FE00F061FD00F055FDAD
:10322000FEE7884200D808467047884200D3084627
:1032300070470000F0B4DDE90445D5E90065C0E958
:103240000865D4E90054C0E90654D3E90043C0E955
:103250000443D2E90032C0E90232D1E90021C0E9D9
:103260000021034981620349C162F0BCFFF7E8B85D
:103270007D260008DD26000840207047F0B5802933
:10328000059C2DD8402A2BD8C818802802D9C1F116
:10329000800083B21019402802D9C2F1400084B2E4
:1032A0000125CE18D0B2DFF83CE0171916E000F087
:1032B000070305FA03F4C30803EBC303CAB20EEB1A
:1032C000031307E013F802C02CEA040C03F802C051
:1032D000521CD2B29642F5D8401CC0B28742E6D802
:1032E000F0BD0000A00100204FF490610148FDF7FF
:1032F0001BB80000A00100202DE9FC4F1E460B9CCE
:1033000015460F4680294CD8402D4AD80094FFF727
:10331000B5FF641EE117002004EB51710122DFF8B4
:1033200088B005F0070902EBE10338E0002132E044
:103330007A18902A31D800EBD50ABAF1070F30D8A5
:103340000AEBCA0C0BEB0C1EDDF830801EF802C035
:1033500000FB06F488440194CDF8008014F808407E
:1033600004FA09F44CEA040C0AF101040EF802C054
:10337000072C0ED80EEB0208DDE9002C98F89040DF
:103380001CF80220C9F1080C22FA0CF2144388F848
:103390009040491C89B2B142CAD3401C80B28342DA
:1033A000C4DCBDE8FC8F0000A001002010B5094B73
:1033B000002101EBC102002003EB0212145CE44384
:1033C0001454401CC0B29028F8D3491CC9B2082933
:1033D000EFD310BDA0010020F0B58029059C2DD8A9
:1033E000402A2BD8C818802802D9C1F1800083B2A6
:1033F0001019402802D9C2F1400084B20125CE182C
:10340000D0B2DFF83CE0171916E000F0070305FA28
:1034100003F4C30803EBC303CAB20EEB031307E0C4
:1034200013F802C08CEA040C03F802C0521CD2B29A
:103430009642F5D8401CC0B28742E6D8F0BD0000E5
:10344000A001002010B580290ED8402A0CD8D00841
:1034500000EBC003054802F0070400EB0310012253
:10346000435CA2401343435410BD0000A001002060
:103470007CB505466946FEF7F1FD0A4E00240022A0
:1034800021462846FFF7C0F804EBC40006EB001104
:10349000019B686880229847641CE4B2082CEED334
:1034A0007CBD0000A00100202DE9FC4798460A9F42
:1034B00015460E468246802932D8402D30D806EB7C
:1034C0000800802803D9C6F180001FFA80F8E819A7
:1034D000402802D9C5F1400087B269465046FEF740
:1034E000BDFDE819401EC11700EB5170C5F3C704BC
:1034F0000121DFF8309001EBE0050FE0F2B2214648
:103500005046FFF781F804EBC40109EB0110811963
:10351000019B424650469847641CE4B2A542EDDC4C
:10352000BDE8FC87A00100202DE9F041064641607E
:1035300000200B4F0D4630700446AA6A395D2846BC
:103540009047641CE4B2172CF7D34FF49061054800
:10355000FCF7EAFE3046BDE8F041FFF789BF000006
:1035600034530008A00100201CB50E490446A1F107
:103570000800CDE90001A0F10803A0F110022039F4
:103580000948FFF757FE0749002010310023087053
:103590000548486002B020460A46BDE81040083998
:1035A000FFF71CBAD800002050060020002070470A
:1035B0008020704700B589B00221009105230146A3
:1035C0001A4601A8FDF714F9079901A888474FF496
:1035D0007A70FEF75DF8069901A8884709B000BD2A
:1035E00070B50546002060F30F0460F31F4492B0ED
:1035F0002846FDF706F80246012321460DA8FDF7EF
:10360000E9F80DAA294602A8FDF7ACFF554D0124A3
:10361000CDE9005402AB0422534905F11800FDF72F
:10362000CFFF5149CDE9005402AB0222603105F1D0
:103630005C00FDF7C5FF05F118042046A169884725
:103640004FF47A752846FEF723F8E26901212046F7
:1036500090476E103046FEF71BF8226A0021204684
:1036600090473046FEF714F8226A01212046904721
:103670003046FEF70DF8226A00212046904730467A
:10368000FEF706F8226A0121204690473046FDF7F2
:10369000FFFFE2690221204690473046FDF7F8FF20
:1036A000E2690321204690473046FDF7F1FFE269C9
:1036B0000121204690473046FDF7EAFF2A490422BF
:1036C000636A3031204698473046FDF7E1FFE269F2
:1036D0000221204690473046FDF7DAFFE2690321D8
:1036E000204690473046FDF7D3FFE16A20468847E1
:1036F0003046FDF7CDFFA16A204688473046FDF7EA
:10370000C7FFE2690021204690473046FDF7C0FF21
:10371000E2690021204690472846FDF7B9FF216B5A
:103720002046884704462846FDF7B2FF0E4902228C
:10373000636A7831204698472846FDF7A9FFE26979
:103740000121204690472846FDF7A2FFE2690021AB
:10375000204690472846FDF79BFF616B204688472F
:1037600012B070BD000100200000002030B50546F9
:10377000002060F30F0460F31F44A1B02846FCF75B
:1037800040FF0246002321461BA8FDF723F81BAA91
:1037900029466846FDF7E6FE01208DF80000069AEE
:1037A0001DA16846904740F6B8342046FDF770FFEB
:1037B000059A26A1684690472046FDF769FF079ABB
:1037C00027A1684690472046FDF762FF08996846A2
:1037D000884714232CA240210BA8FCF71BFD069A56
:1037E0000BA9684690472046FDF752FF079A2FA184
:1037F000684690472046FDF74BFF08996846884782
:10380000069A2FA1684690472046FDF741FF03998D
:103810006846884721B030BD436861726C69653A7B
:103820002048656C6C6F2C20576F726C6421546853
:10383000697320697320436861726C69652773201E
:10384000537065656B696E67210000002E2E2E4D4A
:10385000617920492048656C7020796F753F0000C0
:103860004A61636B3A2059657321506C65617365D9
:10387000204F66666572206D652061206C656D6FF6
:103880006E206A75696365004A61636B3A2049730B
:1038900020746865206C656D6F6E206A756963655C
:1038A00020256420646F6C6C61723F004368617214
:1038B0006C69653A205965732C206974206973001E
:1038C0005468617427732074686520656E64206F86
:1038D000662074686520636F6E76657273617469C3
:1038E0006F6E21001FB50446402060F30F012020B9
:1038F00060F31F412820024600906FF0130301A8D7
:10390000FDF756FE01A92046FCF79CFF21692046E1
:1039100088471FBD30B589B004460020ADF80000CF
:10392000ADF8020024A52046FCF76BFEC0F34E0163
:1039300061F30F000246002301A80099FCF74AFF3B
:10394000294601A8FCF758FE002201A92046FCF7F1
:10395000C7FE0090694601A8FCF750FE2169204689
:1039600088474FF47A752846FDF792FE1DA101A8FD
:10397000FCF742FE012201A92046FCF7B1FE0090AF
:10398000694601A8FCF73AFE216920468847284687
:10399000FDF77EFE17A101A8FCF72EFE694601A8DF
:1039A000FCF72CFE01A92046FCF746FE21692046C3
:1039B000884709B030BD000048656C6C6F2C2057FB
:1039C0006F726C6421546869732069732043686165
:1039D000726C6965277320537065656B696E67212A
:1039E000000000004D617920492048656C70205925
:1039F0006F753F0059657321506C65617365204F89
:103A000066666572206D652061206C656D6F6E2045
:103A10006A756963650000007CB50546402060F367
:103A20000F04202666F31F440A2221466846FDF74C
:103A300019FE69462846FDF783FA0A20214660F3FD
:103A40000F0166F31F4105226846FDF70BFE69462C
:103A50002846FDF702F82969284688477CBD7CB5D1
:103A60000546142060F30F04202666F31F441E232E
:103A70000A2221466846FDF7F8FD69462846FDF70B
:103A800091F85020214660F30F0166F31F411E2379
:103A900028226846FDF7E9FD69462846FDF74EFBFA
:103AA0002969284688477CBD3EB50446102060F34E
:103AB0001F4260F30F024023A3EB500060F30F019D
:103AC000182060F31F41064B6846FCF78DFE6946DF
:103AD0002046FCF771FE2169204688473EBD000064
:103AE0004B5300082DE9FC47052666F30F04002719
:103AF00066F30F054FF03F09804667F31F4469F3F3
:103B00001F452A4621466846FDF7B3FD69464046F3
:103B1000FDF79CF9782060F30F0567F30F0466F357
:103B20001F4466F31F452A4621466846FDF7A1FD5E
:103B300069464046FDF78AF967F30F040A202146DB
:103B400060F31F41692060F30F052A4669F31F42A5
:103B50006846FDF78EFD69464046FDF777F9D8F8CF
:103B6000101040468847BDE8FC8738B5054600225E
:103B700011466846FDF780FD0024ADF80040600066
:103B8000ADF8020069462846FDF7A2F9641CE4B2CC
:103B9000142CF2D329692846884738BD7CB50546E0
:103BA000052060F30F0160F31F41142060F30F0440
:103BB00060F31F440E4622466846FDF760FD6946E5
:103BC0002846FDF789F91520314660F30F0160F3AF
:103BD0001F41322060F30F04224660F31F42684603
:103BE000FDF74DFD69462846FDF756FC2969284634
:103BF00088477CBD3EB504460A2060F30F0160F3A0
:103C00001F410F2060F30F03052060F31F43502076
:103C100060F30F02282060F31F426846FDF732FD73
:103C200069462046FDF753FC2169204688473EBD82
:103C3000FFF79ABC4068AFF300801CB504466946A4
:103C4000FEF70CFA009A6068AF2190471CBD10B5D2
:103C5000406862B1012A06D0022A03D10C46FFF760
:103C6000A5FC207010BD0C46FFF706FB02E00C46D9
:103C7000FFF79EFC208010BD4068FFF797BB38B56A
:103C80004068049C0094FFF7A7FB38BD4068AFF381
:103C9000008070474068FFF7D5BBB0F90020B1F94C
:103CA00000309A4207D05A4002800B8853400B8064
:103CB000018859400180704710B50446FFF714FB96
:103CC0002046BDE81040FFF7D3BB00B58FB0684673
:103CD000FFF7AEFF6846FEF7D1FE0FB000BD1CB582
:103CE000684600F039F802220121684600F014F815
:103CF0004FF47A742046FDF7CBFC6846FFF7DCFFF3
:103D000001220221684600F007F82046FDF7C0FCBA
:103D10006846FFF7D1FF1CBD2DE9F04115460E4660
:103D20000746002405FB04F206FB04F13846FFF7C2
:103D300089FB641CE4B2142CF4D33846BDE8F0418E
:103D4000FFF796BB38B54068049C0094FFF7ACFBC6
:103D500038BD4068FFF78CBB1CB50A490446A1F189
:103D60000800CDE90001A0F10803A0F110022039FC
:103D70000548FFF75FFA2046BDE81C400249FFF7FF
:103D8000D3BB0000B00000202006002021F000423C
:103D9000A2F16052B2F5801F01F0004328BFD2F1BA
:103DA0007F6C0BD95FEA001C43EAC20242EB507001
:103DB00018BF704728BF20F001007047B2F5801F80
:103DC000BCBF184670474FEA410C1CF5001F02D2D9
:103DD000084600F0A7BD70B500F09AFB000000890E
:103DE000FFF7F6BF4FF00040A0F5800070470000DD
:103DF00010B591EA030F48BF83F0004300F1F08350
:103E0000841A71EB030C05D2121943EB0C03001B4F
:103E100061EB0C01DFF824E14FEA1154A4EB135CD1
:103E20001EEA430F18BF9EEA445F73D023EA0E03D5
:103E3000DCF1200E21EA045143F4801332D322FA3C
:103E40000CFE10EB0E0023FA0CFE41EB0E01CCF140
:103E5000200E03FA0EFE10EB0E0051F10001B1F539
:103E6000801FCCF1200E32D201EB045112FA0EF277
:103E7000BDE8104058BF7047401C38BF5FEA42029F
:103E800018BF7047002814BF20F0010041F1000165
:103E90004FEA410313F5001F38BF7047A1F1C0413D
:103EA00000F084BB012A43EB0302ACF1200CDCF1EF
:103EB0001F0E32BF4FF0000E23FA0CF310EB03007D
:103EC00041EB0451B4EB115FD0D0A1EB045101F5EB
:103ED000801149085FEA300001EB04510ED350F124
:103EE000000038BF12FA0EFE08D1BDE81040C9E745
:103EF000401C38BF5FEA4202CAD1C3E7BDE81040A8
:103F00004FEA410313F5001F38BF7047A1F1C041CC
:103F100000F04CBB9EEA445F08D011EA5E0FBDE89A
:103F2000104004BF01F0004100207047BDE8104080
:103F300070B500F0EDFA00BF64FBBE3E0000E0FF8C
:103F400002494FF0000000F068BD00BF0000F87F9C
:103F5000491058BFC1F140415B1058BFC3F1404305
:103F60008B42EFF3008070472DE9C04130B4DFF899
:103F7000A0C23CEA111418BF3CEA131400F0EC8014
:103F800081EA03051CEA111444EAD57418BF1CEA3F
:103F9000131500F0C780A4EB05044FF0004545EA77
:103FA000C12145EAC32341EA505143EA525304F187
:103FB0007F74994204F500344FEAC0204FEAC222D0
:103FC00008BF904200F09C804FEA13650FF2401644
:103FD000765D4FEA134506FB05F7C7F1807706FBD0
:103FE00007F74FEAD737A7FB03687642C8F5803852
:103FF000A7FB06CE38BFA8F1010807FB08E64FF083
:10400000000EA6FB028CE6FB03CEDCF1000CCEF129
:10401000004E38BFAEF1010EA6FB0C584FF0000762
:104020004FF00005E6FB0E87A1FB08C6A0FB07CEFC
:1040300016EB0E0645F10005E1FB076515F1E04EB4
:104040007EBFA4F580345FEA46066D4116F1800715
:1040500045F100054FEA17274FEA066647EA05676C
:10406000A6F1DE46B6F1805F4FEA15251FD9384626
:1040700024F0010C05EBC471BCF1FE6F01EB0C11D7
:1040800002D8F0BCBDE8008124425CBF01F5801E6F
:104090009EEAC47F02D4F0BCBDE80081244238D43B
:1040A000F0BCA1F1C041BDE8004100F07FBA4FEA89
:1040B000D22242EA43524FEAD323A7FB02864FEAB9
:1040C000D02040EA415007FB03661EEA0E0F4FEA7C
:1040D000D12105FB026658BFA6EB0056B6EB005691
:1040E0004FEA520E4EEAC37E18EB0E0E56EB530EFD
:1040F000BDD518EB02085E417F1C55F10005B6E7FF
:104100004FF480154FF000074FF000064FF0000805
:10411000ADE7F0BC4FF0000001F1C04101F00041FB
:10412000BDE8008111EA0C1F0CEA131500D00CE069
:1041300013EA0C1F00F025804FF00000F0BC81EA6C
:10414000030101F00041BDE80081F0BCBDE8004181
:1041500081EA030100F02ABAF0BCBDE8004170B565
:1041600000F0D6F9097EFC3E00F007B881EA0301B1
:104170004FF0000001F00041704781EA030100F0B8
:1041800015BAF0BCBDE800414FF00000214970476E
:10419000FFFDFBF9F7F5F4F2F0EEEDEBE9E8E6E40C
:1041A000E3E1E0DEDDDBDAD8D7D5D4D3D1D0CFCD93
:1041B000CCCBCAC8C7C6C5C4C2C1C0BFBEBDBCBBCC
:1041C000BAB9B8B7B6B5B4B3B2B1B0AFAEADACABC7
:1041D000AAA9A8A8A7A6A5A4A3A3A2A1A09F9F9EA1
:1041E0009D9C9C9B9A999998979796959594939353
:1041F000929191908F8F8E8E8D8C8C8B8B8A8989EA
:10420000888887878685858484838382828181806C
:104210000000FF070000F87F51EA030C17D41CF5DB
:10422000801F58BFBCF5801F00F10680994218BF5F
:10423000704708BF9042704707D711F5801F58BFDD
:1042400013F5801F19D499427047894270471CF5B5
:10425000801F08D5BCF5801FF7D58B4218BF70476B
:1042600008BF824270474FF4001C1CEB410F38BF5F
:104270001CEB430F01D28B42704770B500F048F938
:10428000922449004FF000514FF08053FFF760BE79
:104290004FEA41034FEA5353A3F58063D3F11E0362
:1042A000C8BFD3F1210C0CDD4FF0004242EAC1221D
:1042B00042EA505232FA03FC8CEAE17CACEBE1704A
:1042C0007047102BC4BF0020704703F5787CBCF109
:1042D000FF3F04D06FF0004282EA2100704770B5C2
:1042E00000F016F94992248000207047F2E710F0A0
:1042F000004248BF4042B0FA80F310FA03F10AD0FE
:10430000C3F11D0303F580634FEA415002EB0352F2
:1043100002EBD12170474FF000007047B0FA80F3F4
:1043200010FA03F10AD0C3F11D0303F580634FEACD
:1043300041504FEA035202EBD12170474FF0000089
:104340007047000051EA030C17D41CF5801F58BFBA
:10435000BCF5801F00F10680994218BF704708BF66
:104360009042704707D711F5801F58BF13F5801F83
:1043700019D499427047894270471CF5801F08D5AF
:10438000BCF5801FF7D58B4218BF704708BF82422B
:1043900070474FF4001C1CEB410F38BF1CEB430F60
:1043A00001D28B42704770B500F0B2F892244900F8
:1043B0004FF000514FF08053FFF7CABDDFF848C1FE
:1043C00070B51CEA111E1EBF1CEA13159EEA0C0FE5
:1043D00095EA0C0F00F06F8081EA030423EA4C1386
:1043E0004EEAD47E21EA4C1141F4801143F480134B
:1043F000AE44A1FB024CA0FB0365AEF17F7E3619F3
:1044000055EB0C05A1FB034C4CF10003A0FB021C77
:1044100016EB0C06654153F10003094218BF46F044
:10442000010613F4007F0BD14FEA03314FEA053048
:10443000340341EA155140EA16506FF003020AE0D6
:104440004FEAC3214FEAC520F40241EA555140EA40
:1044500056506FF0020202EB2E4201EB025585EA44
:10446000CE710AD05FEA440C18BF24F0004450F12A
:10447000000041F1000120EAD47040F2FE7C624568
:1044800000D270BDA84214BF4FF080444FF04044AA
:10449000002E08BF0024BEF1806FA8BFA1F1C0416B
:1044A000BDE8704080F282804FF0000001F1C04111
:1044B00001F0004170479EEA0C0F0CEA131518BF7B
:1044C00095EA0C0F06D04FF0000081EA030E0EF0C3
:1044D000004170BD00F01CF88900013E00F007B8F3
:1044E00000F009B84FEA430C5FEA5C5C08D081EA4F
:1044F000030100F05BB84FEA410C5FEA5C5CF6D167
:104500004FF00000014970470000FF070000F87FEE
:104510000EF1020E2EF0030E5EF8046B364205D447
:10452000012A43EB030515F5001F12D8012841EBC2
:10453000010C1CF5001F0CD80ED14FEAD17C15F5EB
:10454000001F0CEB4C0C0CF1020C08BF4CEBD37CA5
:1045500004E04FF0080C01E04FEAD37C0CEB4C0573
:1045600026FA05F606F00706B6F1040C06D20EEBA5
:10457000860CBDE870404CF0010C6047DFE80CF0A1
:10458000090B02024FF000414FF00000A1F500219D
:1045900070BD19461046012851EB010418BFD4F52F
:1045A000001484BF002001F0004170BD0808A0F590
:1045B00000114FEA3101704791EA030F10B581F005
:1045C00000413FF51DAC83F0004300F009B8000046
:1045D00010B591EA030F48BF83F000433FF510ACDC
:1045E000841A71EB030C07D212198CF0004C43EBC8
:1045F0000C03001B61EB0C01DFF8A4E14FEA11543E
:10460000A4EB135C1EEA430F18BF9EEA445F00F060
:10461000B08023EA6E03524221EA0451C3EB6E03D9
:1046200038BF5B1EDCF1200E25D322FA0CFE10EB06
:104630000E0043FA0CFE41EB0E01CCF1200E03FA02
:104640000EFE10EB0E0051F10001CCF1200E29D42A
:1046500012FA0EF201EB0451BDE8104058BF70474A
:10466000401C1CBFB2F1004F704700280CBF491C12
:1046700020F00100704712EB020E43EB030218BF5B
:104680004FF0010E4EEA4202ACF1200CDCF11E0E9E
:1046900054D943FA0CFE10EB0E0051F1FF31CCF16E
:1046A0001E0ED5D50EF1010E12FA0EFE404141EB61
:1046B000010101EB445C5FEA5C5C10D910EBDE7039
:1046C00001EB045138BFBEF1004FBDE8104018BFE8
:1046D000704700280CBF491C20F00100704730D201
:1046E0004FEAD42C11F5001124F400641BD0B1FA68
:1046F00081F20B3AA41AA41ED2F12003914030FAA1
:1047000003F31943904001EBCC71002C01EB0451F1
:10471000BDE81040A8BF704701F1C0414FF0000054
:1047200001F000417047B0FA80F310FA03F100D1B4
:1047300010BDE41A173C4805C90AE4E701EB04512F
:1047400010BD491001EB0451BDE810404FEA3000A4
:1047500002E04FF0000170474A0008BF0042F8D065
:10476000B2F5001F28BF704701F000414FF0000074
:1047700070479EEA445F07D011EA5E0FBDE8104023
:1047800004BF002100207047BDE8104070B5FFF75E
:10479000BFFE00BF40DFF63E83F000411046704789
:1047A0000000E0FF90EA010F48BF81F0004100F1F6
:1047B000C680421A3CBF801A89184FEAD0524FF087
:1047C0007F4C1CEA410FA2EBD15318BF9CEA026F49
:1047D00000F03B804FF0004C4CEA00204CEA0121F5
:1047E00021FA03FC10EB0C0C1ED202F1FF325FEA3F
:1047F0001C2040EBC25038BF70471CF07F0F4FEABF
:10480000400C18BFBCF17F4F38BF7047C3F1200385
:10481000994008BF20F00100BCF17F4F38BF7047BE
:10482000A0F1C04000F07EB84FEA3C00000A40EB27
:10483000C25028BF1CF0FF0F4FEA400CE6D018BF53
:10484000BCF17F4F38BF7047EAE79CEA026F05D0A2
:1048500010EA5C0F08BF00F00040704710B500F090
:104860001BF800BF64FBBE3E10F0004148BF404251
:10487000B0FA80F310FA03F2C3F19D030BD051EAB2
:10488000C35101EB1220530638BF704700F10100FD
:1048900008BF20F0010070470EF1020E2EF0030E4B
:1048A0005EF8044B244204D44FEA4102B2F17F4F38
:1048B00011D84FEA4003B3F17F4F0CD80ED14FEA25
:1048C000D07CB2F17F4F0CEB4C0C0CF1020C08BF0A
:1048D0004CEBD17C04E04FF0080C01E04FEAD17CB6
:1048E0000CEB4C0324FA03F404F00704B4F1040CB9
:1048F00006D20EEB840CBDE810404CF0010C604772
:10490000DFE80CF0070802024FF00040A0F580003D
:1049100010BD0846420018BFD2F1807288BF00F077
:10492000004010BDFF2141EAD050C0057047000093
:1049300090EA010F48BF81F000413FF53AAF421ABB
:1049400004D882F00042A0EB020011444FEAD0529A
:104950004FF07F4C1CEA410FA2EBD15318BF9CEAE9
:10496000026F4AD04FF0004C4CEA00204CEA012183
:1049700021FA03FCB0EB0C0C0FD412F0FE0F36D072
:104980005FEA4C001DD5001240EBC25038BF7047A3
:104990001CF03F0F18BF70470BE0A2F101025FEA65
:1049A0001C2040EBC25038BF70471CF07F0F18BF6F
:1049B0007047C3F12003994014BF401E20F001004E
:1049C000704780084FEA122308BF7047B0FA80FC96
:1049D000A2EB0C02CCF1280C60FA0CF093EA122F37
:1049E00004BF00EBC25070474FEAC3707047130A10
:1049F0005FEADC1008BF7047F6E79CEA026F04D05C
:104A000010EA5C0F08BF0020704710B5FFF744FFA5
:104A100040DFF63E81F0004070470CF00F03092B99
:104A200008BF082000F059800A2B0BD0082B18BFB4
:104A3000704708BF1CF0400F0AD04FF000004FF045
:104A4000000170471CF0400F18BF4FF00040704746
:104A50001CF0100F08D020F0704300F07F4242EAB3
:104A6000D3014FEA4370704700F0604021F07F426D
:104A700042EA000201F07F4040EA727070474FF056
:104A8000FF0C4CF4E06C1CEA11531CBF9CEA030CB5
:104A90009445C2BFDA4201EB02517047002B0DD0A2
:104AA000BCF1000F0FD0002A01F00041A4BF41F07B
:104AB000E04141F07F614FF00000704701F000419C
:104AC0004FF00000704750EA01334FF09B0C18BFC5
:104AD0004CF0806C7FF434AA70471CF4801F11D016
:104AE0001CF4E02F03D06FEACC31490070474FF03F
:104AF0004050EFF3008222F0704242EA000282F35B
:104B0000008870474FF00000704700000000000070
:104B10000000002F000000000700070000147F14B1
:104B20007F1400242A7F2A120023130864620036AF
:104B30004955225000000007000000001C224100DF
:104B4000000041221C000014083E08140008083E22
:104B50000808000000A0600000080808080800001D
:104B600060600000002010080402003E5149453EEC
:104B70000000427F4000004261514946002141450A
:104B80004B31001814127F10002745454539003C71
:104B90004A4949300001710905030036494949363F
:104BA00000064949291E000036360000000056362E
:104BB0000000000814224100001414141414000012
:104BC00041221408000201510906003E4955592EA0
:104BD000007C1211127C007F49494936003E414158
:104BE0004122007F4141221C007F49494941007F09
:104BF00009090901003E4149497A007F0808087FF8
:104C00000000417F4100002040413F01007F081427
:104C10002241007F40404040007F020C027F007F25
:104C20000408107F003E4141413E007F090909060A
:104C3000003E4151215E007F09192946004649493D
:104C400049310001017F0101003F4040403F001F0A
:104C50002040201F003F4038403F00631408146389
:104C600000070870080700615149454300007F4173
:104C70004100000204081020000041417F000004B0
:104C800002010204004040404040000001020400D4
:104C9000002054545478007F484444380038444439
:104CA000442000384444487F0038545454180008C5
:104CB0007E0901020018A4A4A47C007F08040478E3
:104CC0000000447D4000004080847D00007F10286B
:104CD00044000000417F4000007C04180478007C00
:104CE0000804047800384444443800FC2424241880
:104CF0000018242418FC007C0804040800485454BC
:104D0000542000043F444020003C4040207C001CD4
:104D10002040201C003C4030403C004428102844E7
:104D2000001CA0A0A07C004464544C440000087FF8
:104D300041000000007F00000000417F08000008E3
:104D4000040810080000000000000000000000003F
:104D500000000000000000F8000000000000003328
:104D60003000000000160E00160E000000000000CB
:104D70000000000040C07840C0784000043F0404B8
:104D80003F040400007088FC08300000001820FF79
:104D9000211E0000F008F000E018000000211C03B4
:104DA0001E211E0000F00888700000001E21232430
:104DB00019272110000000160E000000000000005E
:104DC00000000000000000E01804020000000007DE
:104DD0001820400000020418E000000000402018E5
:104DE00007000000404080F0804040000202010FB8
:104DF00001020200000000F0000000000101011F9C
:104E000001010100000000000000000000B070007F
:104E1000000000000000000000000000000101018F
:104E2000010101010000000000000000003030001E
:104E300000000000000000008060180400601806F8
:104E40000100000000E010080810E000000F102032
:104E500020100F00001010F8000000000020203F7C
:104E60002020000000700808088870000030282406
:104E700022213000003008888848300000182020A7
:104E800020110E000000C02010F8000000070424CC
:104E9000243F240000F80888880808000019212011
:104EA00020110E0000E0108888180000000F11206B
:104EB00020110E0000380808C83808000000003F24
:104EC000000000000070880808887000001C222183
:104ED00021221C0000E010080810E0000000312230
:104EE00022110F00000000C0C000000000000030D0
:104EF00030000000000000C0C0000000000080B0D2
:104F00007000000000008040201008000001020432
:104F10000810200040404040404040000404040489
:104F20000404040000081020408000000020100845
:104F300004020100007048080808F000000000307A
:104F400036010000C030C828E810E0000718272408
:104F500023140B000000C038E0000000203C2302B6
:104F60000227382008F8888888700000203F202019
:104F700020110E00C030080808083800071820204B
:104F80002010080008F808080810E000203F202042
:104F900020100F0008F88888E8081000203F202023
:104FA0002320180008F88888E8081000203F200017
:104FB00003000000C030080808380000071820204F
:104FC000221E020008F808000008F808203F21010E
:104FD00001213F20000808F8080800000020203FB9
:104FE0002020000000000808F8080800C080808029
:104FF0007F00000008F888C028180800203F200122
:105000002638200008F8080000000000203F20207B
:105010002020300008F8F800F8F80800203F003F92
:10502000003F200008F830C00008F808203F2000AA
:1050300007183F00E01008080810E0000F102020BB
:1050400020100F0008F808080808F000203F210190
:1050500001010000E01008080810E0000F182424E7
:1050600038504F0008F8888888887000203F20005A
:10507000030C302000708808080838000038202110
:1050800021221C00180808F8080818000000203F1A
:105090002000000008F808000008F808001F202081
:1050A00020201F000878880000C838080000073852
:1050B0000E010000F80800F80008F800033C0700A3
:1050C000073C0300081868808068180820302C030B
:1050D000032C30200838C800C83808000000203FE2
:1050E0002000000010080808C838080020382621D1
:1050F00020201800000000FE020202000000007FD5
:1051000040404000000C30C00000000000000001E2
:105110000638C00000020202FE00000000404040CD
:105120007F0000000020100804081020000000008C
:10513000000000000000000000000000808080806F
:105140008080808000020408000000000000000051
:1051500000000000000080808080000000192422F0
:1051600022223F2008F8008080000000003F11202C
:1051700020110E000000008080800000000E112031
:1051800020201100000000808088F800000E11200F
:1051900020103F200000808080800000001F22221D
:1051A00022221300008080F0888888180020203F89
:1051B000202000000000808080808000006B94949C
:1051C0009493600008F8008080800000203F210058
:1051D00000203F2000809898000000000020203F21
:1051E00020200000000000809898000000C080800F
:1051F000807F000008F8000080808000203F2402AB
:105200002D302000000808F8000000000020203F9A
:10521000202000008080808080808000203F20004F
:105220003F20003F008080008080000000203F2160
:1052300000203F200000808080800000001F202090
:1052400020201F00808000808000000080FFA120BF
:1052500020110E000000008080808000000E1120D0
:1052600020A0FF80808080008080800020203F215F
:105270002000010000008080808080000033242412
:1052800024241900008080E0808000000000001FBE
:10529000202000008080000000808000001F20206F
:1052A00020103F20808080000080808000010E3030
:1052B0000806010080800080008080800F300C0391
:1052C0000C300F0000808000808080000020312E94
:1052D0000E312000808080000080808080818E7070
:1052E0001806010000808080808080000021302C22
:1052F0002221300000000000807C0202000000003B
:10530000003F404000000000FF00000000000000DF
:10531000FF0000000002027C800000000040403FCF
:10532000000000000080404080000080000000007D
:1053300000010100FD12AED5A0A83FD30040A1C8D6
:10534000DA12817FD982DB34A4A6AFFF018181818B
:10535000FD8991A1C1FD81818101FFFF8080808055
:105360009F888482819F80808080FF0000807010F1
:105370009058444C901010B08000000001021E10A4
:10538000111224241310100A03000000C0F0F8DCEE
:105390008E86E666060E8CF8F0E00000030F1F3FD5
:1053A0007F7F64647E7F3F1F0F0700000000F030A6
:1053B00030303030300000808000000000007F601E
:1053C000604046464606061F0F060000FEFCF8F049
:1053D000E8D8B07060008080800000007F3F1F0F21
:1053E0000713090C04000301010000010202030479
:1053F00005060708090A0B0C0D0E0F10100000001F
:105400000000000000010203040607080900000074
:105410004FBB610567ACDD3F182D4454FB21E93FCC
:105420009BF681D20B73EF3F182D4454FB21F93FBB
:10543000E2652F227F2B7A3C075C143326A6813C41
:10544000BDCBF07A8807703C075C143326A6913CEC
:10545000C4EB98999999C9BF711623FEC671BCBF58
:105460006D9A74AFF2B0B3BF9AFDDE522DDEADBFC0
:105470002F6C6A2C44B4A2BF0D5555555555D53FD8
:10548000FF8300922449C23F6E204CC5CD45B73FF3
:10549000513DD0A0660DB13FEB0D76244B7BA93F6B
:1054A00011DA22E33AAD903F000000000000000056
:1054B00048656C700000000053657474696E677312
:1054C000000000005175697400000000506C6179A3
:1054D000000000004E6F726D616C6C79000000007E
:1054E00054727900496620796F7520736565207460
:1054F0006869732073656E74656E6365732C2069CB
:1055000074206D65616E73207468617420796F75A5
:1055100020686176652070617373656420746865C6
:10552000204772617068696354657374616E6420AA
:10553000636F6E67726174756C6174696F6E7321ED
:105540000000000064550008000000200001000079
:105550006C0100086456000800010020E00B000008
:1055600088010008CC5400085C01002018010020CC
:10557000B05400080000000018010020B8540008D2
:105580000000000018010020C454000800000000C2
:10559000180100200000000000000000CB530008AC
:1055A00000000000000000008B5300080000000015
:1055B000000000006B530008000000000000000025
:1055C000AB530008E0540008000000001801002060
:1055D000D454000800000000180100200000000062
:1055E00000000000CB530008000000000000000095
:1055F000CB530008000801400200000000080140F1
:1056000001000000000801401000000000080140F7
:105610002000000000080140800000000008014058
:1056200002000000000801400100000000080140E5
:1056300010000000000801402000000000080140A8
:1056400080000000000000000000000000000000DA
:105650000000000001000000100000000000000039
:0456600000127A00BA
:0400000508000131BD
:00000001FF
