:020000040800F2
:100000007806002079020008210F0008710E000810
:100010001D0F0008810300085910000800000000AF
:100020000000000000000000000000009D0F00081C
:100030008503000800000000510F0008D10F0008E0
:10004000930200089302000893020008930200083C
:10005000930200089302000893020008930200082C
:10006000930200089302000893020008930200081C
:10007000930200089302000893020008930200080C
:100080009302000800000000930200089302000899
:1000900093020008930200089302000893020008EC
:1000A00093020008930200089302000893020008DC
:1000B00093020008930200089302000893020008CC
:1000C00093020008930200089302000893020008BC
:1000D00093020008930200089302000893020008AC
:1000E000930200089302000893020008930200089C
:1000F0009302000893020008930200080000000029
:1001000000000000930200080000000093020008B5
:100110009302000800000000930200089302000808
:10012000930200089302000893020008930200085B
:100130009302000800000000000000009302000885
:100140009302000893020008000000000000000075
:10015000000000000000000000000000000000009F
:1001600000000000000000000000000093020008F2
:1001700093020008000000000000000000000000E2
:1001800000000000930200080000000000000000D2
:10019000000000000000000000000000000000005F
:1001A0000000000000000000930200089302000815
:1001B0009302000893020008930200080000000068
:1001C0000000000093020008000000000000000092
:1001D000930200089302000800F002F800F03CF8D7
:1001E0000AA090E8000C82448344AAF10107DA4592
:1001F00001D100F031F8AFF2090EBAE80F0013F0A8
:10020000010F18BFFB1A43F0010318475C0F0000F1
:100210007C0F0000103A24BF78C878C1FAD8520782
:1002200024BF30C830C144BF04680C607047000070
:100230000023002400250026103A28BF78C1FBD8EF
:10024000520728BF30C148BF0B6070471FB500F090
:1002500076FF1FBD10B510BD00F058F81146FFF72E
:10026000F5FF00F025FF00F076F803B4FFF7F2FF8A
:1002700003BC00F07DF800000948804709480047AA
:10028000FEE7FEE7FEE7FEE7FEE7FEE7FEE7FEE746
:10029000FEE7FEE704480549054A064B70470000A3
:1002A00045100008D90100087800002078060020D9
:1002B00078020020780200204FF0000200B51346BB
:1002C00094469646203922BFA0E80C50A0E80C5076
:1002D000B1F12001BFF4F7AF090728BFA0E80C5027
:1002E00048BF0CC05DF804EB890028BF40F8042B20
:1002F00008BF704748BF20F8022B11F0804F18BF8D
:1003000000F8012B7047704770477047754600F042
:100310002BF8AE4605006946534620F00700854697
:1003200018B020B5FFF7B6FFBDE820404FF000063B
:100330004FF000074FF000084FF0000BAC46ACE860
:10034000C009ACE8C009ACE8C009ACE8C00921F0BC
:1003500007018D46704710B50446AFF30080204674
:10036000BDE81040FFF781BF004870471000002033
:1003700001491820ABBEFEE72600020070470000CE
:10038000FEE7000070470000EFF3108072B600BF78
:10039000FEE70000B0B5044600F0E4F8054640F280
:1003A0000400C2F200000068611C18BF044400BFD2
:1003B00000F0D8F8401BA042FAD3B0BD2DE9F04FB1
:1003C00083B00F68002F00F0C48000F138424FEA7C
:1003D000B222019241F20042C4F600020623002636
:1003E00000244FF00108904208BF0523009309E064
:1003F0000F68043437FA08F208F1010806F1020622
:1004000000F0A780A8F1010A012202FA0AFB17EA0C
:100410000B0CEDD04F68122F19D80122BA4012F000
:10042000061F14D082680323D1F80CE003FA06F902
:1004300022EA09020EFA06F52A4382604268C7F3EF
:10044000001522EA0B0205FA0AF52A434260C56844
:1004500003228B68B2409543B34047F010072B430B
:10046000122FC36013D16FF0030303EA5A0303444E
:1004700004F01C050F27D3F820E007FA05F90F69EF
:100480002EEA090E07FA05F545EA0E071F62036812
:100490004F68D2431A4007F00303B3401A43FB00EE
:1004A0000260A5D541F26003C4F202031A6840F26B
:1004B000004E42F001021A601A68C4F2010E02F006
:1004C00001020292029A2AF003024FF6084A72448D
:1004D000CFF6FF7A52F80A3004F00C070F25BD4022
:1004E00023EA0509019B009D052B38BF1D4605FA2F
:1004F00007F747EA090342F80A30DEF800204B68A4
:1005000042EA0C07DD0358BF22EA0C07CEF8007060
:10051000DEF804209D0342EA0C0758BF22EA0C07CC
:10052000CEF80470DEF80820DD0242EA0C0740F243
:100530000C4558BF22EA0C07CEF80870C4F201053A
:100540002A689B0242EA0C0758BF22EA0C072F6078
:100550004EE703B0BDE8F08F1823002A08BF282318
:10056000C150704740F27000C2F20000006870474E
:1005700040F2040040F27001C2F20000C2F2000139
:1005800000680A68104408607047000080B50320C6
:1005900000F064F80F2000F009F800281CBF0120CB
:1005A00080BD00F02FF8002080BD0000B0B540F203
:1005B0000401C2F20001096801B3044640F20000E0
:1005C000C2F200004FF47A720068B2FBF1F1B0FBA6
:1005D000F1F000F049FC0F2C4FF001050CD858B990
:1005E0004FF0FF3021460022002500F027F840F2AE
:1005F0000800C2F2000004602846B0BD012528466C
:10060000B0BD000080B582B041F25800C4F20200D3
:10061000816841F001018160816801F0010101916F
:100620000199016841F080510160006800F080503C
:100630000090009800F08EF802B080BD70B51446AE
:100640000D46064600F00AFD2946224600F06AFCE7
:100650000146304600F00AFD70BD000080B500F094
:1006600017FD80BDB0F5007F35D0002866D147F278
:100670000000C4F200000168D0F8802001F4C061DD
:1006800022F48072B1F5806FC0F8802021D101681A
:10069000012262F34A21016040F20001C2F200012E
:1006A0000968322359434DF68363C4F21B33A1FB1F
:1006B000031302EB934100BF43694A1E8A4203D2EF
:1006C00013F480611146F7D14069400544BF03200F
:1006D00070470020704747F20000C4F20000016834
:1006E000D0F8802001F4C06142F48072B1F5806FCF
:1006F000C0F88020EDD10168012262F34A21016037
:1007000040F20001C2F200010968322359434DF65C
:100710008363C4F21B33A1FB031302EB934100BFBD
:1007200043694A1E8A4203D213F480611146F7D10D
:100730004069400544BF03207047CAE747F2000004
:10074000C4F200000168022262F34A210160002025
:100750007047000047F20800C4F20000016841F44D
:1007600080410160704700002DE9F047002800F04B
:10077000CA8042F2000AC4F2020A0446DAF8000013
:100780000D4600F00F0088420DD2DAF8000020F08C
:100790000F002843CAF80000DAF8000000F00F004C
:1007A000A84240F0B080207841F20808C007C4F2A7
:1007B00002080CD14FF00009206881072BD4B9F151
:1007C000800F41D1D8F8000020F0F0003AE06068D6
:1007D000022800F08C80032840F0918058F8080C23
:1007E000800140F1908000F0B5FB4BF20041C0F277
:1007F000C44188420CD9D8F8000010F0F00F00F086
:100800008E802078800703D5A068002800F08780BC
:100810004FF000098CE0410705D5D8F8001041F4ED
:10082000E061C8F80010000706D5D8F800000721DD
:1008300061F30D20C8F80000D8F80000A16820F08E
:10084000F0000843C8F80000DAF8000000F00F00DC
:10085000A84219D9DAF8000020F00F002843CAF89E
:100860000000FFF77FFE064641F28837DAF8000005
:1008700000F00F00A84207D0FFF774FE801BB842BB
:10088000F4D90320BDE8F0872068410707D5D8F8E0
:100890000010E26821F4E0611143C8F8001000077D
:1008A00008D5D8F80000216920F4605040EAC10062
:1008B000C8F8000000F05CF8D8F8001041F25812B7
:1008C000C1F30311C0F60002515C40F2000201F0D6
:1008D0001F0120FA01F140F20800C2F20000006896
:1008E000C2F200021160FFF761FEBDE8F08758F820
:1008F000080C80035CBF0120BDE8F08706E058F8D3
:10090000080C400502D40120BDE8F08700F030F863
:100910004BF20041C0F2C44188427FF679AFD8F86B
:100920000000082161F307104FF08009C8F80000AB
:10093000D8F80000616820F003000843C8F8000000
:10094000FFF710FE064641F2883700BFD8F80000D6
:10095000616800F00C00B0EB810F3FF42DAFFFF7A2
:1009600001FE801BB842F1D90320BDE8F0870000EA
:1009700041F20C01C4F2020151F8040C42F20042AF
:10098000C0F2F40200F00C000428104608BF7047C3
:1009900051F8040C00F00C00082841F20020C0F2CD
:1009A0007A0021D051F8043C03F00C030C2B1CBF3F
:1009B00000207047D1F800C00B680CF0030CC3F3A3
:1009C00003130133BCF1030F08BF02460868B2FBF2
:1009D000F3F20968C0F306205043C1F341610222DB
:1009E00002EB4101B0FBF1F0704700002DE9F0414E
:1009F00082B0002800F001810446007841F2000630
:100A0000C007C4F2020654D12078800772D420783F
:100A1000000700F195802078400700F1B38020782E
:100A2000800600F10081E069002840D0B16801F043
:100A30000C010C2940F05881012800F0DE80F0689C
:100A4000216A00F003028A4240F0D780626A6FF0A8
:100A50000F0300F0F00103EB0212914240F0CD8051
:100A6000A16A00F4FE42B2EB012F40F0C680E16AB9
:100A700000F07842B2EBC16F40F0BF80226B0023E0
:100A8000CFF6E07303EB025200F4C0016FF31402DF
:100A9000914240F0B280616B4FF07E4202EB016107
:100AA00000F0C06001F07E41884240F0A680002046
:100AB000D7E1B06800F00C01F068082959D0032292
:100AC00081F00C0122EA00000844B0FA80F04009ED
:100AD0004FD16568B5F5A02F00F0D180B5F5803F06
:100AE00000F0D180306820F480303060306820F42D
:100AF0008020CBE0B068F16800F00C00042866D0DC
:100B000001F0030180F00C0081F002010844B0FA0A
:100B100080F040095BD1E1683068002900F0D280A4
:100B200040F480703060FFF71DFD054630684005D9
:100B300000F1EF80FFF716FD401B0228F6D920E1F7
:100B40006169D6F89400002900F0878040F0010028
:100B5000C6F89400FFF706FD054600BFD6F89400DE
:100B600080073FF558AFFFF7FDFC401B0228F5D981
:100B700007E1306880037FF547AF606800287FF4A5
:100B800043AF3AE0B06D10F0805808D1B06D40F03E
:100B90008050B065B06D00F080500190019847F230
:100BA0000007C4F200073868C0052AD4386840F44A
:100BB00080703860FFF7D6FC054600BF3868C00576
:100BC0001FD4FFF7CFFC401B0228F7D9D9E03068CB
:100BD000400501D5E06880B17068216920F0FE40D1
:100BE00040EA0160706040F20800C2F20000006854
:100BF000FFF7DCFC00283FF40AAF012002B0BDE89B
:100C0000F081A568052D00F0A080012D00F0A380E3
:100C1000D6F8900020F00100C6F89000D6F89000B9
:100C200020F004009BE0A169D6F89800002978D054
:100C300040F00100C6F89800FFF794FC054600BF9D
:100C4000D6F8980080073FF5EEAEFFF78BFC401B0F
:100C500002284FF00300F3D903E120F00100C6F8A9
:100C60009400FFF77FFC0546D6F8940080077FF5D7
:100C7000D2AEFFF777FC401B0228F5D981E030683F
:100C800040F480203060306840F480303060FFF7FE
:100C900069FC002D054611D0306880033FF5B4AEE5
:100CA000FFF760FC401B6428F6D96AE0FFF75AFCA6
:100CB000401B64284FF0030000F2D38030688003AB
:100CC000F4D4A1E620F480703060FFF74BFC0546B9
:100CD000306840057FF59BAEFFF744FC401B0228BF
:100CE0004FF00300F4D9BCE03168022821F0807194
:100CF00031605FD1FFF736FC054600BF30688001E8
:100D000072D5FFF72FFC401B02284FF00300F5D9E6
:100D1000A7E07068216920F0FE4040EA0160706041
:100D200075E620F00100C6F89800FFF71BFC0546A9
:100D3000D6F8980080077FF576AEFFF713FC401BCE
:100D400002284FF00300F3D98BE0D6F8900040F072
:100D50000400C6F89000D6F8900040F00100C6F8F4
:100D60009000FFF7FFFB002D054641F2883714D0B5
:100D7000D6F89000800714D4FFF7F4FB401BB8426C
:100D8000F6D9032002B0BDE8F08100BFFFF7EAFB0F
:100D9000401BB8424FF0030063D8D6F8900080079C
:100DA000F4D4B8F1000F7FF43AAEB06D20F080506B
:100DB000B06534E6F0684FF6FF7120F00300F06094
:100DC000F068CFF6EE610840F060FFF7CBFB044619
:100DD000306880017FF56BAEFFF7C4FB001B022873
:100DE0004FF00300F4D93CE0F06848F20C01C0F287
:100DF0009F1104F1200700EA010C8ECF6FF00F0065
:100E0000D4E90C5400EB02100022CFF6E07241EA64
:100E10000C0102EB055208436FF314024FF07E45BC
:100E200040EA032005EB0465104305F07E4540EAE7
:100E3000C7602843F060306840F080703060F06830
:100E400040F08070F060FFF78DFB04463068800151
:100E50003FF52DAEFFF786FB001B02284FF0030085
:100E6000F4D902B0BDE8F08180B500F099F880BDFA
:100E7000FEE700002DE9F04387B0002741F24C0067
:100E80000697CDE90477CDE90277C4F20200016844
:100E900040F6000441F0040101600168C4F600045A
:100EA00001F00401019101990168002241F0200143
:100EB000016001684FF47F4601F020010191019922
:100EC000016841F00801016000684FF47F4100F0C3
:100ED0000800019001982046FFF73EFB04F580656D
:100EE0002846042100224FF00408FFF735FB029644
:100EF00002AE4FF0010920463146CDE90397059730
:100F0000FFF75CFA28463146CDE90289CDE904773E
:100F1000FFF754FA07B0BDE8F0830000FEE70000D9
:100F2000FEE7000000F0070080F00703042B28BF55
:100F300004234FF0FF3C03380CFA03F338BF0020C2
:100F4000994381400CFA00F022EA00000843704700
:100F50007047000041F20C00C4F202000168026810
:100F600042F2004301F00301C2F30312C0F2F403A2
:100F70000132032904BF41F20023C0F27A03016861
:100F8000B3FBF2F20068C1F306215143C0F34160A4
:100F9000022202EB4000B1FBF0F070477047000006
:100FA000B0B501380024B4EB106F1CBF0120B0BDF8
:100FB0004EF21005CEF2000568604FF0FF300F21B1
:100FC00000F054F80720AC6028602046B0BD000057
:100FD00080B5FFF7CDFA80BDB0B594B006AC204621
:100FE0003821FFF769F900254FF400700595CDE928
:100FF0000355CDE90155FFF735FB4FF48071099199
:1010000040210A91012102200F910A210690CDE989
:101010000D00CDE91010CDE912002046FFF7E6FCE7
:1010200070B90F2001900320CDE9020501A802212B
:10103000CDE90455FFF798FB002804BF14B0B0BDFC
:10104000FFF7A2F94EF68850CEF20000016841F495
:101050007001016070470000FEE700004EF60C5082
:10106000CEF200000068C0F3022070474EF6145321
:1010700000F00F02CEF2000309011A4400F16043B0
:10108000B0F1FF3FC8BF03F5644211707047000024
:101090004EF60C51CEF200010A684FF6FF031A40DB
:1010A00060F30A2242F0806040F0FD7008607047F3
:1010B000FFF76CFAFFF790FFFFF7DCFE4FF47F407D
:1010C00000F026F84FF4FA70FFF764F94FF47F4010
:1010D00000F006F84FF4FA70FFF75CF9EEE7000055
:1010E00010B540F60044C4F60004A4F5806281B255
:1010F00010460122FFF730FA204604210122FFF7B3
:101100002BFA204604210022FFF726FA10BD00002A
:1011100010B540F60044C4F60004A4F5806281B224
:1011200010460022FFF718FA204604210122FFF79B
:1011300013FA204604210022FFF70EFA10BDF1EE4B
:10114000100A4FF6FF71C0F2C03120EA010040F0F2
:101150004070E1EE100A704700000000000000003F
:101160000102030406070809881100080000002096
:101170001000000014020008981100081000002060
:1011800068060000300200080024F400010000009E
:08119000100000000000000047
:04000005080001D915
:00000001FF
