:020000040800F2
:10000000400700208902000893200008571B0008C1
:100010009120000853070008D328000800000000C2
:10002000000000000000000000000000AB230008FA
:10003000550700080000000095200008AD230008C7
:10004000A3020008A3020008A3020008A3020008FC
:10005000A3020008A3020008A3020008A3020008EC
:10006000A3020008A3020008A3020008A3020008DC
:10007000A3020008A3020008A3020008A3020008CC
:10008000A302000800000000A3020008A302000869
:10009000A3020008A3020008A3020008A3020008AC
:1000A000A3020008A30200082D240008A3020008F0
:1000B000A3020008A3020008A3020008A30200088C
:1000C000A3020008A3020008A3020008A30200087C
:1000D000A3020008A3020008A3020008A30200086C
:1000E000A3020008A3020008A3020008A30200085C
:1000F000A3020008A3020008A302000800000000F9
:1001000000000000A302000800000000A302000895
:10011000A302000800000000A3020008A3020008D8
:10012000A3020008A3020008A3020008A30200081B
:10013000A30200080000000000000000A302000865
:10014000A3020008A3020008000000000000000055
:10015000000000000000000000000000000000009F
:10016000000000000000000000000000A3020008E2
:10017000A3020008000000000000000000000000D2
:1001800000000000A30200080000000000000000C2
:10019000000000000000000000000000000000005F
:1001A0000000000000000000A3020008A3020008F5
:1001B000A3020008A3020008A30200080000000038
:1001C00000000000A3020008000000000000000082
:1001D000A3020008A302000800F002F800F044F8AF
:1001E0000AA090E8000C82448344AAF10107DA4592
:1001F00001D100F039F8AFF2090EBAE80F0013F0A0
:10020000010F18BFFB1A43F001031847F039000033
:10021000103A0000103A24BF78C878C1FAD85207C3
:1002200024BF30C830C144BF04680C607047000070
:100230000023002400250026103A28BF78C1FBD8EF
:10024000520728BF30C148BF0B607047642900F0D7
:10025000A580732900F03F82002070471FB502F08F
:10026000D7FB1FBD10B510BD00F039FA1146FFF7DE
:10027000F5FF02F0ABFB00F057FA03B4FFF7F2FF13
:1002800003BC00F05FFA00000948804709480047B6
:10029000FEE7FEE7FEE7FEE7FEE7FEE7FEE7FEE736
:1002A000FEE7FEE704480549054A064B7047000093
:1002B0001D240008D901000840010020400700204B
:1002C00040030020400300200FB41CB50C0007AA17
:1002D000009001D02044401E074B7B4469460190AA
:1002E000069800F0C6F9002C03D06946002000F003
:1002F000D3F91CBC5DF814FBC503000070B50446BF
:1003000085690068C10601D5302600E02026C007B7
:1003100007D070BDD4E9012130469047206A401CC7
:1003200020626D1EF6D570BD70B5044685690078F3
:10033000C00707D170BDD4E9012120209047206A71
:10034000401C20626D1EF6D570BD70B50C4605468A
:10035000012A05D02878800600D5EA69002302E04A
:10036000012305E05B1C934202D2E05C0028F9D136
:10037000A869E618C01AA861286A184428622846A5
:10038000FFF7BCFF04E0D5E9012114F8010B904709
:10039000B442F8D32846FFF7C7FF70BD2DE9F041FE
:1003A0000646002410687529314616A510D0AFF313
:1003B0000080002802DA404213A507E031688A076E
:1003C00001D512A502E0490704D511A5012401E0D9
:1003D000AFF3008000210A2206F1240709E0B0FBF8
:1003E000F2FCB0FBF2F302FB1C00303078541846EC
:1003F000491C0028F3D123462A463046BDE8F04187
:1004000000F0D8B8000000002D0000002B00000014
:10041000200000002DE9F0474FF0000A894604460D
:10042000C0F820A02046E1688847002876D025281B
:1004300006D0D4E901219047206A401C2062F1E7F0
:10044000E168204600258847C4F81CA0064600271E
:10045000C4F818A02A2E09D0304602F058FA38B352
:1004600004EB8708303EC8F8186019E059F8041BFF
:10047000204604EB87029161E1688847012F064618
:1004800018D1E069002820DA25F020051DE0D8F811
:10049000180000EB800006EB40003038C8F8180068
:1004A0002046E1688847064602F031FA0028EED17E
:1004B000012F0AD02E2E08D12046E16888477F1CE4
:1004C0000646022F45F02005C4DBA069002803DAA8
:1004D000404245F00105A061E80701D025F0100574
:1004E000B6B1A6F14100192802D8203645F40065BE
:1004F0004A463146204625604D46FFF7A7FE58B1D3
:10050000012806D0ED1D25F0070000F1080989E754
:1005100004E005F1040985E730468AE7206ABDE872
:10052000F08710B5431C02E010F8011B71B1810780
:10053000FAD14FF0013202C88C1A8C4314EAC2116E
:10054000F9D0C01A0A0603D0C01E10BDC01A10BDD3
:100550000A0401D0801E10BD0902FCD0401E10BD4F
:100560004FF0000200B5134694469646203922BF4C
:10057000A0E80C50A0E80C50B1F12001BFF4F7AF97
:10058000090728BFA0E80C5048BF0CC05DF804EB79
:10059000890028BF40F8042B08BF704748BF20F8E7
:1005A000022B11F0804F18BF00F8012B70477047E5
:1005B000704770472DE9F0470D469946924604462C
:1005C00000F124080168880604D5E06921F01001D3
:1005D000216000E00120A84201DD471B00E0002768
:1005E000A1697A1902EB0900081AA0612078C006F7
:1005F00002D42046FFF782FE002608E0D4E901215C
:100600001AF806009047206A401C761C20624E456E
:10061000F4DB2078C0060AD52046FFF76FFE06E01F
:10062000D4E9012130209047206A401C2062381E06
:10063000A7F10107F4DC07E0D4E9012118F805006F
:100640009047206A401C2062281EA5F10105F3DCBA
:100650002046FFF769FE2078000602D50220BDE89B
:10066000F0870120FBE7000001694A1C026108785D
:10067000704700B58FB0CDE90131002105910549E2
:100680007944CDE9031011466846FFF7C3FE0FB069
:1006900000BD0000E5FFFFFF0A6802F8010B0A60D9
:1006A0007047D1E900239A4202D2531C0B601070AC
:1006B000704710B5436913B1AFF3008001E0FFF755
:1006C00044FE012010BD127800F124010A700022BE
:1006D0004A700122EDE711684FF0FF32E9E77546F5
:1006E00000F02CF8AE4605006946534620F007009E
:1006F000854618B020B5FFF7D5FDBDE820404FF086
:1007000000064FF000074FF000084FF0000B21F0FB
:100710000701AC46ACE8C009ACE8C009ACE8C009C8
:10072000ACE8C0098D46704710B50446AFF30080B1
:100730002046BDE81040FFF7A0BD0000004870470C
:10074000E000002001491820ABBEFEE726000200B1
:100750007047FEE77047002240F6B83306E00021FC
:10076000491C89B29942FBD3521C92B28242F6D301
:10077000704772B6FEE7000070B5044600F0F8F866
:100780000546601C02D004484068044400F0F0F8BC
:10079000401BA042FAD370BD100000202DE9FC4F91
:1007A000DFF8A0A1002301250AF1040B03244FF078
:1007B0000F0C0BF1040EBDE005FA03F632406FD0CA
:1007C0004F68012F05D0022F03D0112F01D0122F17
:1007D00017D1D0F808905F0004FA07F829EA080951
:1007E0000097D1F80C8008FA07F848EA0908C0F821
:1007F00008804768B7430E79C6F300169E403E4313
:100800004660C6684FEA430804FA08F7BE430197FA
:100810008F6807FA08F73743C7604E68022E01D089
:10082000122E13D1DE0800EB86060096366A5F07AB
:10083000FF0E0CFA07F926EA0906D1F8109009FA1A
:1008400007F949EA0609009EC6F820900668019F4C
:10085000BE430F7907F0030707FA08F7374307602D
:100860004E68F60065D5384E376E47F0010737669B
:10087000366E23F0030706F001060096334E3E4421
:10088000B146B6689F074FEA17780CFA08F7BE43DF
:10089000B0F1904F05D02E4FB84204D1012717E098
:1008A00047E0002714E02B4FB84201D102270FE0A8
:1008B000294FB84201D103270AE0284FB84201D19D
:1008C000042705E0264FB84201D1052700E006279E
:1008D00007FA08F73743C9F80870DAF80060574696
:1008E000D1F8048096435FEAC83800D516433E60CD
:1008F000DBF800605F46D1F8048096435FEA8838F1
:1009000000D516433E60DEF800607746D1F80480DB
:1009100096435FEAC82800D516433E60094F0C375E
:100920003E68D1F8048096435FEA882800D51643D4
:100930003E605B1C0A6832FA03F67FF43DAFBDE807
:10094000FC8F000000040140001002400000014044
:100950000004004800080048000C0048001000484F
:10096000001400480AB1816170478162704700003D
:10097000014880687047000010000020024881682C
:1009800042681144816070471000002010B50024B7
:10099000032000F073F80F2000F008F808B10124DC
:1009A00001E000F025F8204610BD000070B50E4EA5
:1009B00005460024706898B14FF47A71B1FBF0F0ED
:1009C0000A490968B1FBF0F000F0FAFB40B9102DBC
:1009D00006D200222946501E00F030F8356000E0B3
:1009E0000124204670BD0000100000201C000020E3
:1009F0000A4882B0016E41F001010166016E01F00A
:100A000001010091816D41F080518165806D00F0A0
:100A10008050009002B000F0A1B800000010024029
:100A2000002809DB00F01F020121914040098000ED
:100A300000F1E020C0F8001170470000F0B40E4B48
:100A40001B680C46C3F30223C3F10705042D00D92C
:100A50000425191D072901D2002300E0DB1E012611
:100A600006FA05F1491E214099409E40761E164027
:100A70003143F0BC01F02EBF0CED00E0064900F060
:100A8000070208684FF6FF03184040EA0220034AB5
:100A900010430860704700000CED00E00000FA050C
:100AA0002B492C4B0A6832214A432B4940B1B0F5FF
:100AB000007F086829D020F4C06040F480602CE0FA
:100AC0000868C0F34120022804D051F8800F20F4B8
:100AD000807022E0D1F8800020F48070C1F880009E
:100AE000086820F4C06040F400700860B2FBF3F0C6
:100AF000401C00E0401E4A69520501D50028F9D18A
:100B0000486940050AD503207047C0F341200228F8
:100B100006D051F8800F40F48070086000207047C4
:100B2000D1F8800040F48070C1F88000086820F49B
:100B3000C06040F400700860B2FBF3F0401C00E0BD
:100B4000401E4A695205DBD50028F9D1D8E70000DC
:100B50001C00002040420F000070004002488168E5
:100B600041F4804181607047007000402DE9F047FA
:100B70000E4605004FF0000725D0DFF8AC81D8F80D
:100B8000000000F00F00B0420CD2D8F8001021F0A5
:100B90000F013143C8F80010D8F8000000F00F0032
:100BA000B04210D12968614CC80741F2883A5AD046
:100BB0006868DFF87C91032808D0022820682DD0CF
:100BC000400500282CDB0120BDE8F087206880016B
:100BD000F9D5E06800F00302E068C0F30310401CA0
:100BE000032A19D0534A00BFB2FBF0F0E268C2F307
:100BF00006225043E268C2F34162521C5200B0FB2D
:100C0000F2F0484517D9A06810F0F00F0CD0880713
:100C100011D5A86840B10EE0474AE5E78003D0E768
:100C200000F092F8484506D9A06820F0F00040F0A6
:100C30008000A0608027A068696820F00300084356
:100C4000A060FFF795FE814606E000BFFFF790FE2B
:100C5000A0EB090151453AD8A068696800F00C0082
:100C6000B0EB810FF2D12868810714D5400703D576
:100C7000A06840F4E060A0602878000705D5A0686F
:100C800020F4605040F4E060A060A068A96820F003
:100C9000F000084304E0802F03D1A06820F0F000AA
:100CA000A060D8F80010404601F00F01B14216D9FB
:100CB000016821F00F0131430160FFF759FE07463B
:100CC00007E000BFFFF754FEC11B514501D90320C7
:100CD0007AE7D8F8000000F00F00B042F2D128788F
:100CE000400705D5A068E96820F4E0600843A060EB
:100CF0002878000706D5A068296920F4605040EAEA
:100D0000C100A06000F020F8A1680C4AC1F30311F3
:100D1000515C01F01F01C84009490860094800689A
:100D2000BDE8F047FFF742BE00200240001002403D
:100D300000B4C4040024F40000127A00EA3B000866
:100D40001C00002010000020184910B58868C0F36E
:100D500081021748012A0BD08A684310C2F381022E
:100D6000022A06D08A68C2F38102032A03D0002037
:100D700010BD184610BDCA6802F00304CA68C2F369
:100D80000312521C032C02D0B0FBF2F001E0B3FBC3
:100D9000F2F0CA68C968C2F306225043C1F3416148
:100DA000491C4900B0FBF1F010BD000000100240EA
:100DB0000024F4002DE9F84304007AD02078FA4D9D
:100DC000C00747D0A868E96800F00C0001F00301F3
:100DD0000C2802D0082817D001E0032914D060683D
:100DE000B0F5803F17D0B0F5A02F286817D020F4B9
:100DF00080302860286820F4802028606068E0B196
:100E0000FFF7B6FD064614E02868800322D5606827
:100E10000028D2D01EE0286840F48030EDE740F48E
:100E200080202860F7E700BFFFF7A2FD801B642841
:100E300070D828688003F7D50CE0FFF799FD0646C7
:100E400005E000BFFFF794FD801B6428F0D82868F8
:100E50008003F7D4207880074CD5A868E96800F0B3
:100E60000C0001F003010C2802D004280DD001E091
:100E700002290AD0E068002828682BD040F480704E
:100E80002860FFF775FD064619E02868400502D581
:100E9000E068002891D06868217C20F0FE4040EA9C
:100EA00001606860C1480068FFF780FD002800D13C
:100EB00020E076E1FFF75CFD801B0228B8D82868A7
:100EC0004005F7D56868217C20F0FE4040EA0160CB
:100ED00068600FE020F480702860FFF749FD064647
:100EE00005E000BFFFF744FD801B0228A0D828685A
:100EF0004005F7D42078000729D560690028D5F887
:100F0000940013D040F00100C5F89400FFF730FDC5
:100F1000064606E090E000BFFFF72AFD801B02288E
:100F200086D8D5F894008007F6D510E020F00100AF
:100F3000C5F89400FFF71CFD064604E0FFF718FD16
:100F4000801B022878D8D5F894008007F6D4207842
:100F5000400761D5A86D0026C00008D4A86D40F0F8
:100F60008050A865A86D012600F080500090904840
:100F70000168C90511D40168804641F4807101609F
:100F8000FFF7F6FC074604E0FFF7F2FCC01B02285F
:100F900052D8D8F80000C005F6D5A068012815D0B1
:100FA0000528D5F8900016D020F00100C5F8900073
:100FB000D5F8900020F00400C5F89000A06841F238
:100FC0008838B8B1FFF7D4FC07460EE0D5F890009A
:100FD00040F00100F0E740F00400C5F89000F5E7AC
:100FE000FFF7C6FCC11B414526D8D5F89000800705
:100FF000F6D50CE0FFF7BCFC074604E0FFF7B8FCB1
:10100000C11B414518D8D5F890008007F6D41EB111
:10101000A86D20F08050A8652078800629D5A069A9
:101020000028D5F8980013D040F00100C5F89800CA
:10103000FFF79EFC064606E077E000BFFFF798FC4E
:10104000801B022877D8D5F898008007F6D510E0E5
:1010500020F00100C5F89800FFF78AFC064604E07E
:10106000FFF786FC801B022865D8D5F8980080071A
:10107000F6D4E069F0B3A968C1F38101032961D016
:101080000228286820F0807028600BD0E86820F0E3
:101090000300E860E86847490840E860FFF768FC3B
:1010A00004464BE0FFF764FC064604E0FFF760FCF3
:1010B000801B02283FD828688001F7D4F4E9080192
:1010C0006FF00F0202EB01110843218A5204490814
:1010D00002EB4151A26841EA02210843217D4FF011
:1010E0007E42490802EB41610843217B40EAC1602E
:1010F000E96800E062E0304A11400843E86028688F
:1011000040F080702860E86840F08070E860FFF789
:101110002FFC044605E000BFFFF72AFC001B022855
:1011200009D828688001F7D548E004E0FFF720FCE3
:10113000001B022802D90320BDE8F883286880013B
:10114000F4D43BE00128F7D0E868226A00F00301FC
:10115000914226D1616A00F0F002090110399142F2
:101160001FD1A26A00F4FE41B1EB022F19D194F80D
:101170002C2000F07841B1EBC26F12D1218E00F427
:10118000C00249084905A1F50011914209D194F81E
:10119000341000F0C06049084906A1F10071814295
:1011A0000CD00120C8E70000001002401000002011
:1011B00000700040FFFFEEFE0C809F010020BBE7A7
:1011C00010B5401EB0F1807F01D3012010BD4FF05B
:1011D000E02460610F21601701F07CFB0020A0611A
:1011E00007202061002010BD70477047704770478E
:1011F00070477047F0B590F83C20012A3AD001259D
:1012000080F83C50022280F83D2003685A689C68B0
:10121000194E1A4FB34201D0BB4204D122F4700CD4
:101220004A6842EA0C02DFF858C002EA0C02D1F820
:1012300000C04CEA020CC3F804C00268B2420DD0F0
:10124000B2F1804F0AD00F4B9A4207D00E4B9A4210
:1012500004D0BA4202D00D4B9A4204D1896824F0DE
:1012600080031943916080F83D50002180F83C10C4
:101270000846F0BD0220F0BD002C014000340140C2
:101280008FFFFFFD000400400008004000400140C7
:10129000704710B5040003D094F83D0010B107E08A
:1012A000012010BD002084F83C00204600F022F808
:1012B000022084F83D00211D206801F0BDF80120C6
:1012C00084F8480084F83E0084F83F0084F8400029
:1012D00084F8410084F8420084F8430084F8440014
:1012E00084F8450084F8460084F8470084F83D00FF
:1012F000002010BD10B586B0044614216846FFF7E3
:101300002FF916492068884226D11548016E41F40C
:1013100080210166016E01F480210591C16C41F0CC
:101320000101C164C06C694600F001000590802095
:101330000090022001900020029003900120049070
:101340004FF09040FFF72AFA002211461A20FFF7CB
:1013500075FB1A20FFF764FB06B010BD0048014082
:101360000010024010B50A4A016891420FD10021D5
:1013700000F0DBFB0749064B0022243348601A606B
:1013800000EB8000044A0001B2FBF0F0086010BDE1
:10139000004801400800002000B4C4042DE9F041D9
:1013A000054690F83C000C46012836D0012085F80F
:1013B0003C008AB3042A42D02868082A51D0D4E9D4
:1013C0000023E168066A26F480560662C669076A49
:1013D00026F4407646EA03234FF6FF7606EA01310B
:1013E00023F4704319434FF4204627F4204306EAC0
:1013F00002321A43C16102622868C16921F4406166
:10140000C1612868C169A26841EA0221C161002066
:1014100085F83C00BDE8F08101E00220FAE7D4E95C
:101420000012E368286801F003FA2868816921F056
:101430000C01816128688169A26811430FE0D4E939
:101440000012E368286801F029FA2868816921F40C
:101450004061816128688169A26841EA0221816155
:10146000D5E7D4E90027267B016A21F48071016267
:10147000C169036A21F00301394321F0F007310704
:101480004FF4206647EA116123F4206306EA022242
:101490001A43C16102622868C16921F00C01C1616F
:1014A0002868C169A2681143B0E710B5040003D0F1
:1014B00094F83D0010B107E0012010BD002084F831
:1014C0003C00204600F022F8022084F83D00211D57
:1014D000206800F0B1FF012084F8480084F83E0045
:1014E00084F83F0084F8400084F8410084F842000A
:1014F00084F8430084F8440084F8450084F84600EA
:1015000084F8470084F83D00002010BD70470000BB
:1015100010B5044679B1042912D0082915D00C2938
:1015200018D0102919D094F8430000BF94F8472030
:10153000012817D114E094F83E0094F84420F7E70E
:1015400094F83F0094F84520F2E794F8400094F8AE
:101550004620EDE794F84100E8E794F84200E5E71B
:10156000012A01D0012010BD022071B1042915D03B
:1015700008291CD00C2948D0102949D084F84300F0
:1015800084F847000C291BD145E084F83E0084F81C
:1015900044002068C26842F0020210E084F83F0074
:1015A00084F845002068C26842F0040207E084F82D
:1015B000400084F846002068C26842F00802C26019
:1015C0000122206800F090FF1549206888420ED063
:1015D000B0F1804F0BD01349884208D0124988429D
:1015E00005D01249884202D01149884207D181684A
:1015F000104A1140062906D0B1F5803F03D001689A
:1016000041F001010160002010BD84F84100B7E7FE
:1016100084F84200B4E72068C26842F01002CEE7C6
:10162000002C01400004004000080040003401404C
:10163000004001400700010070B5044600680169E0
:101640004FF00005C943890715D4C168C94389070C
:1016500011D4E91E0161012020772068806980078C
:10166000204602D0FFF77EFE04E000F009F9204694
:1016700000F0DAF9257720680169C943490717D4D2
:10168000C168C943490713D46FF004010161022006
:1016900020772068806910F4407F204602D0FFF751
:1016A00061FE04E000F0ECF8204600F0BDF925777B
:1016B00020680169C943090716D4C168C9430907ED
:1016C00012D46FF008010161042020772068C069FE
:1016D0008007204602D0FFF745FE04E000F0D0F876
:1016E000204600F0A1F9257720680169C943C906A1
:1016F00017D4C168C943C90613D46FF01001016142
:10170000082020772068C06910F4407F204602D06E
:10171000FFF728FE04E000F0B3F8204600F084F95B
:10172000257720680169C943C90708D1C168C94341
:10173000C90704D1891E0161204600F0F5F920682F
:101740000169C943090609D4C168C943090605D41A
:101750006FF0800101612046FFF747FD20680169B5
:10176000C943C90509D4C168C943090605D46FF442
:10177000807101612046FFF737FD20680169C94388
:10178000490609D4C168C943490605D46FF0400130
:101790000161204600F0DEF920680169C94389062D
:1017A00009D4C168C943890605D46FF020010161DD
:1017B0002046FFF71BFD20680169C943C90209D40F
:1017C000C168C943C90205D46FF480110161204684
:1017D000FFF70EFD20680169C943890209D4C16879
:1017E000C943890205D46FF4001101612046FFF757
:1017F000FEFC20680169C943490209D4C168C94394
:10180000490205D46FF4800101612046FFF7F1FC25
:1018100020680169C94309020BD4C168C9430902A0
:1018200007D46FF4000101612046BDE87040FFF766
:101830002FBD70BD10B586B0044614216846FEF772
:101840008FFE2068B0F1804F15D10C48C16C41F07B
:101850000101C164C06C694600F0010005900220DE
:1018600000900190002002900390012004904FF01E
:101870009040FEF793FF06B010BD0000001002403C
:10188000704770B5044690F83C000D4601280BD017
:10189000012084F83C000C2A45D007DC5AB1042A08
:1018A0001BD0082A78D12CE0022070BD102A4ED01F
:1018B000142A71D15DE0206800F024FE206881695F
:1018C00041F0080181612068816921F00401816192
:1018D000206881692A69114311E0206800F060FEE8
:1018E0002068816941F4006181612068816921F487
:1018F00080618161206881692A6941EA02218161F0
:101900004AE0206800F094FE2068C16941F00801B7
:10191000C1612068C16921F00401C1612068C16909
:101920002A69114311E0206800F0CAFE2068C169ED
:1019300041F40061C1612068C16921F48061C16125
:101940002068C1692A6941EA0221C16124E0206856
:1019500000F0FEFE2068016D41F00801016520687D
:10196000016D21F0040101652068016D2A691143B0
:1019700011E0206800F024FF2068016D41F400614F
:1019800001652068016D21F4806101652068016DA9
:101990002A6941EA02210165002084F83C0070BDFB
:1019A00010B5040003D094F83D0010B107E0012009
:1019B00010BD002084F83C00204600F023F80220EF
:1019C00084F83D00211D206800F036FD012084F8D8
:1019D000480084F83E0084F83F0084F8400084F812
:1019E000410084F8420084F8430084F8440084F8FD
:1019F000450084F8460084F8470084F83D00002044
:101A000010BD000008B50068B0F1804F08D105484E
:101A1000816D41F001018165806D00F00100009051
:101A200008BD0000001002407047000030B50446B9
:101A3000022269B1042912D0082917D00C291CD020
:101A4000102921D094F84300012824D0012030BD72
:101A500094F83E000128F9D184F83E201DE094F866
:101A60003F000128F2D184F83F2016E094F84000AE
:101A70000128EBD184F840200FE094F841000128C0
:101A8000E4D184F8412008E094F842000128DDD137
:101A900084F8422001E084F843200122206800F00D
:101AA00023FD194B20681949194A984209D08842E8
:101AB00007D0904205D0174DA84202D0164DA8423B
:101AC00003D1456C45F400454564206898420CD02C
:101AD000B0F1804F09D0114B984206D0104B98427C
:101AE00003D0884201D0904207D181680D4A11404D
:101AF000062906D0B1F5803F03D0016841F001010D
:101B00000160002030BD0000002C01400034014085
:101B100000400140004401400048014000040040F2
:101B2000000800400700010070470246002041B154
:101B3000042909D008290AD00C2901D11068006CA9
:101B400070471068406B70471068806B7047106872
:101B5000C06B70477047FEE700B585B0142168463A
:101B6000FEF7FEFC4FF6FF70009000200321CDE948
:101B70000201019069460248FEF710FE05B000BD63
:101B80000008004800B585B014216846FEF7E8FC5F
:101B90004FF6FF7000900120019003200390002079
:101BA000029069460248FEF7F9FD05B000BD00004D
:101BB0000008004870B5002406462146204600F083
:101BC000FBF800F035F94FF49635304600F000F997
:101BD000641CAC42F9D370BD30B587B0142168469F
:101BE000FEF7BEFC1E48C16C41F00401C164C16C2B
:101BF00001F004010591C16C41F00101C164C16CA7
:101C000001F001010591C16C41F00201C164C06C99
:101C1000012500F0020005904FF44870CDE9000561
:101C200000240394694602940E48FEF7B7FD28028B
:101C300003940090CDE901544FF09044694620464A
:101C4000FEF7ACFDFFF79EFFA06940F48070A06135
:101C500004481830016841F40871016007B030BDD4
:101C60000010024000040048203AD2B2034B02EBBD
:101C7000420203EB021200F019B800001A2A000811
:101C8000F0B50E460746002540F23F1407E0214616
:101C90003846FFF7E9FF103C6D1CA4B2761C327881
:101CA000002A01D0142DF2D3F0BD00002DE9F04739
:101CB00091468A460026044600F07EF8DFF8408010
:101CC000012700BF00F0B4F85FF0000539F81600F6
:101CD00007FA05F10842404601D1408800E000883B
:101CE00000F076F86D1C102DF0D3641CE4B2514660
:101CF000204600F061F8761C182EE3D3BDE8F0878B
:101D00000000002010B5FFF767FF002000F014F876
:101D1000084CA080A088A0F50241303906D000F020
:101D200043FA002000F008F8A08010BD00F0B3F9DD
:101D3000F7E700000000002070B51D490A6842F472
:101D400000720A600A6842F480720A60184C103C03
:101D5000226842F020022260164A1060086840F0B3
:101D60002000086000BF00BF00BF206840F02000D6
:101D70002060206840F480702060FFF7EDFE4FF097
:101D80009041886A40F48070886200BF00BF00BF45
:101D90000848001F006885B2886940F48070886137
:101DA000FFF7F0FE206840F400702060284670BD08
:101DB000280400481408004810B50C4601462020AD
:101DC00000F068F82146BDE81040212000F062B81C
:101DD00030B5154B1968154A8CB2116841F4007181
:101DE0001160124910390D6845F480750D600D6859
:101DF00045F020050D601860106840F0200010606C
:101E000000BF00BF00BF086840F0200008600868FD
:101E100040F48070086000BF00BF00BF086840F455
:101E2000007008601C6030BD140800482804004899
:101E3000164A10B51068164983B2086840F400705D
:101E40000860086840F48070086011481038046821
:101E500044F020040460222414600C6844F0200440
:101E60000C6000BF00BF00BF016841F020010160AD
:101E7000016841F48071016000BF00BF00BF0168CC
:101E800041F400710160136010BD000014080048A7
:101E90002804004870B51A4C22681A4B95B21A688B
:101EA00042F400721A601A6842F480721A60154A8D
:101EB000103A166846F0200616602060186840F058
:101EC0002000186000BF00BF00BF106840F0200075
:101ED0001060106840F4807010602160186840F055
:101EE0002000186000BF00BF00BF106840F0200055
:101EF0001060106840F480701060256070BD0000B4
:101F0000140800482804004870B586B014216846BB
:101F1000FEF726FB1C48C16C41F00401C164C16C92
:101F200001F004010591C16C41F00801C164C06C6D
:101F3000012500F008000590042000900024CDE960
:101F40000154124E694630460394FEF727FC0122E5
:101F500004213046FEF706FD00F0CCFC0090CDE9F0
:101F6000015403940A4C014601222046FEF7FAFC74
:101F700069462046FEF712FC002204213046FEF797
:101F8000F1FC06B070BD000000100240000C0048DB
:101F900000080048094808B5C16C41F02001C1643F
:101FA000C16C01F020010091C16C41F00101C164DC
:101FB000C06C00F00100009008BD0000001002405D
:101FC0001FB500241548009401940294124903940B
:101FD00001604F21C0E901144FF6FF71C0E90314FD
:101FE00044618461FFF755F908B1FEF7C2FB0B4865
:101FF000FFF75BFA08B1FEF7BCFB0120CDE900401A
:1020000002940022694605480394FFF7C7F90028A7
:1020100001D0FEF7AEFB1FBD004801409400002038
:1020200010B58AB00024079408941C2168460994CE
:10203000FEF796FA15484FF08041016041F63F7176
:10204000C0E901146321C0E903148461FFF7A8FC0F
:1020500008B1FEF78EFB079407A90C480994FFF717
:10206000C9F808B1FEF785FB6020CDE900040294B1
:102070000422694605480494FFF703FC08B1FEF703
:1020800078FB0248FFF7D6FB0AB010BD48000020DD
:10209000FEE7FEE7704730B501210020FFF7FAFEAA
:1020A0004FF47A70FEF757FB00210120FFF7F2FE94
:1020B00041F290711020FFF7EDFE4FF41C516020AB
:1020C000FFF7E8FE01216120FFF7E4FE0221462030
:1020D000FFF7E0FE48F210011320FFF7DBFE48F2A5
:1020E000FE011220FFF7D6FE4FF4A0610220FFF799
:1020F000D1FE41F230010320FFF7CCFE40F2033461
:1021000021463020FFF7C6FE21463120FFF7C2FEF0
:1021100021463220FFF7BEFEE51E29463320FFF799
:10212000B9FE03213420FFF7B5FE21463520FFF725
:10213000B1FE14213620FFF7ADFE21463720FFF710
:10214000A9FE21463820FFF7A5FE21463920FFF7DA
:10215000A1FE29463A20FFF79DFE03213B20FFF711
:1021600099FE21463C20FFF795FE4FF4A0513D20FB
:10217000FFF790FE4FF400719220FFF78BFE21468F
:102180009320FFF787FE40F60D019020FFF782FEB7
:1021900041F218010320FFF77DFEBDE8304040F218
:1021A00073110720FFF776BE10B543F20801E32054
:1021B000FFF770FE1221E720FFF76CFE41F231219C
:1021C000EF20FFF767FE00210120FFF763FE4FF4C9
:1021D000E0610220FFF75EFE41F230010320FFF7CD
:1021E00059FE00210420FFF755FE40F20721082088
:1021F000FFF750FE00210920FFF74CFE00210A20C6
:10220000FFF748FE00210C20FFF744FE00210D20BF
:10221000FFF740FE00210F20FFF73CFE00211020B9
:10222000FFF738FE07211120FFF734FE00211220AE
:10223000FFF730FE00211320FFF72CFEC820FEF729
:102240009BFA41F290611020FFF724FE40F2272113
:102250001120FFF71FFE3220FEF78EFA1D211220FB
:10226000FFF718FE3220FEF787FA4FF400611320C3
:10227000FFF710FE14212920FFF70CFE0B212B2065
:10228000FFF708FE3220FEF777FA00212020FFF743
:1022900001FE00212120FFF7FDFD07213020FFF77F
:1022A000F9FD40F207713120FFF7F4FD06213220DD
:1022B000FFF7F0FD40F204713520FFF7EBFD41F62A
:1022C00004713620FFF7E6FD04213720FFF7E2FD19
:1022D00000213820FFF7DEFD40F206713920FFF7BC
:1022E000D9FD40F201713C20FFF7D4FD0F213D20C4
:1022F000FFF7D0FD00215020FFF7CCFDEF2151204A
:10230000FFF7C8FD00215220FFF7C4FD40F23F1146
:102310005320FFF7BFFD4FF41C516020FFF7BAFDBB
:1023200001216120FFF7B6FD00216A20FFF7B2FD11
:1023300000218020FFF7AEFD00218120FFF7AAFDDC
:1023400000218220FFF7A6FD00218320FFF7A2FDD8
:1023500000218420FFF79EFD00218520FFF79AFDD4
:1023600010219020FFF796FD00219220FFF792FDAB
:1023700003219320FFF78EFD4FF488719520FFF71E
:1023800089FD00219720FFF785FD00219820FFF7A8
:1023900081FD41F218010320FFF77CFDBDE81040EC
:1023A00040F273110720FFF775BD7047FEF7E6BADC
:1023B00000B593B038216846FEF7D2F814210EA874
:1023C000FEF7CEF84FF40070FEF76AFB0220C10161
:1023D0000391402104910121CDE9080100900A21D7
:1023E000CDE90A1007900C900D906846FEF7E2FCCC
:1023F00008B172B6FEE70F200E9003200F90002068
:1024000010901190129002210EA8FEF7AFFB002849
:1024100001D072B6FEE713B000BD000002480168AB
:1024200041F470010160704788ED00E00148FFF75A
:1024300003B90000940000202DE9F0430268234B0B
:10244000234D244E244C4FF08049984207D04845F4
:1024500005D0A84203D0B04201D0A04203D122F05F
:1024600070074A683A431D4FDFF874C0DFF8748084
:1024700098420DD048450BD0A84209D0B04207D0B1
:10248000A04205D0B84203D0604501D0404503D1F9
:1024900022F44075CA682A434D6922F080022A431B
:1024A00002608A68C2620A688262984207D0A042CB
:1024B00005D0B84203D0604501D0404501D109693B
:1024C000016301214161BDE8F0830000002C01405F
:1024D000000400400008004000340140004001407A
:1024E000004401400048014010B501F01F030121E4
:1024F000046A99408C430462016A9A401143016264
:1025000010BD00002DE9F043026A22F001020262D0
:10251000056A436882691C4C25F0020522400C685C
:1025200022F0030214438A68194E2A43174D194FAB
:10253000DFF864C0DFF86490A84207D0B04205D04D
:10254000B84203D0604501D0484506D122F00808C2
:10255000CA6842EA080222F00402A84207D0B04248
:1025600005D0B84203D0604501D0484505D14D693A
:1025700023F440731D438B692B4343608461496896
:1025800041630262BDE8F0838FFFFEFF002C014033
:102590000034014000400140004401400048014037
:1025A000F0B5026A22F010020262056A426883698D
:1025B000194C1B4E23400C6823F4407343EA042457
:1025C00025F020038D6843EA0513144DA84201D07D
:1025D000B04206D1CF6823F0800343EA071323F00B
:1025E0004003A8420AD0B04208D00E4DA84205D000
:1025F0000D4DA84202D00D4DA84207D14D6922F4DD
:10260000406242EA85028D6942EA85024260846145
:10261000496881630362F0BDFF8FFFFE002C01401B
:1026200000340140004001400044014000480140A6
:10263000F0B5026A22F480720262056A4368C269D8
:10264000194C1B4E22400C6822F00302144325F45F
:1026500000728D6842EA0522144DA84201D0B042B2
:1026600006D1CF6822F4006242EA072222F4806297
:10267000A8420AD0B04208D00E4DA84205D00E4D57
:10268000A84202D00D4DA84207D14D6923F4405312
:1026900043EA05138D6943EA05134360C461496841
:1026A000C1630262F0BD00008FFFFEFF002C0140FD
:1026B0000034014000400140004401400048014016
:1026C000F0B5026A22F480520262056A4268C36968
:1026D000194C1B4E23400C6823F4407343EA042436
:1026E00025F400538D6843EA0533144DA84201D008
:1026F000B04206D1CF6823F4004343EA073323F402
:102700008043A8420AD0B04208D00E4DA84205D05E
:102710000D4DA84202D00D4DA84207D14D6922F4BB
:10272000404242EA85128D6942EA85124260C461E4
:10273000496801640362F0BDFF8FFFFE002C014079
:102740000034014000400140004401400048014085
:1027500030B5026A22F480320262046A4268036D74
:10276000114D2B400D681D4324F400330C8943EABE
:1027700004430E4CA0420BD00D4CA04208D00D4C8F
:10278000A04205D00C4CA04202D00C4CA04204D177
:102790004C6922F4803242EA0422426005654968AD
:1027A0008164036230BD00008FFFFEFF002C0140FA
:1027B0000034014000400140004401400048014015
:1027C00030B5026A22F480120262046A4268036D24
:1027D000114D24F400142B400D6843EA05230D89A4
:1027E00044EA05540D4DA8420BD00D4DA84208D027
:1027F0000C4DA84205D00C4DA84202D00B4DA8426A
:1028000004D14D6922F4802242EA852242600365A8
:102810004968C164046230BDFF8FFFFE002C014097
:1028200000340140004001400044014000480140A4
:1028300070B5046A24F0010404628469056A124ECA
:10284000B0420ED0B0F1804F0BD0104EB04208D045
:102850000F4EB04205D00F4EB04202D00E4EB042E5
:1028600003D124F00304144301E044F001041A07E7
:1028700024F0F00444EA126225F00A0301F00A0190
:1028800019438261016270BD002C014000040040C8
:1028900000080040003401400040014030B5046AA7
:1028A00024F0100404628469056A24F4407444EA44
:1028B000022222F470444FF6FF7202EA03322243EE
:1028C000A02425F0A00304EA0111194382610162EA
:1028D00030BDFEE70907090E002804DB00F1E02007
:1028E00080F80014704700F00F0000F1E02080F83D
:1028F000141D7047002001464FF4807303FA01F263
:102900000243491CC9B290B20829F7D37047303846
:102910000A2801D2012070470020704710B50648F0
:1029200006A2142103680948FDF7CEFCBDE810405B
:102930000649002000F024B8080000206672657186
:1029400075656E63793A256400000000340000204C
:1029500008B5FFF7D7F90020FFF72CF94FF6FF7005
:10296000ADF80000BDF80010044801800021ADF86A
:102970000010BDF80010418008BD000000000020DC
:102980007FB505460C460846FDF7CBFDC0F11400A7
:10299000430809A008A1CDE90014CDE9023007A23F
:1029A00014210948FDF790FC04B02846BDE87040AA
:1029B0000549FFF765B9000000000000252A7325CE
:1029C00073252A730000000020000020FDF7DEFFC1
:1029D000FFF7EEFCFFF7DEFAFFF722FBFFF7F0FA56
:1029E000FFF792FAFFF7B4FF04210748FFF71EF83C
:1029F00032204107886300210448FEF789FD00BFAB
:102A0000FFF78CFFFCE70000480000209400002046
:102A10004FF04070E1EE100A704700000000000027
:102A200000000000000000000000000000000000A6
:102A30000000000000000000000000000000000096
:102A40000000000000000000000000008001800184
:102A5000800180018001800180018001800180016E
:102A600080018001800100000000800180010000E1
:102A70000000000000000000000000000000CC008A
:102A8000CC00CC00CC00CC00CC000000000000004A
:102A90000000000000000000000000000000000036
:102AA0000000000000000000000000000000000026
:102AB000000000000000600C600C600C3006300666
:102AC000FE1FFE1F300638071803FE1FFE1F1803E7
:102AD00018038C018C018C01000000008000E003D1
:102AE000F80F9C0E8C1C8C188C009800F801E007E5
:102AF000800E801C8C188C189C18B80CF00FE0030A
:102B000080008000000000000000000000000000C5
:102B10000E181B0C110C11061106110311039B0159
:102B20008E01C038C06C6044604430443044184466
:102B3000186C0C380000000000000000E001F003F9
:102B40003807180618063003F001F000F8009C3131
:102B50000E33061E061C061C063FFC73F021000007
:102B600000000000000000000000000000000C0059
:102B70000C000C000C000C000C0000000000000019
:102B80000000000000000000000000000000000045
:102B90000000000000000000000000000002000330
:102BA0008001C000C00060006000300030003000D4
:102BB0003000300030003000300060006000C000A5
:102BC000C00080010003000200000000200060003F
:102BD000C00080018001000300030006000600061B
:102BE0000006000600060006000600030003800140
:102BF0008001C00060002000000000000000000014
:102C0000000000000000C000C000D806F807E00186
:102C10003003380700000000000000000000000042
:102C200000000000000000000000000000000000A4
:102C3000000000000000800180018001800180010F
:102C4000FC3FFC3F80018001800180018001000089
:102C50000000000000000000000000000000000074
:102C60000000000000000000000000000000000064
:102C70000000000000000000000000008001800152
:102C800000010001800000000000000000000000C2
:102C90000000000000000000000000000000000034
:102CA0000000E007E0070000000000000000000056
:102CB0000000000000000000000000000000000014
:102CC0000000000000000000000000000000000004
:102CD000000000000000000000000000C000C00074
:102CE000000000000000000000000000000C000CCC
:102CF00000060006000600030003000380038001B5
:102D000080018001C000C000C000600060000000C1
:102D1000000000000000000000000000E003F007D9
:102D2000380E180C0C180C180C180C180C180C1861
:102D30000C180C180C18180C380EF007E0030000E3
:102D40000000000000000000000000000001800101
:102D5000C001F0019801880180018001800180019B
:102D600080018001800180018001800180010000DC
:102D7000000000000000000000000000E003F80F69
:102D8000180C0C180C1800180018000C0006000392
:102D90008001C000600030001800FC1FFC1F000014
:102DA000000000000000000000000000E001F80743
:102DB000180E0C0C0C0C000C0006C003C007000C15
:102DC000001800180C180C18180CF807E003000085
:102DD000000000000000000000000000000C000ED9
:102DE000000F000F800DC00C600C600C300C180C34
:102DF0000C0CFC3FFC3F000C000C000C000C000015
:102E0000000000000000000000000000F80FF80FB4
:102E1000180018000C00EC03FC071C0E001C001826
:102E2000001800180C181C0C180EF807E00300001E
:102E3000000000000000000000000000C007F00FCC
:102E4000381C181818000C00CC03EC0F3C0E1C1C8E
:102E50000C180C180C18181C380EF007E0030000B2
:102E6000000000000000000000000000FC1FFC1F2C
:102E7000000C00060006000380038001C001C000B2
:102E8000E0006000600070003000300030000000A2
:102E9000000000000000000000000000E003F00758
:102EA000380E180C180C180C3806F007F007180C20
:102EB0000C180C180C180C18380CF80FE003000054
:102EC000000000000000000000000000E003F00728
:102ED000380E1C0C0C180C180C181C1C381EF81B77
:102EE000E0190018000C000C1C0EF807F00100009F
:102EF00000000000000000000000000000000000D2
:102F000000000000000080018001000000000000BF
:102F100000000000000000000000800180010000AF
:102F200000000000000000000000000000000000A1
:102F3000000000000000800180010000000000008F
:102F4000000000000000000000008001800100017E
:102F500000018000000000000000000000000000F0
:102F6000000000000000000000000010001C800FA6
:102F7000E003F8001800F800E003800F001C0010C8
:102F80000000000000000000000000000000000041
:102F900000000000000000000000F81F000000001A
:102FA0000000F81F0000000000000000000000000A
:102FB0000000000000000000000000000000000011
:102FC0000000000000000000000008003800F001D0
:102FD000C007001F0018001FC007F00138000800DC
:102FE000000000000000000000000000E003F80FF7
:102FF000180C0C180C180018000C000600038001B7
:10300000C000C000C00000000000C000C000000000
:103010000000000000000000000000000000E007C9
:1030200018180420C229224A1144094409440944B9
:1030300009221113E20C024004201818E0070000D6
:10304000000000000000000000000000800380037A
:10305000C006C006C006600C600C3018301830186E
:10306000F83FF83F1C700C600C6006C006C0000002
:10307000000000000000000000000000FC03FC0F46
:103080000C0C0C180C180C180C0CFC07FC0F0C1872
:103090000C300C300C300C300C18FC1FFC070000FE
:1030A000000000000000000000000000C007F01F4A
:1030B00038381C300C70066006000600060006005A
:1030C0000600060006600C701C30F01FE0070000D0
:1030D000000000000000000000000000FE03FE0FE2
:1030E000060E061806180630063006300630063082
:1030F0000630063006180618060EFE0FFE03000006
:10310000000000000000000000000000FC3FFC3F49
:103110000C000C000C000C000C00FC1FFC1F0C0031
:103120000C000C000C000C000C00FC3FFC3F0000ED
:10313000000000000000000000000000F83FF83F21
:1031400018001800180018001800F81FF81F1800C1
:1031500018001800180018001800180018000000C7
:10316000000000000000000000000000E00FF83F39
:103170003C780E6006E007C00300030003FE03FE78
:1031800003C007C006C00EC03CF0F83FE00F0000CF
:103190000000000000000000000000000C300C30B7
:1031A0000C300C300C300C300C30FC3FFC3F0C3041
:1031B0000C300C300C300C300C300C300C3000006B
:1031C00000000000000000000000000080018001FD
:1031D00080018001800180018001800180018001E7
:1031E0008001800180018001800180018001000058
:1031F00000000000000000000000000000060006C3
:10320000000600060006000600060006000600068E
:1032100000060006180618063807F003E001000053
:10322000000000000000000000000000063006184A
:10323000060C060606038601C60066007600DE0060
:103240008E0106030606060C06180630066000000E
:10325000000000000000000000000000180018003E
:10326000180018001800180018001800180018009E
:1032700018001800180018001800F81FF81F0000A8
:103280000000000000000000000000000EE01EF042
:103290001EF01EF036D836D836D836D866CC66CC76
:1032A00066CCC6C6C6C6C6C6C6C686C386C300002A
:1032B0000000000000000000000000000C301C3086
:1032C0003C303C306C306C30CC30CC308C310C33FA
:1032D0000C330C360C360C3C0C3C0C380C3000001B
:1032E000000000000000000000000000E007F81FE0
:1032F0001C380E70066003C003C003C003C003C0C7
:1033000003C003C006600E701C38F81FE007000001
:10331000000000000000000000000000FC0FFC1F87
:103320000C380C300C300C300C300C18FC1FFC0727
:103330000C000C000C000C000C000C000C00000039
:10334000000000000000000000000000E007F81F7F
:103350001C380E70066003E003C003C003C003C046
:1033600003C007E006630E3F1C3CF83FE0F700C0D7
:10337000000000000000000000000000FE0FFE1F23
:1033800006380630063006300638FE1FFE070603F4
:103390000606060C06180618063006300660000001
:1033A000000000000000000000000000E003F80F33
:1033B0001C0C0C180C180C001C00F803E00F001E6D
:1033C0000038063006300E301C1CF80FE0070000F5
:1033D000000000000000000000000000FE7FFE7FF3
:1033E00080018001800180018001800180018001D5
:1033F0008001800180018001800180018001000046
:103400000000000000000000000000000C300C3044
:103410000C300C300C300C300C300C300C300C30CC
:103420000C300C300C300C301818F81FE00700007E
:1034300000000000000000000000000003600630F3
:10344000063006300C180C180C18180C180C380E16
:1034500030063006700760036003C001C001000041
:103460000000000000000000000000000360C361D5
:10347000C361C3616633663366336633663366336E
:103480006C1B6C1B6C1B2C1A3C1E380E380E00007B
:103490000000000000000000000000000FE00C70C1
:1034A00018303018700C600EC00780038003C00312
:1034B000E006700C301C18180C300E6007E000009D
:1034C00000000000000000000000000003C00660D3
:1034D0000C301C383818300C6006E007C00380013F
:1034E0008001800180018001800180018001000055
:1034F000000000000000000000000000FC7FFC7FD6
:10350000006000300018000C000600038001C000BD
:103510006000300018000C000600FE7FFE7F0000F7
:10352000000000000000000000000000E003E003D5
:10353000600060006000600060006000600060008B
:10354000600060006000600060006000600060007B
:1035500060006000E003E003000000003000300085
:10356000600060006000C000C000C000C0018001B9
:103570008001800100030003000300060006000034
:10358000000000000000000000000000E003E00375
:103590000003000300030003000300030003000313
:1035A0000003000300030003000300030003000303
:1035B00000030003E003E003000000000000C0017E
:1035C000C00160036003600330063006180C180C5D
:1035D00000000000000000000000000000000000EB
:1035E00000000000000000000000000000000000DB
:1035F00000000000000000000000000000000000CB
:10360000000000000000000000000000FFFFFFFFBE
:103610000000000000000000000000000C000C0092
:103620000C000C000C000C0000000000000000006A
:10363000000000000000000000000000000000008A
:10364000000000000000000000000000000000007A
:10365000000000000000F003F8071C0C0C0C000F29
:10366000F00FF80C0C0C0C0C1C0FF80FF0180000ED
:10367000000000000000000000000000180018001A
:10368000180018001800D803F80F380C181818186C
:103690001818181818181818380CF80FD803000044
:1036A000000000000000000000000000000000001A
:1036B000000000000000C003F007300E180C1800D6
:1036C000180018001800180C300EF007C003000096
:1036D00000000000000000000000000000180018BA
:1036E000001800180018C01BF01F301C18181818FC
:1036F0001818181818181818301CF01FC01B0000D4
:1037000000000000000000000000000000000000B9
:10371000000000000000C003F00F300C1818F81F64
:10372000F81F180018003818301CF00FC0070000F0
:10373000000000000000000000000000800FC00F2B
:10374000C000C000C000F007F007C000C000C0000B
:10375000C000C000C000C000C000C000C000000029
:103760000000000000000000000000000000000059
:10377000000000000000E00DF80F180E0C0C0C0CFF
:103780000C0C0C0C0C0C0C0C180EF80FE00D000CB3
:103790000C0C1C06F807F0010000000018001800CF
:1037A000180018001800D807F80F381C1818181837
:1037B00018181818181818181818181818180000B9
:1037C000000000000000000000000000C000C00079
:1037D000000000000000C000C000C000C000C00029
:1037E000C000C000C000C000C000C000C000000099
:1037F000000000000000000000000000C000C00049
:10380000000000000000C000C000C000C000C000F8
:10381000C000C000C000C000C000C000C000C000A8
:10382000C000C000F8007800000000000C000C0090
:103830000C000C000C000C0C0C060C038C01CC00D2
:103840006C00FC009C018C030C030C060C0C0000AB
:10385000000000000000000000000000C000C000E8
:10386000C000C000C000C000C000C000C000C00058
:10387000C000C000C000C000C000C000C000000008
:103880000000000000000000000000000000000038
:103890000000000000007C3CFF7EC7E383C183C1C1
:1038A00083C183C183C183C183C183C183C100003C
:1038B0000000000000000000000000000000000008
:1038C0000000000000009807F80F381C181818189E
:1038D0001818181818181818181818181818000098
:1038E00000000000000000000000000000000000D8
:1038F000000000000000C003F00F300C181818186A
:103900001818181818181818300CF00FC0030000F9
:1039100000000000000000000000000000000000A7
:10392000000000000000D803F80F380C1818181811
:103930001818181818181818380CF80FD803180089
:103940001800180018001800000000000000000017
:10395000000000000000C01BF01F301C18181818D1
:103960001818181818181818301CF01FC01B001849
:1039700000180018001800180000000000000000E7
:10398000000000000000B007F003700030003000BD
:1039900030003000300030003000300030000000D7
:1039A0000000000000000000000000000000000017
:1039B000000000000000E003F003380E180C38008F
:1039C000F003C007000C180C380EF007E0030000ED
:1039D0000000000000000000000000000000800067
:1039E000C000C000C000F007F007C000C000C00069
:1039F000C000C000C000C000C000C00780070000B9
:103A000000000000000000000000000000000000B6
:103A100000000000000018181818181818181818B6
:103A20001818181818181818381CF01FE01900007A
:103A30000000000000000000000000000000000086
:103A40000000000000000C18180C180C180C3006B0
:103A500030063006600360036003C001C00100004F
:103A60000000000000000000000000000000000056
:103A7000000000000000C141C141C3616363636392
:103A800063633636363636361C1C1C1C1C1C000084
:103A90000000000000000000000000000000000026
:103AA0000000000000001C38381C300C6006600369
:103AB0006003600360036006300C381C1C38000093
:103AC00000000000000000000000000000000000F6
:103AD0000000000000001830301830187018600C1A
:103AE000600CE00CC006C0068003800380038001E8
:103AF0008001C001F0007000000000000000000024
:103B0000000000000000FC1FFC1F000C000600036A
:103B10008001C000600030001800FC1FFC1F000086
:103B20000000000000000000000000000003800111
:103B3000C000C000C000C000C000C0006000600045
:103B4000300060004000C000C000C000C000C000E5
:103B5000C00080010003000000000000800180011F
:103B6000800180018001800180018001800180014D
:103B7000800180018001800180018001800180013D
:103B80008001800180018001000000006000C00011
:103B9000C0018001800180018001800100030003D9
:103BA0000006000300018001800180018001800186
:103BB0008001C00060000000000000000000000064
:103BC00000000000000000000000F010F81F080FC7
:103BD00000000000000000000000000000000000E5
:103BE00000000000000000000000000000000000D5
:103BF0000000010203040607080900001C3C00083D
:103C00000000002020000000140200083C3C0008D6
:103C10002000002020070000300200080000FFFF05
:103C20000000000000000000000000001000000084
:0C3C300001000000000000000024F4006F
:04000005080001D915
:00000001FF
