:020000040800F2
:100000005807002089020008471E0008FF18000852
:10001000451E000853070008672300080000000081
:100020000000000000000000000000005F21000848
:100030005507000800000000491E00086121000863
:10004000A3020008A3020008A3020008A3020008FC
:10005000A3020008A3020008A3020008A3020008EC
:10006000A3020008A3020008A3020008A3020008DC
:10007000A3020008A3020008A3020008A3020008CC
:10008000A302000800000000A3020008A302000869
:10009000A3020008A3020008A3020008A3020008AC
:1000A000A3020008E1210008A3020008A30200083F
:1000B000ED210008A3020008A3020008A302000823
:1000C000A3020008A3020008A3020008A30200087C
:1000D000A3020008A3020008A3020008A30200086C
:1000E000A3020008A3020008A3020008A30200085C
:1000F000A3020008A3020008A302000800000000F9
:1001000000000000A302000800000000A302000895
:10011000A302000800000000A3020008A3020008D8
:10012000A3020008A3020008A3020008A30200081B
:10013000A30200080000000000000000A302000865
:10014000A3020008A3020008000000000000000055
:10015000000000000000000000000000000000009F
:10016000000000000000000000000000A3020008E2
:10017000A3020008000000000000000000000000D2
:1001800000000000A30200080000000000000000C2
:10019000000000000000000000000000000000005F
:1001A0000000000000000000A3020008A3020008F5
:1001B000A3020008A3020008A30200080000000038
:1001C00000000000A3020008000000000000000082
:1001D000A3020008A302000800F002F800F044F8AF
:1001E0000AA090E8000C82448344AAF10107DA4592
:1001F00001D100F039F8AFF2090EBAE80F0013F0A0
:10020000010F18BFFB1A43F001031847D034000058
:10021000F0340000103A24BF78C878C1FAD85207E9
:1002200024BF30C830C144BF04680C607047000070
:100230000023002400250026103A28BF78C1FBD8EF
:10024000520728BF30C148BF0B607047642900F0D7
:10025000A580732900F03F82002070471FB502F08F
:1002600047F91FBD10B510BD00F039FA1146FFF770
:10027000F5FF02F021F900F057FA03B4FFF7F2FF9F
:1002800003BC00F05FFA00000948804709480047B6
:10029000FEE7FEE7FEE7FEE7FEE7FEE7FEE7FEE736
:1002A000FEE7FEE704480549054A064B7047000093
:1002B000D1210008D901000858010020580700206A
:1002C00058030020580300200FB41CB50C0007AAE7
:1002D000009001D02044401E074B7B4469460190AA
:1002E000069800F0C6F9002C03D06946002000F003
:1002F000D3F91CBC5DF814FBC503000070B50446BF
:1003000085690068C10601D5302600E02026C007B7
:1003100007D070BDD4E9012130469047206A401CC7
:1003200020626D1EF6D570BD70B5044685690078F3
:10033000C00707D170BDD4E9012120209047206A71
:10034000401C20626D1EF6D570BD70B50C4605468A
:10035000012A05D02878800600D5EA69002302E04A
:10036000012305E05B1C934202D2E05C0028F9D136
:10037000A869E618C01AA861286A184428622846A5
:10038000FFF7BCFF04E0D5E9012114F8010B904709
:10039000B442F8D32846FFF7C7FF70BD2DE9F041FE
:1003A0000646002410687529314616A510D0AFF313
:1003B0000080002802DA404213A507E031688A076E
:1003C00001D512A502E0490704D511A5012401E0D9
:1003D000AFF3008000210A2206F1240709E0B0FBF8
:1003E000F2FCB0FBF2F302FB1C00303078541846EC
:1003F000491C0028F3D123462A463046BDE8F04187
:1004000000F0D8B8000000002D0000002B00000014
:10041000200000002DE9F0474FF0000A894604460D
:10042000C0F820A02046E1688847002876D025281B
:1004300006D0D4E901219047206A401C2062F1E7F0
:10044000E168204600258847C4F81CA0064600271E
:10045000C4F818A02A2E09D0304601F0A2FF38B304
:1004600004EB8708303EC8F8186019E059F8041BFF
:10047000204604EB87029161E1688847012F064618
:1004800018D1E069002820DA25F020051DE0D8F811
:10049000180000EB800006EB40003038C8F8180068
:1004A0002046E1688847064601F07BFF0028EED130
:1004B000012F0AD02E2E08D12046E16888477F1CE4
:1004C0000646022F45F02005C4DBA069002803DAA8
:1004D000404245F00105A061E80701D025F0100574
:1004E000B6B1A6F14100192802D8203645F40065BE
:1004F0004A463146204625604D46FFF7A7FE58B1D3
:10050000012806D0ED1D25F0070000F1080989E754
:1005100004E005F1040985E730468AE7206ABDE872
:10052000F08710B5431C02E010F8011B71B1810780
:10053000FAD14FF0013202C88C1A8C4314EAC2116E
:10054000F9D0C01A0A0603D0C01E10BDC01A10BDD3
:100550000A0401D0801E10BD0902FCD0401E10BD4F
:100560004FF0000200B5134694469646203922BF4C
:10057000A0E80C50A0E80C50B1F12001BFF4F7AF97
:10058000090728BFA0E80C5048BF0CC05DF804EB79
:10059000890028BF40F8042B08BF704748BF20F8E7
:1005A000022B11F0804F18BF00F8012B70477047E5
:1005B000704770472DE9F0470D469946924604462C
:1005C00000F124080168880604D5E06921F01001D3
:1005D000216000E00120A84201DD471B00E0002768
:1005E000A1697A1902EB0900081AA0612078C006F7
:1005F00002D42046FFF782FE002608E0D4E901215C
:100600001AF806009047206A401C761C20624E456E
:10061000F4DB2078C0060AD52046FFF76FFE06E01F
:10062000D4E9012130209047206A401C2062381E06
:10063000A7F10107F4DC07E0D4E9012118F805006F
:100640009047206A401C2062281EA5F10105F3DCBA
:100650002046FFF769FE2078000602D50220BDE89B
:10066000F0870120FBE7000001694A1C026108785D
:10067000704700B58FB0CDE90131002105910549E2
:100680007944CDE9031011466846FFF7C3FE0FB069
:1006900000BD0000E5FFFFFF0A6802F8010B0A60D9
:1006A0007047D1E900239A4202D2531C0B601070AC
:1006B000704710B5436913B1AFF3008001E0FFF755
:1006C00044FE012010BD127800F124010A700022BE
:1006D0004A700122EDE711684FF0FF32E9E77546F5
:1006E00000F02CF8AE4605006946534620F007009E
:1006F000854618B020B5FFF7D5FDBDE820404FF086
:1007000000064FF000074FF000084FF0000B21F0FB
:100710000701AC46ACE8C009ACE8C009ACE8C009C8
:10072000ACE8C0098D46704710B50446AFF30080B1
:100730002046BDE81040FFF7A0BD0000004870470C
:10074000F400002001491820ABBEFEE7260002009D
:100750007047FEE77047002240F6B83306E00021FC
:10076000491C89B29942FBD3521C92B28242F6D301
:10077000704772B6FEE7000070B5044600F0F8F866
:100780000546601C02D004484068044400F0F0F8BC
:10079000401BA042FAD370BD240000202DE9FC4F7D
:1007A000DFF8A0A1002301250AF1040B03244FF078
:1007B0000F0C0BF1040EBDE005FA03F632406FD0CA
:1007C0004F68012F05D0022F03D0112F01D0122F17
:1007D00017D1D0F808905F0004FA07F829EA080951
:1007E0000097D1F80C8008FA07F848EA0908C0F821
:1007F00008804768B7430E79C6F300169E403E4313
:100800004660C6684FEA430804FA08F7BE430197FA
:100810008F6807FA08F73743C7604E68022E01D089
:10082000122E13D1DE0800EB86060096366A5F07AB
:10083000FF0E0CFA07F926EA0906D1F8109009FA1A
:1008400007F949EA0609009EC6F820900668019F4C
:10085000BE430F7907F0030707FA08F7374307602D
:100860004E68F60065D5384E376E47F0010737669B
:10087000366E23F0030706F001060096334E3E4421
:10088000B146B6689F074FEA17780CFA08F7BE43DF
:10089000B0F1904F05D02E4FB84204D1012717E098
:1008A00047E0002714E02B4FB84201D102270FE0A8
:1008B000294FB84201D103270AE0284FB84201D19D
:1008C000042705E0264FB84201D1052700E006279E
:1008D00007FA08F73743C9F80870DAF80060574696
:1008E000D1F8048096435FEAC83800D516433E60CD
:1008F000DBF800605F46D1F8048096435FEA8838F1
:1009000000D516433E60DEF800607746D1F80480DB
:1009100096435FEAC82800D516433E60094F0C375E
:100920003E68D1F8048096435FEA882800D51643D4
:100930003E605B1C0A6832FA03F67FF43DAFBDE807
:10094000FC8F000000040140001002400000014044
:100950000004004800080048000C0048001000484F
:10096000001400480AB1816170478162704700003D
:100970000148806870470000240000200248816818
:1009800042681144816070472400002010B50024A3
:10099000032000F073F80F2000F008F808B10124DC
:1009A00001E000F025F8204610BD000070B50E4EA5
:1009B00005460024706898B14FF47A71B1FBF0F0ED
:1009C0000A490968B1FBF0F000F0FAFB40B9102DBC
:1009D00006D200222946501E00F030F8356000E0B3
:1009E0000124204670BD00002400002030000020BB
:1009F0000A4882B0016E41F001010166016E01F00A
:100A000001010091816D41F080518165806D00F0A0
:100A10008050009002B000F0A1B800000010024029
:100A2000002809DB00F01F020121914040098000ED
:100A300000F1E020C0F8001170470000F0B40E4B48
:100A40001B680C46C3F30223C3F10705042D00D92C
:100A50000425191D072901D2002300E0DB1E012611
:100A600006FA05F1491E214099409E40761E164027
:100A70003143F0BC01F078BC0CED00E0064900F019
:100A8000070208684FF6FF03184040EA0220034AB5
:100A900010430860704700000CED00E00000FA050C
:100AA0002B492C4B0A6832214A432B4940B1B0F5FF
:100AB000007F086829D020F4C06040F480602CE0FA
:100AC0000868C0F34120022804D051F8800F20F4B8
:100AD000807022E0D1F8800020F48070C1F880009E
:100AE000086820F4C06040F400700860B2FBF3F0C6
:100AF000401C00E0401E4A69520501D50028F9D18A
:100B0000486940050AD503207047C0F341200228F8
:100B100006D051F8800F40F48070086000207047C4
:100B2000D1F8800040F48070C1F88000086820F49B
:100B3000C06040F400700860B2FBF3F0401C00E0BD
:100B4000401E4A695205DBD50028F9D1D8E70000DC
:100B50003000002040420F000070004002488168D1
:100B600041F4804181607047007000402DE9F047FA
:100B70000E4605004FF0000725D0DFF8AC81D8F80D
:100B8000000000F00F00B0420CD2D8F8001021F0A5
:100B90000F013143C8F80010D8F8000000F00F0032
:100BA000B04210D12968614CC80741F2883A5AD046
:100BB0006868DFF87C91032808D0022820682DD0CF
:100BC000400500282CDB0120BDE8F087206880016B
:100BD000F9D5E06800F00302E068C0F30310401CA0
:100BE000032A19D0534A00BFB2FBF0F0E268C2F307
:100BF00006225043E268C2F34162521C5200B0FB2D
:100C0000F2F0484517D9A06810F0F00F0CD0880713
:100C100011D5A86840B10EE0474AE5E78003D0E768
:100C200000F092F8484506D9A06820F0F00040F0A6
:100C30008000A0608027A068696820F00300084356
:100C4000A060FFF795FE814606E000BFFFF790FE2B
:100C5000A0EB090151453AD8A068696800F00C0082
:100C6000B0EB810FF2D12868810714D5400703D576
:100C7000A06840F4E060A0602878000705D5A0686F
:100C800020F4605040F4E060A060A068A96820F003
:100C9000F000084304E0802F03D1A06820F0F000AA
:100CA000A060D8F80010404601F00F01B14216D9FB
:100CB000016821F00F0131430160FFF759FE07463B
:100CC00007E000BFFFF754FEC11B514501D90320C7
:100CD0007AE7D8F8000000F00F00B042F2D128788F
:100CE000400705D5A068E96820F4E0600843A060EB
:100CF0002878000706D5A068296920F4605040EAEA
:100D0000C100A06000F020F8A1680C4AC1F30311F3
:100D1000515C01F01F01C84009490860094800689A
:100D2000BDE8F047FFF742BE00200240001002403D
:100D300000B4C4040024F40000127A00CA3600088B
:100D40003000002024000020184910B58868C0F346
:100D500081021748012A0BD08A684310C2F381022E
:100D6000022A06D08A68C2F38102032A03D0002037
:100D700010BD184610BDCA6802F00304CA68C2F369
:100D80000312521C032C02D0B0FBF2F001E0B3FBC3
:100D9000F2F0CA68C968C2F306225043C1F3416148
:100DA000491C4900B0FBF1F010BD000000100240EA
:100DB0000024F4002DE9F84304007AD02078FA4D9D
:100DC000C00747D0A868E96800F00C0001F00301F3
:100DD0000C2802D0082817D001E0032914D060683D
:100DE000B0F5803F17D0B0F5A02F286817D020F4B9
:100DF00080302860286820F4802028606068E0B196
:100E0000FFF7B6FD064614E02868800322D5606827
:100E10000028D2D01EE0286840F48030EDE740F48E
:100E200080202860F7E700BFFFF7A2FD801B642841
:100E300070D828688003F7D50CE0FFF799FD0646C7
:100E400005E000BFFFF794FD801B6428F0D82868F8
:100E50008003F7D4207880074CD5A868E96800F0B3
:100E60000C0001F003010C2802D004280DD001E091
:100E700002290AD0E068002828682BD040F480704E
:100E80002860FFF775FD064619E02868400502D581
:100E9000E068002891D06868217C20F0FE4040EA9C
:100EA00001606860C1480068FFF780FD002800D13C
:100EB00020E076E1FFF75CFD801B0228B8D82868A7
:100EC0004005F7D56868217C20F0FE4040EA0160CB
:100ED00068600FE020F480702860FFF749FD064647
:100EE00005E000BFFFF744FD801B0228A0D828685A
:100EF0004005F7D42078000729D560690028D5F887
:100F0000940013D040F00100C5F89400FFF730FDC5
:100F1000064606E090E000BFFFF72AFD801B02288E
:100F200086D8D5F894008007F6D510E020F00100AF
:100F3000C5F89400FFF71CFD064604E0FFF718FD16
:100F4000801B022878D8D5F894008007F6D4207842
:100F5000400761D5A86D0026C00008D4A86D40F0F8
:100F60008050A865A86D012600F080500090904840
:100F70000168C90511D40168804641F4807101609F
:100F8000FFF7F6FC074604E0FFF7F2FCC01B02285F
:100F900052D8D8F80000C005F6D5A068012815D0B1
:100FA0000528D5F8900016D020F00100C5F8900073
:100FB000D5F8900020F00400C5F89000A06841F238
:100FC0008838B8B1FFF7D4FC07460EE0D5F890009A
:100FD00040F00100F0E740F00400C5F89000F5E7AC
:100FE000FFF7C6FCC11B414526D8D5F89000800705
:100FF000F6D50CE0FFF7BCFC074604E0FFF7B8FCB1
:10100000C11B414518D8D5F890008007F6D41EB111
:10101000A86D20F08050A8652078800629D5A069A9
:101020000028D5F8980013D040F00100C5F89800CA
:10103000FFF79EFC064606E077E000BFFFF798FC4E
:10104000801B022877D8D5F898008007F6D510E0E5
:1010500020F00100C5F89800FFF78AFC064604E07E
:10106000FFF786FC801B022865D8D5F8980080071A
:10107000F6D4E069F0B3A968C1F38101032961D016
:101080000228286820F0807028600BD0E86820F0E3
:101090000300E860E86847490840E860FFF768FC3B
:1010A00004464BE0FFF764FC064604E0FFF760FCF3
:1010B000801B02283FD828688001F7D4F4E9080192
:1010C0006FF00F0202EB01110843218A5204490814
:1010D00002EB4151A26841EA02210843217D4FF011
:1010E0007E42490802EB41610843217B40EAC1602E
:1010F000E96800E062E0304A11400843E86028688F
:1011000040F080702860E86840F08070E860FFF789
:101110002FFC044605E000BFFFF72AFC001B022855
:1011200009D828688001F7D548E004E0FFF720FCE3
:10113000001B022802D90320BDE8F883286880013B
:10114000F4D43BE00128F7D0E868226A00F00301FC
:10115000914226D1616A00F0F002090110399142F2
:101160001FD1A26A00F4FE41B1EB022F19D194F80D
:101170002C2000F07841B1EBC26F12D1218E00F427
:10118000C00249084905A1F50011914209D194F81E
:10119000341000F0C06049084906A1F10071814295
:1011A0000CD00120C8E700000010024024000020FD
:1011B00000700040FFFFEEFE0C809F010020BBE7A7
:1011C00010B5401EB0F1807F01D3012010BD4FF05B
:1011D000E02460610F21601701F0C6F80020A061D3
:1011E00007202061002010BD70477047704770478E
:1011F00070477047F0B590F83C20012A3AD001259D
:1012000080F83C50022280F83D2003685A689C68B0
:10121000194E1A4FB34201D0BB4204D122F4700CD4
:101220004A6842EA0C02DFF858C002EA0C02D1F820
:1012300000C04CEA020CC3F804C00268B2420DD0F0
:10124000B2F1804F0AD00F4B9A4207D00E4B9A4210
:1012500004D0BA4202D00D4B9A4204D1896824F0DE
:1012600080031943916080F83D50002180F83C10C4
:101270000846F0BD0220F0BD002C014000340140C2
:101280008FFFFFFD000400400008004000400140C7
:10129000704710B5040003D094F83D0010B107E08A
:1012A000012010BD002084F83C00204600F022F808
:1012B000022084F83D00211D206800F09DFF0120E0
:1012C00084F8480084F83E0084F83F0084F8400029
:1012D00084F8410084F8420084F8430084F8440014
:1012E00084F8450084F8460084F8470084F83D00FF
:1012F000002010BD10B586B0044614216846FFF7E3
:101300002FF916492068884225D11548016E41F40D
:1013100000310166016E01F400310591C16C41F0AC
:101320000201C164C06C694600F002000590102003
:101330000090022001900020029003900120049070
:101340000848FFF72BFA002211461920FFF776FB19
:101350001920FFF765FB06B010BD000000440140F6
:10136000001002400004004870B50446002100F05F
:10137000B0FA21680546002048622068104EB0F19E
:10138000804F0AD1FFF7E0FC01466068401C6843CB
:10139000B1FBF0F0B06001F00BF80A492068884218
:1013A0000CD1FFF7D1FC01466068401C6843B1FBDB
:1013B000F0F07060BDE8704000F0FABF70BD000052
:1013C00000000020004401402DE9F041054690F85E
:1013D0003C000C46012836D0012085F83C008AB339
:1013E000042A42D02868082A51D0D4E90023E168B1
:1013F000066A26F480560662C669076A26F44076B5
:1014000046EA03234FF6FF7606EA013123F47043E0
:1014100019434FF4204627F4204306EA02321A43C8
:10142000C16102622868C16921F44061C161286814
:10143000C169A26841EA0221C161002085F83C002F
:10144000BDE8F08101E00220FAE7D4E90012E36888
:10145000286800F037FF2868816921F00C0181615C
:1014600028688169A26811430FE0D4E90012E3689B
:10147000286800F05DFF2868816921F4406181617E
:1014800028688169A26841EA02218161D5E7D4E92F
:101490000027267B016A21F480710162C169036A19
:1014A00021F00301394321F0F00731074FF42066A2
:1014B00047EA116123F4206306EA02221A43C1615C
:1014C00002622868C16921F00C01C1612868C16904
:1014D000A2681143B0E710B5040003D094F83D00B2
:1014E00010B107E0012010BD002084F83C00204628
:1014F00000F022F8022084F83D00211D206800F051
:101500007BFE012084F8480084F83E0084F83F0008
:1015100084F8400084F8410084F8420084F84300D5
:1015200084F8440084F8450084F8460084F84700B5
:1015300084F83D00002010BD10B586B0044614218B
:101540006846FFF70DF82068B0F1804F27D11548A5
:10155000816D41F001018165816D01F0010105910D
:10156000C16C41F00101C164C06C694600F001002A
:1015700005904FF40040009002200190002002905E
:101580000390012004904FF09040FFF707F90022EC
:1015900011461C20FFF752FA1C20FFF741FA06B053
:1015A00010BD00000010024010B5044679B10429B6
:1015B00012D0082915D00C2918D0102919D094F868
:1015C000430000BF94F84720012817D114E094F895
:1015D0003E0094F84420F7E794F83F0094F8452043
:1015E000F2E794F8400094F84620EDE794F84100C3
:1015F000E8E794F84200E5E7012A01D0012010BD98
:10160000022071B1042915D008291CD00C2948D01A
:10161000102949D084F8430084F847000C291BD1D5
:1016200045E084F83E0084F844002068C26842F037
:10163000020210E084F83F0084F845002068C26888
:1016400042F0040207E084F8400084F84600206875
:10165000C26842F00802C2600122206800F024FE45
:101660001549206888420ED0B0F1804F0BD0134945
:10167000884208D01249884205D01249884202D0D7
:101680001149884207D18168104A1140062906D0C5
:10169000B1F5803F03D0016841F0010101600020F5
:1016A00010BD84F84100B7E784F84200B4E7206831
:1016B000C26842F01002CEE7002C01400004004056
:1016C00000080040003401400040014007000100D4
:1016D00070B50446006801694FF00005C9438907E9
:1016E00015D4C168C943890711D4E91E01610120DD
:1016F0002077206880698007204602D0FFF734FEFB
:1017000004E000F0E3F8204600F0E1F825772068D7
:101710000169C943490717D4C168C943490713D4AC
:101720006FF004010161022020772068806910F4C5
:10173000407F204602D0FFF717FE04E000F0C6F815
:10174000204600F0C4F8257720680169C9430907DD
:1017500016D4C168C943090712D46FF008010161AA
:10176000042020772068C0698007204602D0FFF758
:10177000FBFD04E000F0AAF8204600F0A8F8257769
:1017800020680169C943C90617D4C168C943C9069D
:1017900013D46FF010010161082020772068C06920
:1017A00010F4407F204602D0FFF7DEFD04E000F099
:1017B0008DF8204600F08BF8257720680169C94331
:1017C000C90708D1C168C943C90704D1891E01618D
:1017D000204600F07DF820680169C943090609D454
:1017E000C168C943090605D46FF080010161204634
:1017F000FFF7FBFC20680169C943C90509D4C1682A
:10180000C943090605D46FF4807101612046FFF7D2
:10181000EBFC20680169C943490609D4C168C94382
:10182000490605D46FF040010161204600F066F8DA
:1018300020680169C943890609D4C168C94389067A
:1018400005D46FF0200101612046FFF7CFFC20682E
:101850000169C943C90209D4C168C943C90205D491
:101860006FF4801101612046FFF7C2FC2068016916
:10187000C943890209D4C168C943890205D46FF4F8
:10188000001101612046FFF7B2FC20680169C943DD
:10189000490209D4C168C943490205D46FF48001E3
:1018A00001612046FFF7A5FC20680169C9430902D0
:1018B0000BD4C168C943090207D46FF40001016168
:1018C0002046BDE87040FFF7E3BC70BD704770472D
:1018D00070470246002041B1042909D008290AD0E6
:1018E0000C2901D11068006C70471068406B70477C
:1018F0001068806B70471068C06B70477047FEE7D8
:1019000000B585B014216846FEF72AFE4FF6FF7039
:10191000009000200321CDE90201019069460248B0
:10192000FEF73CFF05B000BD0008004800B585B0DB
:1019300014216846FEF714FE4FF6FF700090012058
:101940000190032003900020029069460248FEF7B0
:1019500025FF05B000BD00000008004870B5002458
:1019600006462146204600F0FBF800F035F94FF41A
:101970009635304600F000F9641CAC42F9D370BDD6
:1019800030B587B014216846FEF7EAFD1E48C16CE9
:1019900041F00401C164C16C01F004010591C16C06
:1019A00041F00101C164C16C01F001010591C16CFC
:1019B00041F00201C164C06C012500F002000590F5
:1019C0004FF44870CDE90005002403946946029461
:1019D0000E48FEF7E3FE280203940090CDE901547F
:1019E0004FF0904469462046FEF7D8FEFFF79EFF71
:1019F000A06940F48070A06104481830016841F487
:101A00000871016007B030BD0010024000040048BA
:101A1000203AD2B2034B02EB420203EB021200F077
:101A200019B80000FA240008F0B50E460746002554
:101A300040F23F1407E021463846FFF7E9FF103C2B
:101A40006D1CA4B2761C3278002A01D0142DF2D37A
:101A5000F0BD00002DE9F04791468A460026044675
:101A600000F07EF8DFF84080012700BF00F0B4F8F6
:101A70005FF0000539F8160007FA05F10842404604
:101A800001D1408800E0008800F076F86D1C102D30
:101A9000F0D3641CE4B25146204600F061F8761C95
:101AA000182EE3D3BDE8F0871C00002010B5FFF727
:101AB00067FF002000F014F8084CA080A088A0F573
:101AC0000241303906D000F049FA002000F008F851
:101AD000A08010BD00F0B9F9F7E700001C0000205D
:101AE00070B51D490A6842F400720A600A6842F43F
:101AF00080720A60184C103C226842F0200222607A
:101B0000164A1060086840F02000086000BF00BF5F
:101B100000BF206840F020002060206840F4807002
:101B20002060FFF7EDFE4FF09041886A40F480702E
:101B3000886200BF00BF00BF0848001F006885B270
:101B4000886940F480708861FFF7F0FE206840F4F7
:101B500000702060284670BD280400481408004822
:101B600010B50C460146202000F068F82146BDE87B
:101B70001040212000F062B830B5154B1968154AA5
:101B80008CB2116841F400711160124910390D686E
:101B900045F480750D600D6845F020050D601860F6
:101BA000106840F02000106000BF00BF00BF086850
:101BB00040F020000860086840F48070086000BFB2
:101BC00000BF00BF086840F4007008601C6030BDB2
:101BD0001408004828040048164A10B51068164931
:101BE00083B2086840F400700860086840F48070B0
:101BF000086011481038046844F02004046022246E
:101C000014600C6844F020040C6000BF00BF00BFEB
:101C1000016841F020010160016841F480710160B8
:101C200000BF00BF00BF016841F400710160136094
:101C300010BD0000140800482804004870B51A4C74
:101C400022681A4B95B21A6842F400721A601A6838
:101C500042F480721A60154A103A166846F020065F
:101C600016602060186840F02000186000BF00BFB8
:101C700000BF106840F020001060106840F48070D1
:101C800010602160186840F02000186000BF00BF9D
:101C900000BF106840F020001060106840F48070B1
:101CA0001060256070BD000014080048280400483A
:101CB00070B586B014216846FEF752FC1C48C16C12
:101CC00041F00401C164C16C01F004010591C16CD3
:101CD00041F00801C164C06C012500F008000590C6
:101CE000042000900024CDE90154124E694630468C
:101CF0000394FEF753FD012204213046FEF732FE25
:101D000000F042FB0090CDE9015403940A4C0146D7
:101D100001222046FEF726FE69462046FEF73EFDDC
:101D2000002204213046FEF71DFE06B070BD000003
:101D300000100240000C0048000800480D4808B59B
:101D4000C16C41F02001C164C16C01F0200100911F
:101D5000C16C41F00101C164C16C01F0010100914D
:101D6000C16C41F00201C164C06C00F0020000903F
:101D700008BD0000001002401FB500241548009463
:101D8000019402941249039401604F21C0E90114A7
:101D90004FF6FF71C0E9031444618461FFF779FADB
:101DA00008B1FEF7E6FC0B48FFF795FB08B1FEF71C
:101DB000E0FC0120CDE9004002940022694605487C
:101DC0000394FFF701FB002801D0FEF7D2FC1FBDF2
:101DD000004401408000002010B588B0002418485D
:101DE0000594069404940094019402944FF0804169
:101DF000039401604F21C0E90114611EC0E903147E
:101E00008461FFF768FB08B1FEF7B3FC049404A9F2
:101E10000B480694FFF7EEF908B1FEF7AAFC012083
:101E2000CDE9004002940022694605480394FFF77B
:101E3000CBFA002801D0FEF79CFC08B010BD0000D2
:101E400034000020FEE7FEE7704730B50121002096
:101E5000FFF7F4FE4FF47A70FEF77DFC00210120BD
:101E6000FFF7ECFE41F290711020FFF7E7FE4FF410
:101E70001C516020FFF7E2FE01216120FFF7DEFE2A
:101E800002214620FFF7DAFE48F210011320FFF787
:101E9000D5FE48F2FE011220FFF7D0FE4FF4A061FC
:101EA0000220FFF7CBFE41F230010320FFF7C6FE10
:101EB00040F2033421463020FFF7C0FE2146312096
:101EC000FFF7BCFE21463220FFF7B8FEE51E29468B
:101ED0003320FFF7B3FE03213420FFF7AFFE214686
:101EE0003520FFF7ABFE14213620FFF7A7FE214671
:101EF0003720FFF7A3FE21463820FFF79FFE21463B
:101F00003920FFF79BFE29463A20FFF797FE032171
:101F10003B20FFF793FE21463C20FFF78FFE4FF456
:101F2000A0513D20FFF78AFE4FF400719220FFF789
:101F300085FE21469320FFF781FE40F60D0190209B
:101F4000FFF77CFE41F218010320FFF777FEBDE8A2
:101F5000304040F273110720FFF770BE10B543F216
:101F60000801E320FFF76AFE1221E720FFF766FE73
:101F700041F23121EF20FFF761FE00210120FFF740
:101F80005DFE4FF4E0610220FFF758FE41F23001A0
:101F90000320FFF753FE00210420FFF74FFE40F21D
:101FA00007210820FFF74AFE00210920FFF746FE1F
:101FB00000210A20FFF742FE00210C20FFF73EFE21
:101FC00000210D20FFF73AFE00210F20FFF736FE1B
:101FD00000211020FFF732FE07211120FFF72EFE0F
:101FE00000211220FFF72AFE00211320FFF726FE12
:101FF000C820FEF7C1FB41F290611020FFF71EFEE2
:1020000040F227211120FFF719FE3220FEF7B4FB22
:102010001D211220FFF712FE3220FEF7ADFB4FF418
:1020200000611320FFF70AFE14212920FFF706FEA6
:102030000B212B20FFF702FE3220FEF79DFB002133
:102040002020FFF7FBFD00212120FFF7F7FD0721EE
:102050003020FFF7F3FD40F207713120FFF7EEFD6E
:1020600006213220FFF7EAFD40F204713520FFF728
:10207000E5FD41F604713620FFF7E0FD042137202D
:10208000FFF7DCFD00213820FFF7D8FD40F2067194
:102090003920FFF7D3FD40F201713C20FFF7CEFD60
:1020A0000F213D20FFF7CAFD00215020FFF7C6FD9C
:1020B000EF215120FFF7C2FD00215220FFF7BEFDA6
:1020C00040F23F115320FFF7B9FD4FF41C5160203F
:1020D000FFF7B4FD01216120FFF7B0FD00216A2068
:1020E000FFF7ACFD00218020FFF7A8FD0021812033
:1020F000FFF7A4FD00218220FFF7A0FD002183202F
:10210000FFF79CFD00218420FFF798FD002185202A
:10211000FFF794FD10219020FFF790FD0021922001
:10212000FFF78CFD03219320FFF788FD4FF48871A2
:102130009520FFF783FD00219720FFF77FFD002109
:102140009820FFF77BFD41F218010320FFF776FD91
:10215000BDE8104040F273110720FFF76FBD7047D4
:10216000FEF70CBC00B593B038216846FEF7F8F9CD
:1021700014210EA8FEF7F4F94FF40070FEF790FC5E
:102180000220C1010391402104910121CDE9080100
:1021900000900A21CDE90A1007900C900D90684636
:1021A000FEF708FE08B172B6FEE70F200E9003207E
:1021B0000F90002010901190129002210EA8FEF7AF
:1021C000D5FC002801D072B6FEE713B000BD0000B8
:1021D0000248016841F470010160704788ED00E039
:1021E0000148FFF775BA0000800000200148FFF7A2
:1021F0006FBA0000340000202DE9F0430268234B41
:10220000234D244E244C4FF08049984207D0484536
:1022100005D0A84203D0B04201D0A04203D122F0A1
:1022200070074A683A431D4FDFF874C0DFF87480C6
:1022300098420DD048450BD0A84209D0B04207D0F3
:10224000A04205D0B84203D0604501D0404503D13B
:1022500022F44075CA682A434D6922F080022A435D
:1022600002608A68C2620A688262984207D0A0420D
:1022700005D0B84203D0604501D0404501D109697D
:10228000016301214161BDE8F0830000002C0140A1
:1022900000040040000800400034014000400140BC
:1022A000004401400048014010B501F01F03012126
:1022B000046A99408C430462016A9A4011430162A6
:1022C00010BD000070B5046A24F001040462846942
:1022D000056A124EB0420ED0B0F1804F0BD0104EB6
:1022E000B04208D00F4EB04205D00F4EB04202D0DF
:1022F0000E4EB04203D124F00304144301E044F035
:1023000001041A0724F0F00444EA126225F00A03DB
:1023100001F00A0119438261016270BD002C014085
:10232000000400400008004000340140004001402B
:1023300030B5046A24F0100404628469056A24F448
:10234000407444EA022222F470444FF6FF7202EA1B
:1023500003322243A02425F0A00304EA011119430B
:102360008261016230BDFEE70907090E002804DB27
:1023700000F1E02080F80014704700F00F0000F139
:10238000E02080F8141D7047002001464FF4807350
:1023900003FA01F20243491CC9B290B20829F7D3EB
:1023A000704730380A2801D201207047002070475A
:1023B00010B5184C2088401C83B223806168E06807
:1023C0004218E260A1682069014443F69820216127
:1023D00083421ED1B2FBF0F3B1FBF0F0C4E905304B
:1023E0000020E060206120800BA214210E48FDF740
:1023F0006BFF0D49002000F039F80CA214210A48A7
:10240000A369FDF761FFBDE810400749182000F0FF
:102410002DB810BD0000002066726571313A20258C
:102420006420487A00000000CC00002066726571CC
:10243000323A20256420487A0000000008B5FFF7F2
:1024400035FB0020FFF78AFA4FF6FF70ADF8000069
:10245000BDF80010044801800021ADF80010BDF85F
:102460000010418008BD00001C0000207FB505461B
:102470000C460846FEF755F8C0F11400430809A0C1
:1024800008A1CDE90014CDE9023007A214210948C2
:10249000FDF71AFF04B02846BDE870400549FFF774
:1024A000C3BA000000000000252A732573252A7393
:1024B00000000000E0000020FEF768FAFFF752FE7F
:1024C000FFF73CFCFFF788FCFFF756FCFFF7F0FB3B
:1024D000FFF7B4FF00210448FFF766F80021034826
:1024E000FFF762F8FEE700003400002080000020C3
:1024F0004FF04070E1EE100A70470000000000004D
:1025000000000000000000000000000000000000CB
:1025100000000000000000000000000000000000BB
:1025200000000000000000000000000080018001A9
:102530008001800180018001800180018001800193
:102540008001800180010000000080018001000006
:102550000000000000000000000000000000CC00AF
:10256000CC00CC00CC00CC00CC000000000000006F
:10257000000000000000000000000000000000005B
:10258000000000000000000000000000000000004B
:10259000000000000000600C600C600C300630068B
:1025A000FE1FFE1F300638071803FE1FFE1F18030C
:1025B00018038C018C018C01000000008000E003F6
:1025C000F80F9C0E8C1C8C188C009800F801E0070A
:1025D000800E801C8C188C189C18B80CF00FE0032F
:1025E00080008000000000000000000000000000EB
:1025F0000E181B0C110C11061106110311039B017F
:102600008E01C038C06C604460443044304418448B
:10261000186C0C380000000000000000E001F0031E
:102620003807180618063003F001F000F8009C3156
:102630000E33061E061C061C063FFC73F02100002C
:1026400000000000000000000000000000000C007E
:102650000C000C000C000C000C000000000000003E
:10266000000000000000000000000000000000006A
:102670000000000000000000000000000002000355
:102680008001C000C00060006000300030003000F9
:102690003000300030003000300060006000C000CA
:1026A000C000800100030002000000002000600064
:1026B000C000800180010003000300060006000640
:1026C0000006000600060006000600030003800165
:1026D0008001C00060002000000000000000000039
:1026E000000000000000C000C000D806F807E001AC
:1026F0003003380700000000000000000000000068
:1027000000000000000000000000000000000000C9
:102710000000000000008001800180018001800134
:10272000FC3FFC3F800180018001800180010000AE
:102730000000000000000000000000000000000099
:102740000000000000000000000000000000000089
:102750000000000000000000000000008001800177
:1027600000010001800000000000000000000000E7
:102770000000000000000000000000000000000059
:102780000000E007E007000000000000000000007B
:102790000000000000000000000000000000000039
:1027A0000000000000000000000000000000000029
:1027B000000000000000000000000000C000C00099
:1027C000000000000000000000000000000C000CF1
:1027D00000060006000600030003000380038001DA
:1027E00080018001C000C000C000600060000000E7
:1027F000000000000000000000000000E003F007FF
:10280000380E180C0C180C180C180C180C180C1886
:102810000C180C180C18180C380EF007E003000008
:102820000000000000000000000000000001800126
:10283000C001F001980188018001800180018001C0
:102840008001800180018001800180018001000001
:10285000000000000000000000000000E003F80F8E
:10286000180C0C180C1800180018000C00060003B7
:102870008001C000600030001800FC1FFC1F000039
:10288000000000000000000000000000E001F80768
:10289000180E0C0C0C0C000C0006C003C007000C3A
:1028A000001800180C180C18180CF807E0030000AA
:1028B000000000000000000000000000000C000EFE
:1028C000000F000F800DC00C600C600C300C180C59
:1028D0000C0CFC3FFC3F000C000C000C000C00003A
:1028E000000000000000000000000000F80FF80FDA
:1028F000180018000C00EC03FC071C0E001C00184C
:10290000001800180C181C0C180EF807E003000043
:10291000000000000000000000000000C007F00FF1
:10292000381C181818000C00CC03EC0F3C0E1C1CB3
:102930000C180C180C18181C380EF007E0030000D7
:10294000000000000000000000000000FC1FFC1F51
:10295000000C00060006000380038001C001C000D7
:10296000E0006000600070003000300030000000C7
:10297000000000000000000000000000E003F0077D
:10298000380E180C180C180C3806F007F007180C45
:102990000C180C180C180C18380CF80FE003000079
:1029A000000000000000000000000000E003F0074D
:1029B000380E1C0C0C180C180C181C1C381EF81B9C
:1029C000E0190018000C000C1C0EF807F0010000C4
:1029D00000000000000000000000000000000000F7
:1029E00000000000000080018001000000000000E5
:1029F00000000000000000000000800180010000D5
:102A000000000000000000000000000000000000C6
:102A100000000000000080018001000000000000B4
:102A200000000000000000000000800180010001A3
:102A30000001800000000000000000000000000015
:102A4000000000000000000000000010001C800FCB
:102A5000E003F8001800F800E003800F001C0010ED
:102A60000000000000000000000000000000000066
:102A700000000000000000000000F81F000000003F
:102A80000000F81F0000000000000000000000002F
:102A90000000000000000000000000000000000036
:102AA0000000000000000000000008003800F001F5
:102AB000C007001F0018001FC007F0013800080001
:102AC000000000000000000000000000E003F80F1C
:102AD000180C0C180C180018000C000600038001DC
:102AE000C000C000C00000000000C000C000000026
:102AF0000000000000000000000000000000E007EF
:102B000018180420C229224A1144094409440944DE
:102B100009221113E20C024004201818E0070000FB
:102B2000000000000000000000000000800380039F
:102B3000C006C006C006600C600C30183018301893
:102B4000F83FF83F1C700C600C6006C006C0000027
:102B5000000000000000000000000000FC03FC0F6B
:102B60000C0C0C180C180C180C0CFC07FC0F0C1897
:102B70000C300C300C300C300C18FC1FFC07000023
:102B8000000000000000000000000000C007F01F6F
:102B900038381C300C70066006000600060006007F
:102BA0000600060006600C701C30F01FE0070000F5
:102BB000000000000000000000000000FE03FE0F07
:102BC000060E0618061806300630063006300630A7
:102BD0000630063006180618060EFE0FFE0300002B
:102BE000000000000000000000000000FC3FFC3F6F
:102BF0000C000C000C000C000C00FC1FFC1F0C0057
:102C00000C000C000C000C000C00FC3FFC3F000012
:102C1000000000000000000000000000F83FF83F46
:102C200018001800180018001800F81FF81F1800E6
:102C300018001800180018001800180018000000EC
:102C4000000000000000000000000000E00FF83F5E
:102C50003C780E6006E007C00300030003FE03FE9D
:102C600003C007C006C00EC03CF0F83FE00F0000F4
:102C70000000000000000000000000000C300C30DC
:102C80000C300C300C300C300C30FC3FFC3F0C3066
:102C90000C300C300C300C300C300C300C30000090
:102CA0000000000000000000000000008001800122
:102CB000800180018001800180018001800180010C
:102CC000800180018001800180018001800100007D
:102CD00000000000000000000000000000060006E8
:102CE00000060006000600060006000600060006B4
:102CF00000060006180618063807F003E001000079
:102D0000000000000000000000000000063006186F
:102D1000060C060606038601C60066007600DE0085
:102D20008E0106030606060C061806300660000033
:102D30000000000000000000000000001800180063
:102D400018001800180018001800180018001800C3
:102D500018001800180018001800F81FF81F0000CD
:102D60000000000000000000000000000EE01EF067
:102D70001EF01EF036D836D836D836D866CC66CC9B
:102D800066CCC6C6C6C6C6C6C6C686C386C300004F
:102D90000000000000000000000000000C301C30AB
:102DA0003C303C306C306C30CC30CC308C310C331F
:102DB0000C330C360C360C3C0C3C0C380C30000040
:102DC000000000000000000000000000E007F81F05
:102DD0001C380E70066003C003C003C003C003C0EC
:102DE00003C003C006600E701C38F81FE007000027
:102DF000000000000000000000000000FC0FFC1FAD
:102E00000C380C300C300C300C300C18FC1FFC074C
:102E10000C000C000C000C000C000C000C0000005E
:102E2000000000000000000000000000E007F81FA4
:102E30001C380E70066003E003C003C003C003C06B
:102E400003C007E006630E3F1C3CF83FE0F700C0FC
:102E5000000000000000000000000000FE0FFE1F48
:102E600006380630063006300638FE1FFE07060319
:102E70000606060C06180618063006300660000026
:102E8000000000000000000000000000E003F80F58
:102E90001C0C0C180C180C001C00F803E00F001E92
:102EA0000038063006300E301C1CF80FE00700001A
:102EB000000000000000000000000000FE7FFE7F18
:102EC00080018001800180018001800180018001FA
:102ED000800180018001800180018001800100006B
:102EE0000000000000000000000000000C300C306A
:102EF0000C300C300C300C300C300C300C300C30F2
:102F00000C300C300C300C301818F81FE0070000A3
:102F10000000000000000000000000000360063018
:102F2000063006300C180C180C18180C180C380E3B
:102F300030063006700760036003C001C001000066
:102F40000000000000000000000000000360C361FA
:102F5000C361C36166336633663366336633663393
:102F60006C1B6C1B6C1B2C1A3C1E380E380E0000A0
:102F70000000000000000000000000000FE00C70E6
:102F800018303018700C600EC00780038003C00337
:102F9000E006700C301C18180C300E6007E00000C2
:102FA00000000000000000000000000003C00660F8
:102FB0000C301C383818300C6006E007C003800164
:102FC000800180018001800180018001800100007A
:102FD000000000000000000000000000FC7FFC7FFB
:102FE000006000300018000C000600038001C000E3
:102FF0006000300018000C000600FE7FFE7F00001D
:10300000000000000000000000000000E003E003FA
:1030100060006000600060006000600060006000B0
:1030200060006000600060006000600060006000A0
:1030300060006000E003E0030000000030003000AA
:10304000600060006000C000C000C000C0018001DE
:103050008001800100030003000300060006000059
:10306000000000000000000000000000E003E0039A
:103070000003000300030003000300030003000338
:103080000003000300030003000300030003000328
:1030900000030003E003E003000000000000C001A3
:1030A000C00160036003600330063006180C180C82
:1030B0000000000000000000000000000000000010
:1030C0000000000000000000000000000000000000
:1030D00000000000000000000000000000000000F0
:1030E000000000000000000000000000FFFFFFFFE4
:1030F0000000000000000000000000000C000C00B8
:103100000C000C000C000C0000000000000000008F
:1031100000000000000000000000000000000000AF
:10312000000000000000000000000000000000009F
:10313000000000000000F003F8071C0C0C0C000F4E
:10314000F00FF80C0C0C0C0C1C0FF80FF018000012
:10315000000000000000000000000000180018003F
:10316000180018001800D803F80F380C1818181891
:103170001818181818181818380CF80FD803000069
:10318000000000000000000000000000000000003F
:10319000000000000000C003F007300E180C1800FB
:1031A000180018001800180C300EF007C0030000BB
:1031B00000000000000000000000000000180018DF
:1031C000001800180018C01BF01F301C1818181821
:1031D0001818181818181818301CF01FC01B0000F9
:1031E00000000000000000000000000000000000DF
:1031F000000000000000C003F00F300C1818F81F8A
:10320000F81F180018003818301CF00FC007000015
:10321000000000000000000000000000800FC00F50
:10322000C000C000C000F007F007C000C000C00030
:10323000C000C000C000C000C000C000C00000004E
:10324000000000000000000000000000000000007E
:10325000000000000000E00DF80F180E0C0C0C0C24
:103260000C0C0C0C0C0C0C0C180EF80FE00D000CD8
:103270000C0C1C06F807F0010000000018001800F4
:10328000180018001800D807F80F381C181818185C
:1032900018181818181818181818181818180000DE
:1032A000000000000000000000000000C000C0009E
:1032B000000000000000C000C000C000C000C0004E
:1032C000C000C000C000C000C000C000C0000000BE
:1032D000000000000000000000000000C000C0006E
:1032E000000000000000C000C000C000C000C0001E
:1032F000C000C000C000C000C000C000C000C000CE
:10330000C000C000F8007800000000000C000C00B5
:103310000C000C000C000C0C0C060C038C01CC00F7
:103320006C00FC009C018C030C030C060C0C0000D0
:10333000000000000000000000000000C000C0000D
:10334000C000C000C000C000C000C000C000C0007D
:10335000C000C000C000C000C000C000C00000002D
:10336000000000000000000000000000000000005D
:103370000000000000007C3CFF7EC7E383C183C1E6
:1033800083C183C183C183C183C183C183C1000061
:10339000000000000000000000000000000000002D
:1033A0000000000000009807F80F381C18181818C3
:1033B00018181818181818181818181818180000BD
:1033C00000000000000000000000000000000000FD
:1033D000000000000000C003F00F300C181818188F
:1033E0001818181818181818300CF00FC00300001F
:1033F00000000000000000000000000000000000CD
:10340000000000000000D803F80F380C1818181836
:103410001818181818181818380CF80FD8031800AE
:10342000180018001800180000000000000000003C
:10343000000000000000C01BF01F301C18181818F6
:103440001818181818181818301CF01FC01B00186E
:10345000001800180018001800000000000000000C
:10346000000000000000B007F003700030003000E2
:1034700030003000300030003000300030000000FC
:10348000000000000000000000000000000000003C
:10349000000000000000E003F003380E180C3800B4
:1034A000F003C007000C180C380EF007E003000012
:1034B000000000000000000000000000000080008C
:1034C000C000C000C000F007F007C000C000C0008E
:1034D000C000C000C000C000C000C00780070000DE
:1034E00000000000000000000000000000000000DC
:1034F00000000000000018181818181818181818DC
:103500001818181818181818381CF01FE01900009F
:1035100000000000000000000000000000000000AB
:103520000000000000000C18180C180C180C3006D5
:1035300030063006600360036003C001C001000074
:10354000000000000000000000000000000000007B
:10355000000000000000C141C141C36163636363B7
:1035600063633636363636361C1C1C1C1C1C0000A9
:10357000000000000000000000000000000000004B
:103580000000000000001C38381C300C600660038E
:103590006003600360036006300C381C1C380000B8
:1035A000000000000000000000000000000000001B
:1035B0000000000000001830301830187018600C3F
:1035C000600CE00CC006C00680038003800380010D
:1035D0008001C001F0007000000000000000000049
:1035E000000000000000FC1FFC1F000C0006000390
:1035F0008001C000600030001800FC1FFC1F0000AC
:103600000000000000000000000000000003800136
:10361000C000C000C000C000C000C000600060006A
:10362000300060004000C000C000C000C000C0000A
:10363000C000800100030000000000008001800144
:103640008001800180018001800180018001800172
:103650008001800180018001800180018001800162
:103660008001800180018001000000006000C00036
:10367000C0018001800180018001800100030003FE
:1036800000060003000180018001800180018001AB
:103690008001C00060000000000000000000000089
:1036A00000000000000000000000F010F81F080FEC
:1036B000000000000000000000000000000000000A
:1036C00000000000000000000000000000000000FA
:1036D000000001020304060708090000FC36000888
:1036E00000000020340000001402000830370008F9
:1036F0003400002024070000300200080000000011
:1037000000000000000000000000000000000000B9
:1037100000000000000000000000FFFF00000000AB
:103720001000000001000000000000000024F40070
:04000005080001D915
:00000001FF
