:020000040800F2
:1000000030070020810200081B1A0008831900082D
:10001000191A0008DF050008E523000800000000A9
:100020000000000000000000000000001F1A00088F
:10003000E1050008000000001D1A0008211A000850
:100040009B0200089B0200089B0200089B0200081C
:100050009B0200089B0200089B0200089B0200080C
:100060009B0200089B0200089B0200089B020008FC
:100070009B0200089B0200089B0200089B020008EC
:100080009B020008000000009B0200089B02000881
:100090009B0200089B0200089B0200089B020008CC
:1000A0009B0200089B0200089B0200089B020008BC
:1000B0009B0200089B0200089B0200089B020008AC
:1000C0009B0200089B0200089B0200089B0200089C
:1000D0009B020008D92300089B0200089B0200082D
:1000E0009B0200089B0200089B0200089B0200087C
:1000F0009B0200089B0200089B0200080000000011
:10010000000000009B020008000000009B020008A5
:100110009B020008000000009B0200089B020008F0
:100120009B0200089B0200089B0200089B0200083B
:100130009B02000800000000000000009B02000875
:100140009B0200089B020008000000000000000065
:10015000000000000000000000000000000000009F
:100160000000000000000000000000009B020008EA
:100170009B020008000000000000000000000000DA
:10018000000000009B0200080000000000000000CA
:10019000000000000000000000000000000000005F
:1001A00000000000000000009B0200089B02000805
:1001B0009B0200089B0200089B0200080000000050
:1001C000000000009B02000800000000000000008A
:1001D0009B0200089B02000800F002F800F041F8C2
:1001E0000AA090E8000C82448344AAF10107DA4592
:1001F00001D100F036F8AFF2090EBAE80F0013F0A3
:10020000010F18BFFB1A43F0010318476C220000CE
:100210008C220000103A24BF78C878C1FAD852075F
:1002200024BF30C830C144BF04680C607047000070
:100230000023002400250026103A28BF78C1FBD8EF
:10024000520728BF30C148BF0B607047632900F0D8
:100250008081002070471FB502F0E8F81FBD10B57F
:1002600010BD00F082F91146FFF7F5FF02F0CCF85F
:1002700000F0A0F903B4FFF7F2FF03BC00F0A8F907
:100280000948804709480047FEE7FEE7FEE7FEE72A
:10029000FEE7FEE7FEE7FEE7FEE7FEE70448054966
:1002A000054A064B70470000A91A0008D90100084A
:1002B00030010020300700203003002030030020F0
:1002C00053EA020C00F069802DE9F04B4FF0000674
:1002D000002B1FBFB3FA83F503FA05F424FA05F6E1
:1002E0005E4012BF1643B2FA82F502FA05F4C5F178
:1002F00020051EBF22FA05FC44EA0C04203556EA0C
:10030000044C4FEA144418BF641C4FF000084FF02F
:100310000009904271EB030C39D3002919BFB1FADF
:1003200081F701FA07F6B0FA80F700FA07F6C7F18D
:1003300020071EBF20FA07FC46EA0C062037B6FB52
:10034000F4FCA7EB0507103F07F01F0BCBF12006CD
:100350000CFA0BFB2CFA06F644BFB3460026202FFE
:10036000A4BF5E464FF0000B5BEA060C08BF4FF0DF
:10037000010B19EB0B09ABFB027C48EB0608C01B19
:1003800006FB02CC0BFB03CC71EB0C01C1E70B4667
:10039000024641464846BDE8F08B13B54FF00000D9
:1003A0004FF00001AFF30080BDE81C407047000033
:1003B0000FB41CB50C0007AA009001D02044401EC9
:1003C000074B7B4469460190069800F098F8002C92
:1003D00003D06946002000F0A5F81CBC5DF814FBB2
:1003E000690100002DE9F0410E460446002020621C
:1003F0002046E168884730B3252805D0D4E901219B
:100400009047206A401CF2E7E168204600278847B1
:10041000050018D0A5F14100192802D820354FF465
:1004200000673246294620462760FFF70FFF40B19C
:10043000012804D0F61D26F007060836D8E7361D39
:10044000D6E72846DAE7206ABDE8F08170B50C46A9
:100450000546012A05D02878800600D5EA690023E0
:1004600002E0012305E05B1C934202D2E05C00281D
:10047000F9D1A869E618C01AA861286A1844286248
:100480002846AFF3008004E0D5E9012114F8010B00
:100490009047B442F8D32846AFF3008070BD4FF0C8
:1004A000000200B5134694469646203922BFA0E8C4
:1004B0000C50A0E80C50B1F12001BFF4F7AF0907D0
:1004C00028BFA0E80C5048BF0CC05DF804EB8900C1
:1004D00028BF40F8042B08BF704748BF20F8022B04
:1004E00011F0804F18BF00F8012B7047704770471C
:1004F0007047000001694A1C02610878704700B526
:100500008FB0CDE901310021059105497944CDE94C
:10051000031011466846FFF765FF0FB000BD0000ED
:10052000E5FFFFFF0A6802F8010B0A607047D1E996
:1005300000239A4202D2531C0B601070704710B512
:10054000436913B1AFF3008001E0FFF77FFF0120A3
:1005500010BD127800F124010A7000224A700122B5
:10056000EDE711684FF0FF32E9E7754600F02CF82F
:10057000AE4605006946534620F00700854618B090
:1005800020B5FFF78BFEBDE820404FF000064FF08E
:1005900000074FF000084FF0000B21F00701AC46B8
:1005A000ACE8C009ACE8C009ACE8C009ACE8C009D7
:1005B0008D46704710B50446AFF300802046BDE875
:1005C0001040FFF757BE000000487047CC000020E5
:1005D00001491820ABBEFEE7260002007047FEE787
:1005E000704772B6FEE710B590F825300021012261
:1005F000022B03D00421C163012122E003681C689F
:1006000024F00E041C60836C1C6824F480741C604D
:1006100003681C6824F001041C6090F84430046CEA
:1006200003F01F0302FA03F36360D0E913345C6044
:10063000436D33B11C6824F480741C60D0E9163417
:100640005C6080F82520002280F82420084610BD38
:1006500070B590F82520002401212346022A07D0F6
:100660000422C26380F8251080F82430012429E098
:100670000268156825F00E0515600268156825F0FA
:1006800001051560826C156825F48075156090F879
:100690004420056C02F01F0201FA02F26A60D0E900
:1006A00013255560426D32B1156825F480751560CB
:1006B000D0E91625556080F8251080F82430816B2C
:1006C00001B18847204670BD2DE9FC4FDFF8A0A19D
:1006D000002301250AF1040B03244FF00F0C0BF14A
:1006E000040EBDE005FA03F632406FD04F68012FCB
:1006F00005D0022F03D0112F01D0122F17D1D0F81F
:1007000008905F0004FA07F829EA08090097D1F871
:100710000C8008FA07F848EA0908C0F8088047681A
:10072000B7430E79C6F300169E403E434660C66846
:100730004FEA430804FA08F7BE4301978F6807FAA7
:1007400008F73743C7604E68022E01D0122E13D12E
:10075000DE0800EB86060096366A5F07FF0E0CFA8D
:1007600007F926EA0906D1F8109009FA07F949EACB
:100770000609009EC6F820900668019FBE430F79C7
:1007800007F0030707FA08F7374307604E68F600DB
:1007900065D5384E376E47F001073766366E23F061
:1007A000030706F001060096334E3E44B146B66894
:1007B0009F074FEA17780CFA08F7BE43B0F1904F45
:1007C00005D02E4FB84204D1012717E047E000279B
:1007D00014E02B4FB84201D102270FE0294FB84255
:1007E00001D103270AE0284FB84201D1042705E0D0
:1007F000264FB84201D1052700E0062707FA08F77F
:100800003743C9F80870DAF800605746D1F8048019
:1008100096435FEAC83800D516433E60DBF80060B7
:100820005F46D1F8048096435FEA883800D51643C6
:100830003E60DEF800607746D1F8048096435FEAB8
:10084000C82800D516433E60094F0C373E68D1F8E2
:10085000048096435FEA882800D516433E605B1CFF
:100860000A6832FA03F67FF43DAFBDE8FC8F000062
:100870000004014000100240000001400004004854
:1008800000080048000C0048001000480014004810
:100890000148806870470000040000200248816819
:1008A00042681144816070470400002010B50024A4
:1008B000032000F073F80F2000F008F808B10124BD
:1008C00001E000F025F8204610BD000070B50E4E86
:1008D00005460024706898B14FF47A71B1FBF0F0CE
:1008E0000A490968B1FBF0F000F062FD40B9102D33
:1008F00006D200222946501E00F030F8356000E094
:100900000124204670BD00000400002010000020DB
:100910000A4882B0016E41F001010166016E01F0EA
:1009200001010091816D41F080518165806D00F081
:100930008050009002B000F0A1B80000001002400A
:10094000002809DB00F01F020121914040098000CE
:1009500000F1E020C0F8001170470000F0B40E4B29
:100960001B680C46C3F30223C3F10705042D00D90D
:100970000425191D072901D2002300E0DB1E0126F2
:1009800006FA05F1491E214099409E40761E164008
:100990003143F0BC01F027BD0CED00E0064900F04A
:1009A000070208684FF6FF03184040EA0220034A96
:1009B00010430860704700000CED00E00000FA05ED
:1009C0002B492C4B0A6832214A432B4940B1B0F5E0
:1009D000007F086829D020F4C06040F480602CE0DB
:1009E0000868C0F34120022804D051F8800F20F499
:1009F000807022E0D1F8800020F48070C1F880007F
:100A0000086820F4C06040F400700860B2FBF3F0A6
:100A1000401C00E0401E4A69520501D50028F9D16A
:100A2000486940050AD503207047C0F341200228D9
:100A300006D051F8800F40F48070086000207047A5
:100A4000D1F8800040F48070C1F88000086820F47C
:100A5000C06040F400700860B2FBF3F0401C00E09E
:100A6000401E4A695205DBD50028F9D1D8E70000BD
:100A70001000002040420F000070004002488168D2
:100A800041F4804181607047007000402DE9F843D7
:100A90000446006800269D4D00035ED5A86D002722
:100AA000C00008D4A86D40F08050A865A86D01274B
:100AB00000F080500090DFF85892D9F8001041F40F
:100AC0008071C9F80010FFF7E3FE804606E000BF22
:100AD000FFF7DEFEA0EB080002282BD8D9F80000B3
:100AE000C005F5D5D5F8900010F4407014D0216CF5
:100AF000814211D0D5F89000D5F8901020F44070C4
:100B000041F48031C5F89010D5F8901021F480316F
:100B1000C5F89010C5F89000C00711D0FFF7B8FED7
:100B2000804641F2883907E0FFF7B2FEA0EB0801EA
:100B3000494501D903260BE0D5F890008007F3D58D
:100B4000D5F89000216C20F440700843C5F890005F
:100B50001FB1A86D20F08050A8652078C00707D08D
:100B6000D5F88800616820F003000843C5F88800C4
:100B70002078800707D5D5F88800A16820F00C0000
:100B80000843C5F888002078400707D5D5F88800C5
:100B9000E16820F030000843C5F88800207800079D
:100BA00007D5D5F88800216920F0C0000843C5F8B2
:100BB00088002078800607D5D5F88800616920F480
:100BC00040600843C5F888002078400607D5D5F86E
:100BD0008800A16920F440500843C5F888002078B7
:100BE000000607D5D5F88800E16920F440400843A5
:100BF000C5F888002088C00507D5D5F88800216A87
:100C000020F440300843C5F888002088800507D5C7
:100C1000D5F88800616A20F440200843C5F88800B0
:100C2000208840050FD5D5F88800A16A20F440102F
:100C30000843C5F88800A06AB0F5801F03D1E868B2
:100C400040F48010E860208800050FD5D5F88800B2
:100C5000E16A20F440000843C5F88800E06AB0F576
:100C6000800F03D1E86840F48010E8602088C00459
:100C70000FD5D5F88800216B20F040700843C5F8E7
:100C80008800206BB0F1807F03D1E86840F48010C9
:100C9000E86020884FF0006180040ED5D5F8880008
:100CA000626B20F040601043C5F88800606B88429A
:100CB00003D1E86840F48010E860208840040ED535
:100CC000D5F88800A26B20F040601043C5F888007A
:100CD000A06B884203D1E86840F48010E860208867
:100CE00000040FD5D5F88800E16B20F04050084390
:100CF000C5F88800E06BB0F1805F03D1E86840F48C
:100D00008030E8603046BDE8F88300000010024003
:100D1000007000402DE9F0470E4605004FF0000737
:100D200025D0DFF8AC81D8F8000000F00F00B04209
:100D30000CD2D8F8001021F00F013143C8F8001090
:100D4000D8F8000000F00F00B04210D12968614CC3
:100D5000C80741F2883A5AD06868DFF87C910328C6
:100D600008D0022820682DD0400500282CDB012067
:100D7000BDE8F08720688001F9D5E06800F0030243
:100D8000E068C0F30310401C032A19D0534A00BF87
:100D9000B2FBF0F0E268C2F306225043E268C2F30D
:100DA0004162521C5200B0FBF2F0484517D9A068CE
:100DB00010F0F00F0CD0880711D5A86840B10EE0F4
:100DC000474AE5E78003D0E700F0B6F8484506D982
:100DD000A06820F0F00040F08000A0608027A068AC
:100DE000696820F003000843A060FFF751FD8146C9
:100DF00006E000BFFFF74CFDA0EB090151453AD8D2
:100E0000A068696800F00C00B0EB810FF2D128688F
:100E1000810714D5400703D5A06840F4E060A060C6
:100E20002878000705D5A06820F4605040F4E06001
:100E3000A060A068A96820F0F000084304E0802FBB
:100E400003D1A06820F0F000A060D8F80010404660
:100E500001F00F01B14216D9016821F00F013143B1
:100E60000160FFF715FD074607E000BFFFF710FD23
:100E7000C11B514501D903207AE7D8F8000000F0E2
:100E80000F00B042F2D12878400705D5A068E96884
:100E900020F4E0600843A0602878000706D5A06829
:100EA000296920F4605040EAC100A06000F044F8D5
:100EB000A1680C4AC1F30311515C01F01F01C84045
:100EC0000949086009480068BDE8F047FFF7FEBC23
:100ED000002002400010024000B4C4040024F400CA
:100EE00000127A005E240008100000200400002098
:100EF0000548064900688968054AC1F30221515C2A
:100F000001F01F01C840704710000020001002408F
:100F10006E2400080548064900688968054AC1F33F
:100F2000C221515C01F01F01C84070471000002031
:100F3000001002406E240008184910B58868C0F3FC
:100F400081021748012A0BD08A684310C2F381023C
:100F5000022A06D08A68C2F38102032A03D0002045
:100F600010BD184610BDCA6802F00304CA68C2F377
:100F70000312521C032C02D0B0FBF2F001E0B3FBD1
:100F8000F2F0CA68C968C2F306225043C1F3416156
:100F9000491C4900B0FBF1F010BD000000100240F8
:100FA0000024F4002DE9F84304007AD02078FA4DAB
:100FB000C00747D0A868E96800F00C0001F0030101
:100FC0000C2802D0082817D001E0032914D060684B
:100FD000B0F5803F17D0B0F5A02F286817D020F4C7
:100FE00080302860286820F4802028606068E0B1A4
:100FF000FFF74EFC064614E02868800322D560689F
:101000000028D2D01EE0286840F48030EDE740F49C
:1010100080202860F7E700BFFFF73AFC801B6428B8
:1010200070D828688003F7D50CE0FFF731FC06463E
:1010300005E000BFFFF72CFC801B6428F0D828686F
:101040008003F7D4207880074CD5A868E96800F0C1
:101050000C0001F003010C2802D004280DD001E09F
:1010600002290AD0E068002828682BD040F480705C
:101070002860FFF70DFC064619E02868400502D5F8
:10108000E068002891D06868217C20F0FE4040EAAA
:1010900001606860C1480068FFF718FC002800D1B3
:1010A00020E076E1FFF7F4FB801B0228B8D828681F
:1010B0004005F7D56868217C20F0FE4040EA0160D9
:1010C00068600FE020F480702860FFF7E1FB0646BF
:1010D00005E000BFFFF7DCFB801B0228A0D82868D2
:1010E0004005F7D42078000729D560690028D5F895
:1010F000940013D040F00100C5F89400FFF7C8FB3E
:10110000064606E090E000BFFFF7C2FB801B022806
:1011100086D8D5F894008007F6D510E020F00100BD
:10112000C5F89400FFF7B4FB064604E0FFF7B0FBF8
:10113000801B022878D8D5F894008007F6D4207850
:10114000400761D5A86D0026C00008D4A86D40F006
:101150008050A865A86D012600F08050009090484E
:101160000168C90511D40168804641F480710160AD
:10117000FFF78EFB074604E0FFF78AFBC01B02283F
:1011800052D8D8F80000C005F6D5A068012815D0BF
:101190000528D5F8900016D020F00100C5F8900081
:1011A000D5F8900020F00400C5F89000A06841F246
:1011B0008838B8B1FFF76CFB07460EE0D5F8900011
:1011C00040F00100F0E740F00400C5F89000F5E7BA
:1011D000FFF75EFBC11B414526D8D5F8900080077C
:1011E000F6D50CE0FFF754FB074604E0FFF750FB91
:1011F000C11B414518D8D5F890008007F6D41EB120
:10120000A86D20F08050A8652078800629D5A069B7
:101210000028D5F8980013D040F00100C5F89800D8
:10122000FFF736FB064606E077E000BFFFF730FB2E
:10123000801B022877D8D5F898008007F6D510E0F3
:1012400020F00100C5F89800FFF722FB064604E0F5
:10125000FFF71EFB801B022865D8D5F89800800791
:10126000F6D4E069F0B3A968C1F38101032961D024
:101270000228286820F0807028600BD0E86820F0F1
:101280000300E860E86847490840E860FFF700FBB2
:1012900004464BE0FFF7FCFA064604E0FFF7F8FAD5
:1012A000801B02283FD828688001F7D4F4E90801A0
:1012B0006FF00F0202EB01110843218A5204490822
:1012C00002EB4151A26841EA02210843217D4FF01F
:1012D0007E42490802EB41610843217B40EAC1603C
:1012E000E96800E062E0304A11400843E86028689D
:1012F00040F080702860E86840F08070E860FFF798
:10130000C7FA044605E000BFFFF7C2FA001B022837
:1013100009D828688001F7D548E004E0FFF7B8FA5B
:10132000001B022802D90320BDE8F8832868800149
:10133000F4D43BE00128F7D0E868226A00F003010A
:10134000914226D1616A00F0F00209011039914200
:101350001FD1A26A00F4FE41B1EB022F19D194F81B
:101360002C2000F07841B1EBC26F12D1218E00F435
:10137000C00249084905A1F50011914209D194F82C
:10138000341000F0C06049084906A1F100718142A3
:101390000CD00120C8E7000000100240040000202B
:1013A00000700040FFFFEEFE0C809F010020BBE7B5
:1013B00010B5401EB0F1807F01D3012010BD4FF069
:1013C000E02460610F21601701F00DF80020A0619A
:1013D00007202061002010BD90F88010012918D04E
:1013E000012180F880102421C0F8841050F8641B7B
:1013F0000A680B6823F001030B6022F00051002201
:10140000026050F8643C19602021016202771046A6
:101410007047022070477047704770B5044690F8D7
:10142000800001281DD0012084F880002420C4F809
:10143000840020680568026822F0010202602068CA
:10144000826822F060620A438260204600F034FB2A
:10145000206805602020C4F88400002084F8800003
:1014600070BD022070BD70B5044690F88000012860
:101470001DD0012084F880002420C4F88400206856
:101480000568026822F0010202602068826822F08A
:1014900060420A438260204600F00EFB206805602F
:1014A0002020C4F88400002084F8800070BD022051
:1014B00070BD7047704770472DE9F04103680446DE
:1014C000D86919689A6840F60F0528424FF0000560
:1014D00009D186067ED501F0200602F080573E43F2
:1014E00078D0216FFFE0924E924F16400F40374365
:1014F00070D0C70709D0CF0507D501271F62D4F8E0
:101500008C3043F00103C4F88C3083070AD5D3072D
:1015100008D0276802233B62D4F88C3043F00403E0
:10152000C4F88C3043070AD5D30708D027680423B2
:101530003B62D4F88C3043F00203C4F88C300307CC
:101540000CD501F02003334308D02668082333620A
:10155000D4F88C3043F00803C4F88C3003050BD565
:101560004B0109D526684FF400633362D4F88C3000
:1015700043F02003C4F88C30D4F88C30002B34D0E6
:10158000800609D501F0200002F08051084303D005
:10159000216F09B120468847D4F88C0021688968FA
:1015A000490602D410F0280F21D0204600F044FB59
:1015B00020688168490615D5816821F04001816065
:1015C000E06F78B15C498163E06FFFF741F8002874
:1015D0000BD000E011E0E06F816B00E02046BDE839
:1015E000F04108472046FFF766FFBDE8F08120463E
:1015F000FFF761FFC4F88C50F7E7E76E2026012F54
:101600005CD1C7065AD5CF0658D51020186220687D
:10161000816849062FD5E26F116849680904090CF1
:10162000E3D0B4F85C308B42DFD9A4F85E101168C7
:101630000968890618D4016821F480710160206866
:10164000816821F0010181602068816821F04001FA
:101650008160C4F88860E5662068016821F01001A7
:101660000160E06FFEF7BFFFB4F85C00B4F85E10F5
:10167000401A81B21EE0B4F85C10B4F85E20891AFA
:10168000B4F85E2089B2002AAFD00029ADD002683C
:1016900022F49072026020688268254BDB431A4076
:1016A0008260C4F88860E56625672068026822F0D9
:1016B000100202602046FFF7AEFE96E7C70209D58A
:1016C000570207D54FF4801018622046BDE8F0415C
:1016D000FFF7F0BE07060AD501F0800702F400020A
:1016E000174304D0616F00297FF478AF7DE742068D
:1016F0000CD54A060AD51968204621F04001196028
:10170000C4F88460656700F03BF96EE7020206D515
:101710004A0004D52046BDE8F041FFF7CABEC0012B
:10172000CBD50029C9DA2046BDE8F041FFF774BEE9
:101730000100001020010004251C000810B5040061
:1017400003D0D4F8840010B107E0012010BD0020C0
:1017500084F88000204600F027F82420C4F8840094
:101760002068016821F001010160204600F03CFC86
:101770000128EBD0A06A10B1204600F0BFF9206824
:10178000416821F4904141602068816821F02A017C
:1017900081602068016841F0010101602046BDE8D8
:1017A000104000F00FBA000010B586B004461421B6
:1017B0006846FEF774FE17492068884227D116480C
:1017C000016E41F480410166016E01F48041059192
:1017D000C16C41F00101C164C06C694600F00100B8
:1017E00005904FF4C060009002200190002002900C
:1017F0000390072004904FF09040FEF765FF002211
:1018000011462520FFF7AAF82520FFF799F806B022
:1018100010BD0000003801400010024010B4D0F8A4
:101820008830202B1BD1B9B1B2B190F88030012B98
:1018300015D0012380F880300023C366094C03686B
:10184000A34206D05C68240203D51C6844F080647F
:101850001C6010BC00F002BD012010BC70470220CB
:10186000FBE700000080004010B504460C488442AD
:1018700014D10C480CA2282103781148FEF798FDDA
:101880004FF0FF3328220E49204600F01BF8204677
:10189000BDE8104001220349FFF7C0BF10BD0000A2
:1018A0003C000020000000205265636569766520D9
:1018B00066726F6D2072656D6F74653A25630A00FC
:1018C000140000202DE9F8430446D0F884001F4698
:1018D00016460D46202851D1DDB1D6B194F88000CE
:1018E00001284BD0012084F880004FF00008C4F894
:1018F0008C802120C4F884001834FEF7C9FFA68725
:101900008146E68754F8100C183CB0F5805F03D090
:1019100004E00120BDE8F883206920B12E460025AF
:1019200084F8808010E00026FAE78021204600F04D
:1019300001FDB8B9C6B116F8010B21688862B4F888
:101940005600401EA4F85600B4F856004B464FF01F
:10195000000200970028E8D14FF04001204600F037
:10196000E9FC30B10320D5E735F8020BC0F30800DD
:10197000E3E72020C4F884000020CBE70220C9E779
:101980007047FEE7094808B5C16C41F02001C16409
:10199000C16C01F020010091C16C41F00101C164F2
:1019A000C06C00F00100009008BD00000010024073
:1019B000184810B5164901604FF4E131416000212B
:1019C00081600C22C160C0E904128161C1610162C1
:1019D00041628162FFF7B2FE08B1FEF702FE00210C
:1019E0000C48FFF740FD08B1FEF7FBFD0021094858
:1019F000FFF713FD08B1FEF7F4FD0648FFF7ECFC16
:101A0000002803D0BDE81040FEF7EBBD10BD00007C
:101A1000003801403C000020FEE7FEE770477047B9
:101A2000FEF73CBF30B5A5B038216846FEF737FD5C
:101A300014211FA8FEF733FD44210EA8FEF72FFD49
:101A40004FF40070FEF7BCFF0220C101039140215A
:101A50000491012500900A21CDE90805CDE90A107D
:101A600007900C900D906846FFF79CFA08B172B68B
:101A7000FEE70F2000241F900320CDE920042294CC
:101A800002211FA82394FFF745F908B172B6FEE7BB
:101A9000CDE90E540EA8FEF7F9FF002801D072B66A
:101AA000FEE725B030BD00000248016841F4700136
:101AB0000160704788ED00E030B5416EB9B1026851
:101AC00091689268C1F342610B4B520F9C5CE50038
:101AD00003F10804A25CB5FBF2F2A0F86A205A5C9C
:101AE000615CD200B2FBF1F1A0F8681030BD0121B9
:101AF000A0F86A10F8E700004E24000890F82810BB
:101B0000C90706D001684A68C36A22F400321A4342
:101B10004A6090F82810890706D501684A68036B67
:101B200022F480321A434A6090F82810490706D5FB
:101B300001684A68436B22F480221A434A6090F895
:101B40002810090706D501684A68836B22F4004211
:101B50001A434A6090F82810C90606D501688A68B9
:101B6000C36B22F480521A438A6090F828108906C9
:101B700006D501688A68036C22F400521A438A6011
:101B800090F82810490611D501684A68436C22F480
:101B900080121A434A60416CB1F5801F06D101687A
:101BA0004A68836C22F4C0021A434A6090F82810F5
:101BB000090606D501684A68C06C22F40022024377
:101BC0004A607047F8B500260446C0F88C60FEF7FE
:101BD0005FFE0546206800686FF07E47000708D565
:101BE0002B4600224FF400112046009700F0A2FB84
:101BF00060B92068006840070AD52B4600224FF4E0
:101C000080012046009700F095FB08B10320F8BD45
:101C10002020C4F88400C4F8880044F86C6F0020C9
:101C20002675F8BD10B5806A0021A0F85E10A0F8F6
:101C30005610FFF740FC10BD01680A6822F490724C
:101C40000A6001688A68094B1A408A60C16E0129DE
:101C500004D101680A6822F010020A602021C0F84D
:101C600088100021C166016770470000FEFFFFEF8A
:101C700070B5B0F86010D0F8882004460068222AB9
:101C800004D0816941F00801816170BD406AA26D94
:101C900008401080A06D801CA065B4F85E00401E56
:101CA000A4F85E00B4F85E000028EED12068016858
:101CB00021F4907101602068816821F00101816048
:101CC0002020C4F8880000252567E06E012804D094
:101CD0002046FFF7C9FDE56670BD2068016821F068
:101CE00010010160B4F85C102046FFF794FBF2E7A6
:101CF0002DE9F0470446B0F860600068C569D0F887
:101D000000A0D0F80880D4F88810222905D0816975
:101D100041F008018161BDE8F087B4F868704FF0C8
:101D200000095BE02068406AA16D30400880A06D2A
:101D3000801CA065B4F85E00401EA4F85E00206818
:101D4000C569690730D0E9070AD05FEACA5107D5EB
:101D500001210162D4F88C0040F00100C4F88C002D
:101D6000A8070BD55FEAC87008D021680220086276
:101D7000D4F88C0040F00400C4F88C0068070BD540
:101D80005FEAC87008D0216804200862D4F88C008B
:101D900040F00200C4F88C00D4F88C0020B120463A
:101DA000FFF789FBC4F88C90B4F85E00B0B92068E6
:101DB000016821F48071016020688168194A11402E
:101DC00081602020C4F88800C4F87090E06E01287B
:101DD0001CD02046FFF748FDC4F86C900FB1A80650
:101DE000A0D4B4F85E00002895D0B4F86810814201
:101DF00091D92068816821F0805181600A4820676C
:101E00002068016841F02001016084E720680168D2
:101E100021F010010160B4F85C102046FFF7FBFAD6
:101E2000DAE70000FEFFFFEF711C000870B5B0F8A4
:101E30006010D0F8882004460068222A04D0816906
:101E400041F00801816170BD406A0840A16D0870D1
:101E5000A06D401CA065B4F85E00401EA4F85E00B2
:101E6000B4F85E000028EED12068016821F490717A
:101E700001602068816821F0010181602020C4F8A0
:101E8000880000252567E06E012804D02046FFF772
:101E9000EBFCE56670BD2068016821F0100101606F
:101EA000B4F85C102046FFF7B6FAF2E72DE9F047E8
:101EB0000446B0F860600068C569D0F800A0D0F8AA
:101EC0000880D4F88810222905D0816941F00801E2
:101ED0008161BDE8F087B4F868704FF000095BE0FD
:101EE0002068406AA16D30400870A06D401CA0655C
:101EF000B4F85E00401EA4F85E002068C56969075A
:101F000030D0E9070AD05FEACA5107D50121016242
:101F1000D4F88C0040F00100C4F88C00A8070BD561
:101F20005FEAC87008D0216802200862D4F88C00EB
:101F300040F00400C4F88C0068070BD55FEAC87055
:101F400008D0216804200862D4F88C0040F0020018
:101F5000C4F88C00D4F88C0020B12046FFF7ABFA0F
:101F6000C4F88C90B4F85E00B0B92068016821F420
:101F70008071016020688168194A114081602020C9
:101F8000C4F88800C4F87090E06E01281CD0204688
:101F9000FFF76AFCC4F86C900FB1A806A0D4B4F89F
:101FA0005E00002895D0B4F86810814291D920686D
:101FB000816821F0805181600A48206720680168AB
:101FC00041F02001016084E72068016821F01001E0
:101FD0000160B4F85C102046FFF71DFADAE7000054
:101FE000FEFFFFEF2D1E00082DE9F04104460168B9
:101FF00080682269E3691043626900251A4310432F
:10200000DFF82CC20A688B4B1A4002430A60206832
:102010004168E26821F44051114341602168A069A0
:10202000614501D0226A10438A68834B1A400243FB
:102030008A602068C16A626A21F00F011143C1629F
:102040007E4923687E488B420DD1D0F8880010F07D
:10205000030006D0012855D0022842D003283FD1E2
:1020600052E001203DE077498B420BD1D0F8880047
:1020700010F00C0035D0042833D0082840D00C28AC
:102080002ED141E070498B420BD1D0F8880010F07E
:10209000300026D0102835D0202831D030281FD14C
:1020A00032E06A498B420BD1D0F8880010F0C000B2
:1020B00017D0402826D0802822D0C02810D123E075
:1020C00063450DD1D0F8880010F4406009D0B0F518
:1020D000806F17D0B0F5006F12D0B0F5406F13D0FD
:1020E00010205B4A5B4F00264FF40041634539D115
:1020F00060B102280DD004280DD0082831D10EE09F
:102100000220EEE70420ECE70820EAE7FEF7F0FE05
:1021100003E0114603E0FEF70FFF01007DD0606A87
:1021200037F810206768B1FBF2F007EB47038342F2
:102130006CD8B0EB073F69D8002308461946FEF774
:10214000BFF8090241EA10610202780810187141D3
:102150003A460023FEF7B4F83F4AA0F54071914299
:1021600059D953E0E3694FF6EF788B422DD1092816
:102170004CD2DFE800F005080D4B274B4B4B0E000F
:10218000FEF7B6FE01E0FEF7C5FE010001D144E016
:102190001146606A37F81000B1FBF0F0410060684A
:1021A00001EB5001B1FBF0F080B2A0F1100141450C
:1021B0002CD84FF6F0710140C0F342000143206873
:1021C000C1602AE0FEF7B8FEDFE709281ED2DFE88B
:1021D00000F005080D1D1F1D1D1D0E00FEF788FED9
:1021E00001E0FEF797FE010001D116E01146606A9A
:1021F00037F81000B1FBF0F1606801EB5001B1FB62
:10220000F0F080B2A0F11001414504D9012504E0AD
:10221000FEF792FEE7E72168C8600120A4F86A0093
:1022200024F8680F2846A660E660BDE8F08100004B
:1022300000800040F369FFCFFFF4FF110038014038
:10224000001002400044004000480040004C0040A4
:102250000024F40036240008FFFC0F0070B58165EF
:10226000A0F85C20A0F85E200021016783684FF48D
:102270008056FF24B34204D10369D3B940F2FF135F
:102280001DE07F259BB1B3F1805F15D0A0F86010F1
:10229000C0F88C102223C0F8883003689C6844F092
:1022A00001049C60436EB3F1005F0ED027E0036928
:1022B00043B9A0F86040EBE703691BB13F23A0F8E6
:1022C0006030E5E7A0F86050E2E7B0F8683093428C
:1022D00015D88268B24201D1026972B1114A02670F
:1022E00080F8801001680A6842F480720A60006811
:1022F000816841F0805181600FE00B4AEFE782680E
:10230000B24201D1026952B1084A026780F88010D6
:102310000068016841F490710160002070BD044ABA
:10232000F3E70000AD1E0008F11C00082D1E000898
:10233000711C00082DE9F0479A4617460E460446E0
:102340004FF000094FF02008089D39E0681C37D095
:10235000FEF79EFAA0EB0A00A84222D80DB320682F
:10236000016849072CD5C069C043000528D42168FD
:102370004FF4006008622068016821F4D0710160A8
:102380002068816821F001018160C4F88480C4F86C
:102390008880C4F88C8000BF84F880900320BDE85A
:1023A000F0872068016821F4D0710160206881689D
:1023B00021F001018160C4F88480C4F88880EBE7D3
:1023C0002068C06936EA000004D00020B842BDD0C1
:1023D0000020E4E70120F9E70148FFF76DB80000AD
:1023E0003C000020FEE70907090E002804DB00F18D
:1023F000E02080F80014704700F00F0000F1E020AA
:1024000080F8141D70470000FEF750FAFFF70AFB32
:10241000FFF7B8FAFFF7CCFA012202490248FFF7AA
:10242000FDF9FEE7000000203C0000204FF0407066
:10243000E1EE100A704701000200040006000800E7
:102440000A000C0010002000400080000001010183
:102450000103070100000804020408010101000053
:102460000000000000000102030406070809000044
:10247000000001020304000098240008000000206E
:102480001400000014020008AC240008140000200E
:102490001C070000300200080000000010000000CF
:0C24A00001000000000000000024F40017
:04000005080001D915
:00000001FF
