:020000040800F2
:100000006807002079020008471C0008431B00080D
:10001000451C00082F0500083127000800000000DB
:100020000000000000000000000000004B1C000861
:100030003105000800000000491C00084D1C0008A4
:10004000930200089302000893020008930200083C
:10005000930200089302000893020008930200082C
:10006000930200089302000893020008930200081C
:10007000930200089302000893020008930200080C
:100080009302000800000000930200089302000899
:1000900093020008930200089302000893020008EC
:1000A00093020008930200089302000893020008DC
:1000B00093020008930200089302000893020008CC
:1000C00093020008930200089302000893020008BC
:1000D00093020008252700089302000893020008F5
:1000E000930200089302000893020008930200089C
:1000F0009302000893020008930200080000000029
:1001000000000000930200080000000093020008B5
:100110009302000800000000930200089302000808
:10012000930200089302000893020008930200085B
:100130009302000800000000000000009302000885
:100140009302000893020008000000000000000075
:10015000000000000000000000000000000000009F
:1001600000000000000000000000000093020008F2
:1001700093020008000000000000000000000000E2
:1001800000000000930200080000000000000000D2
:10019000000000000000000000000000000000005F
:1001A0000000000000000000930200089302000815
:1001B0009302000893020008930200080000000068
:1001C0000000000093020008000000000000000092
:1001D000930200089302000800F002F800F03CF8D7
:1001E0000AA090E8000C82448344AAF10107DA4592
:1001F00001D100F031F8AFF2090EBAE80F0013F0A8
:10020000010F18BFFB1A43F00103184788260000AE
:10021000A8260000103A24BF78C878C1FAD852073F
:1002200024BF30C830C144BF04680C607047000070
:100230000023002400250026103A28BF78C1FBD8EF
:10024000520728BF30C148BF0B6070471FB502F08E
:10025000FBFA1FBD10B510BD00F02FF91146FFF7D6
:10026000F5FF02F0D5FA00F04DF903B4FFF7F2FF05
:1002700003BC00F055F900000948804709480047D1
:10028000FEE7FEE7FEE7FEE7FEE7FEE7FEE7FEE746
:10029000FEE7FEE704480549054A064B70470000A3
:1002A000D51C0008D901000868010020680700205B
:1002B000680300206803002053EA020C00F0698004
:1002C0002DE9F04B4FF00006002B1FBFB3FA83F56A
:1002D00003FA05F424FA05F65E4012BF1643B2FA9B
:1002E00082F502FA05F4C5F120051EBF22FA05FCCD
:1002F00044EA0C04203556EA044C4FEA144418BF73
:10030000641C4FF000084FF00009904271EB030CA1
:1003100039D3002919BFB1FA81F701FA07F6B0FA0B
:1003200080F700FA07F6C7F120071EBF20FA07FC86
:1003300046EA0C062037B6FBF4FCA7EB0507103F96
:1003400007F01F0BCBF120060CFA0BFB2CFA06F67C
:1003500044BFB3460026202FA4BF5E464FF0000BDB
:100360005BEA060C08BF4FF0010B19EB0B09ABFB66
:10037000027C48EB0608C01B06FB02CC0BFB03CC3F
:1003800071EB0C01C1E70B46024641464846BDE809
:10039000F08B13B54FF000004FF00001AFF3008079
:1003A000BDE81C40704710B5431C02E010F8011B6B
:1003B00071B18107FAD14FF0013202C88C1A8C4317
:1003C00014EAC211F9D0C01A0A0603D0C01E10BD2B
:1003D000C01A10BD0A0401D0801E10BD0902FCD055
:1003E000401E10BD4FF0000200B5134694469646DD
:1003F000203922BFA0E80C50A0E80C50B1F1200138
:10040000BFF4F7AF090728BFA0E80C5048BF0CC0E5
:100410005DF804EB890028BF40F8042B08BF704743
:1004200048BF20F8022B11F0804F18BF00F8012BB5
:10043000704700004FF0013C50F8042B51F8043B8A
:100440009A4221D1A2EB0C03934313EACC1317D1A8
:1004500050F8042B51F8043B9A4215D1A2EB0C033F
:10046000934313EACC130BD150F8042B51F8043BFF
:100470009A4209D1A2EB0C03934313EACC13DBD0CD
:100480004FF00000704700BFD01A01BAB1FA81F1F5
:1004900001F0180122FA01F0CB40C1F12001DBB2DA
:1004A000C0B2C01A2CFA01F3D11A914311EAC31158
:1004B000E6D17047704770477047754600F02CF8DA
:1004C000AE4605006946534620F00700854618B041
:1004D00020B5FFF7DFFEBDE820404FF000064FF0EB
:1004E00000074FF000084FF0000B21F00701AC4669
:1004F000ACE8C009ACE8C009ACE8C009ACE8C00988
:100500008D46704710B50446AFF300802046BDE825
:100510001040FFF7AABE0000004870470401002009
:1005200001491820ABBEFEE7260002007047FEE737
:10053000704772B6FEE710B590F825300021012211
:10054000022B03D00421C163012122E003681C684F
:1005500024F00E041C60836C1C6824F480741C60FE
:1005600003681C6824F001041C6090F84430046C9B
:1005700003F01F0302FA03F36360D0E913345C60F5
:10058000436D33B11C6824F480741C60D0E91634C8
:100590005C6080F82520002280F82420084610BDE9
:1005A00070B590F82520002401212346022A07D0A7
:1005B0000422C26380F8251080F82430012429E049
:1005C0000268156825F00E0515600268156825F0AB
:1005D00001051560826C156825F48075156090F82A
:1005E0004420056C02F01F0201FA02F26A60D0E9B1
:1005F00013255560426D32B1156825F4807515607C
:10060000D0E91625556080F8251080F82430816BDC
:1006100001B18847204670BD2DE9FC4FDFF8A0A14D
:10062000002301250AF1040B03244FF00F0C0BF1FA
:10063000040EBDE005FA03F632406FD04F68012F7B
:1006400005D0022F03D0112F01D0122F17D1D0F8CF
:1006500008905F0004FA07F829EA08090097D1F822
:100660000C8008FA07F848EA0908C0F808804768CB
:10067000B7430E79C6F300169E403E434660C668F7
:100680004FEA430804FA08F7BE4301978F6807FA58
:1006900008F73743C7604E68022E01D0122E13D1DF
:1006A000DE0800EB86060096366A5F07FF0E0CFA3E
:1006B00007F926EA0906D1F8109009FA07F949EA7C
:1006C0000609009EC6F820900668019FBE430F7978
:1006D00007F0030707FA08F7374307604E68F6008C
:1006E00065D5384E376E47F001073766366E23F012
:1006F000030706F001060096334E3E44B146B66845
:100700009F074FEA17780CFA08F7BE43B0F1904FF5
:1007100005D02E4FB84204D1012717E047E000274B
:1007200014E02B4FB84201D102270FE0294FB84205
:1007300001D103270AE0284FB84201D1042705E080
:10074000264FB84201D1052700E0062707FA08F72F
:100750003743C9F80870DAF800605746D1F80480CA
:1007600096435FEAC83800D516433E60DBF8006068
:100770005F46D1F8048096435FEA883800D5164377
:100780003E60DEF800607746D1F8048096435FEA69
:10079000C82800D516433E60094F0C373E68D1F893
:1007A000048096435FEA882800D516433E605B1CB0
:1007B0000A6832FA03F67FF43DAFBDE8FC8F000013
:1007C0000004014000100240000001400004004805
:1007D00000080048000C00480010004800140048C1
:1007E00001488068704700000400002002488168CA
:1007F00042681144816070470400002010B5002455
:10080000032000F073F80F2000F008F808B101246D
:1008100001E000F025F8204610BD000070B50E4E36
:1008200005460024706898B14FF47A71B1FBF0F07E
:100830000A490968B1FBF0F000F062FD40B9102DE3
:1008400006D200222946501E00F030F8356000E044
:100850000124204670BD000004000020100000208C
:100860000A4882B0016E41F001010166016E01F09B
:1008700001010091816D41F080518165806D00F032
:100880008050009002B000F0A1B8000000100240BB
:10089000002809DB00F01F0201219140400980007F
:1008A00000F1E020C0F8001170470000F0B40E4BDA
:1008B0001B680C46C3F30223C3F10705042D00D9BE
:1008C0000425191D072901D2002300E0DB1E0126A3
:1008D00006FA05F1491E214099409E40761E1640B9
:1008E0003143F0BC01F025BF0CED00E0064900F0FB
:1008F000070208684FF6FF03184040EA0220034A47
:1009000010430860704700000CED00E00000FA059D
:100910002B492C4B0A6832214A432B4940B1B0F590
:10092000007F086829D020F4C06040F480602CE08B
:100930000868C0F34120022804D051F8800F20F449
:10094000807022E0D1F8800020F48070C1F880002F
:10095000086820F4C06040F400700860B2FBF3F057
:10096000401C00E0401E4A69520501D50028F9D11B
:10097000486940050AD503207047C0F3412002288A
:1009800006D051F8800F40F4807008600020704756
:10099000D1F8800040F48070C1F88000086820F42D
:1009A000C06040F400700860B2FBF3F0401C00E04F
:1009B000401E4A695205DBD50028F9D1D8E700006E
:1009C0001000002040420F00007000400248816883
:1009D00041F4804181607047007000402DE9F84388
:1009E0000446006800269D4D00035ED5A86D0027D3
:1009F000C00008D4A86D40F08050A865A86D0127FC
:100A000000F080500090DFF85892D9F8001041F4BF
:100A10008071C9F80010FFF7E3FE804606E000BFD2
:100A2000FFF7DEFEA0EB080002282BD8D9F8000063
:100A3000C005F5D5D5F8900010F4407014D0216CA5
:100A4000814211D0D5F89000D5F8901020F4407074
:100A500041F48031C5F89010D5F8901021F4803120
:100A6000C5F89010C5F89000C00711D0FFF7B8FE88
:100A7000804641F2883907E0FFF7B2FEA0EB08019B
:100A8000494501D903260BE0D5F890008007F3D53E
:100A9000D5F89000216C20F440700843C5F8900010
:100AA0001FB1A86D20F08050A8652078C00707D03E
:100AB000D5F88800616820F003000843C5F8880075
:100AC0002078800707D5D5F88800A16820F00C00B1
:100AD0000843C5F888002078400707D5D5F8880076
:100AE000E16820F030000843C5F88800207800074E
:100AF00007D5D5F88800216920F0C0000843C5F863
:100B000088002078800607D5D5F88800616920F430
:100B100040600843C5F888002078400607D5D5F81E
:100B20008800A16920F440500843C5F88800207867
:100B3000000607D5D5F88800E16920F44040084355
:100B4000C5F888002088C00507D5D5F88800216A37
:100B500020F440300843C5F888002088800507D578
:100B6000D5F88800616A20F440200843C5F8880061
:100B7000208840050FD5D5F88800A16A20F44010E0
:100B80000843C5F88800A06AB0F5801F03D1E86863
:100B900040F48010E860208800050FD5D5F8880063
:100BA000E16A20F440000843C5F88800E06AB0F527
:100BB000800F03D1E86840F48010E8602088C0040A
:100BC0000FD5D5F88800216B20F040700843C5F898
:100BD0008800206BB0F1807F03D1E86840F480107A
:100BE000E86020884FF0006180040ED5D5F88800B9
:100BF000626B20F040601043C5F88800606B88424B
:100C000003D1E86840F48010E860208840040ED5E5
:100C1000D5F88800A26B20F040601043C5F888002A
:100C2000A06B884203D1E86840F48010E860208817
:100C300000040FD5D5F88800E16B20F04050084340
:100C4000C5F88800E06BB0F1805F03D1E86840F43C
:100C50008030E8603046BDE8F883000000100240B4
:100C6000007000402DE9F0470E4605004FF00007E8
:100C700025D0DFF8AC81D8F8000000F00F00B042BA
:100C80000CD2D8F8001021F00F013143C8F8001041
:100C9000D8F8000000F00F00B04210D12968614C74
:100CA000C80741F2883A5AD06868DFF87C91032877
:100CB00008D0022820682DD0400500282CDB012018
:100CC000BDE8F08720688001F9D5E06800F00302F4
:100CD000E068C0F30310401C032A19D0534A00BF38
:100CE000B2FBF0F0E268C2F306225043E268C2F3BE
:100CF0004162521C5200B0FBF2F0484517D9A0687F
:100D000010F0F00F0CD0880711D5A86840B10EE0A4
:100D1000474AE5E78003D0E700F0B6F8484506D932
:100D2000A06820F0F00040F08000A0608027A0685C
:100D3000696820F003000843A060FFF751FD814679
:100D400006E000BFFFF74CFDA0EB090151453AD882
:100D5000A068696800F00C00B0EB810FF2D1286840
:100D6000810714D5400703D5A06840F4E060A06077
:100D70002878000705D5A06820F4605040F4E060B2
:100D8000A060A068A96820F0F000084304E0802F6C
:100D900003D1A06820F0F000A060D8F80010404611
:100DA00001F00F01B14216D9016821F00F01314362
:100DB0000160FFF715FD074607E000BFFFF710FDD4
:100DC000C11B514501D903207AE7D8F8000000F093
:100DD0000F00B042F2D12878400705D5A068E96835
:100DE00020F4E0600843A0602878000706D5A068DA
:100DF000296920F4605040EAC100A06000F044F886
:100E0000A1680C4AC1F30311515C01F01F01C840F5
:100E10000949086009480068BDE8F047FFF7FEBCD3
:100E2000002002400010024000B4C4040024F4007A
:100E300000127A007A280008100000200400002028
:100E40000548064900688968054AC1F30221515CDA
:100E500001F01F01C8407047100000200010024040
:100E60008A2800080548064900688968054AC1F3D0
:100E7000C221515C01F01F01C840704710000020E2
:100E8000001002408A280008184910B58868C0F38D
:100E900081021748012A0BD08A684310C2F38102ED
:100EA000022A06D08A68C2F38102032A03D00020F6
:100EB00010BD184610BDCA6802F00304CA68C2F328
:100EC0000312521C032C02D0B0FBF2F001E0B3FB82
:100ED000F2F0CA68C968C2F306225043C1F3416107
:100EE000491C4900B0FBF1F010BD000000100240A9
:100EF0000024F4002DE9F84304007AD02078FA4D5C
:100F0000C00747D0A868E96800F00C0001F00301B1
:100F10000C2802D0082817D001E0032914D06068FB
:100F2000B0F5803F17D0B0F5A02F286817D020F477
:100F300080302860286820F4802028606068E0B154
:100F4000FFF74EFC064614E02868800322D560684F
:100F50000028D2D01EE0286840F48030EDE740F44D
:100F600080202860F7E700BFFFF73AFC801B642869
:100F700070D828688003F7D50CE0FFF731FC0646EF
:100F800005E000BFFFF72CFC801B6428F0D8286820
:100F90008003F7D4207880074CD5A868E96800F072
:100FA0000C0001F003010C2802D004280DD001E050
:100FB00002290AD0E068002828682BD040F480700D
:100FC0002860FFF70DFC064619E02868400502D5A9
:100FD000E068002891D06868217C20F0FE4040EA5B
:100FE00001606860C1480068FFF718FC002800D164
:100FF00020E076E1FFF7F4FB801B0228B8D82868D0
:101000004005F7D56868217C20F0FE4040EA016089
:1010100068600FE020F480702860FFF7E1FB06466F
:1010200005E000BFFFF7DCFB801B0228A0D8286882
:101030004005F7D42078000729D560690028D5F845
:10104000940013D040F00100C5F89400FFF7C8FBEE
:10105000064606E090E000BFFFF7C2FB801B0228B7
:1010600086D8D5F894008007F6D510E020F001006E
:10107000C5F89400FFF7B4FB064604E0FFF7B0FBA9
:10108000801B022878D8D5F894008007F6D4207801
:10109000400761D5A86D0026C00008D4A86D40F0B7
:1010A0008050A865A86D012600F0805000909048FF
:1010B0000168C90511D40168804641F4807101605E
:1010C000FFF78EFB074604E0FFF78AFBC01B0228F0
:1010D00052D8D8F80000C005F6D5A068012815D070
:1010E0000528D5F8900016D020F00100C5F8900032
:1010F000D5F8900020F00400C5F89000A06841F2F7
:101100008838B8B1FFF76CFB07460EE0D5F89000C1
:1011100040F00100F0E740F00400C5F89000F5E76A
:10112000FFF75EFBC11B414526D8D5F8900080072C
:10113000F6D50CE0FFF754FB074604E0FFF750FB41
:10114000C11B414518D8D5F890008007F6D41EB1D0
:10115000A86D20F08050A8652078800629D5A06968
:101160000028D5F8980013D040F00100C5F8980089
:10117000FFF736FB064606E077E000BFFFF730FBDF
:10118000801B022877D8D5F898008007F6D510E0A4
:1011900020F00100C5F89800FFF722FB064604E0A6
:1011A000FFF71EFB801B022865D8D5F89800800742
:1011B000F6D4E069F0B3A968C1F38101032961D0D5
:1011C0000228286820F0807028600BD0E86820F0A2
:1011D0000300E860E86847490840E860FFF700FB63
:1011E00004464BE0FFF7FCFA064604E0FFF7F8FA86
:1011F000801B02283FD828688001F7D4F4E9080151
:101200006FF00F0202EB01110843218A52044908D2
:1012100002EB4151A26841EA02210843217D4FF0CF
:101220007E42490802EB41610843217B40EAC160EC
:10123000E96800E062E0304A11400843E86028684D
:1012400040F080702860E86840F08070E860FFF748
:10125000C7FA044605E000BFFFF7C2FA001B0228E8
:1012600009D828688001F7D548E004E0FFF7B8FA0C
:10127000001B022802D90320BDE8F88328688001FA
:10128000F4D43BE00128F7D0E868226A00F00301BB
:10129000914226D1616A00F0F002090110399142B1
:1012A0001FD1A26A00F4FE41B1EB022F19D194F8CC
:1012B0002C2000F07841B1EBC26F12D1218E00F4E6
:1012C000C00249084905A1F50011914209D194F8DD
:1012D000341000F0C06049084906A1F10071814254
:1012E0000CD00120C8E700000010024004000020DC
:1012F00000700040FFFFEEFE0C809F010020BBE766
:1013000010B5401EB0F1807F01D3012010BD4FF019
:10131000E02460610F21601701F00BFA0020A0614A
:1013200007202061002010BDF0B590F83C20012A74
:101330003AD0012580F83C50022280F83D20036815
:101340005A689C68194E1A4FB34201D0BB4204D16F
:1013500022F4700C4A6842EA0C02DFF858C002EA34
:101360000C02D1F800C04CEA020CC3F804C00268B9
:10137000B2420DD0B2F1804F0AD00F4B9A4207D043
:101380000E4B9A4204D0BA4202D00D4B9A4204D17D
:10139000896824F080031943916080F83D50002152
:1013A00080F83C100846F0BD0220F0BD002C014042
:1013B000003401408FFFFFFD0004004000080040A2
:1013C0000040014010B5040003D094F83D0010B176
:1013D00007E0012010BD002084F83C00204600F00A
:1013E00023F8022084F83D00211D206800F07AFCDB
:1013F000012084F8480084F83E0084F83F0084F817
:10140000400084F8410084F8420084F8430084F8E6
:10141000440084F8450084F8460084F8470084F8C6
:101420003D00002010BD000008B500680649884254
:1014300008D10648816D41F004018165806D00F09E
:101440000400009008BD00000008004000100240A9
:1014500090F83D10012901D001207047022180F849
:101460003D1000680F4988420ED0B0F1804F0BD07C
:101470000D49884208D00D49884205D00C49884260
:1014800002D00C49884207D181680B4A11400629D5
:1014900006D0B1F5803F03D0016841F00101016041
:1014A00000207047002C014000040040000800406C
:1014B00000340140004001400700010070B50446BF
:1014C00090F83C00012814D0012584F83C500220FB
:1014D00084F83D0022689068344B184020F47F4027
:1014E00090600868702827D010DC10F00F0F03D030
:1014F0004AE04FF0020070BD4FEA2012072A43D2A3
:10150000DFE802F05050505048313900284BC21AE1
:10151000984247D009DCB0F5805F35D0B0F5005F68
:1015200015D0B0F1101F2FD13CE0102A3AD0202A5C
:1015300038D0502A28D135E0CB68D1E90121206884
:1015400000F028FC2068816841F0770109E0CB6851
:10155000D1E90121206800F01DFC2068816841F478
:101560008041816010E0CA684968206800F026FC6C
:101570005021206806E0CA684968206800F02FFC06
:101580006021206800F010FC84F83D50002084F8B1
:101590003C0070BDCA684968206800F00FFC40211B
:1015A0002068EFE7226801461046EBE788FFCEFF90
:1015B0002000100090F88010012918D0012180F837
:1015C00080102421C0F8841050F8641B0A680B684E
:1015D00023F001030B6022F000510022026050F85A
:1015E000643C196020210162027710467047022096
:1015F00070477047704770B5044690F88000012826
:101600001DD0012084F880002420C4F884002068C4
:101610000568026822F0010202602068826822F0F8
:1016200060620A438260204600F0ECFB206805609F
:101630002020C4F88400002084F8800070BD0220BF
:1016400070BD70B5044690F8800001281DD00120BF
:1016500084F880002420C4F88400206805680268AB
:1016600022F0010202602068826822F060420A4390
:101670008260204600F0C6FB206805602020C4F888
:101680008400002084F8800070BD022070BD704787
:10169000704770472DE9F04103680446D86919681E
:1016A0009A6840F60F0528424FF0000509D18606DA
:1016B0007ED501F0200602F080573E4378D0216F9E
:1016C000FFE0924E924F16400F40374370D0C7074D
:1016D00009D0CF0507D501271F62D4F88C3043F01D
:1016E0000103C4F88C3083070AD5D30708D02768D4
:1016F00002233B62D4F88C3043F00403C4F88C30EE
:1017000043070AD5D30708D0276804233B62D4F8DF
:101710008C3043F00203C4F88C3003070CD501F081
:101720002003334308D0266808233362D4F88C3072
:1017300043F00803C4F88C3003050BD54B0109D5E1
:1017400026684FF400633362D4F88C3043F02003F2
:10175000C4F88C30D4F88C30002B34D0800609D5F6
:1017600001F0200002F08051084303D0216F09B13D
:1017700020468847D4F88C0021688968490602D43D
:1017800010F0280F21D0204600F0FCFB2068816873
:10179000490615D5816821F040018160E06F78B17C
:1017A0005C498163E06FFEF7FBFE00280BD000E090
:1017B00011E0E06F816B00E02046BDE8F041084792
:1017C0002046FFF766FFBDE8F0812046FFF761FF86
:1017D000C4F88C50F7E7E76E2026012F5CD1C706CE
:1017E0005AD5CF0658D5102018622068816849065E
:1017F0002FD5E26F116849680904090CE3D0B4F8E9
:101800005C308B42DFD9A4F85E1011680968890644
:1018100018D4016821F4807101602068816821F08A
:10182000010181602068816821F040018160C4F875
:101830008860E5662068016821F010010160E06FB2
:10184000FEF779FEB4F85C00B4F85E10401A81B27D
:101850001EE0B4F85C10B4F85E20891AB4F85E207B
:1018600089B2002AAFD00029ADD0026822F490726C
:10187000026020688268254BDB431A408260C4F80E
:101880008860E56625672068026822F01002026021
:101890002046FFF7AEFE96E7C70209D5570207D5E7
:1018A0004FF4801018622046BDE8F041FFF7F0BE0B
:1018B00007060AD501F0800702F40002174304D09E
:1018C000616F00297FF478AF7DE742060CD54A06A8
:1018D0000AD51968204621F040011960C4F88460D7
:1018E000656700F02DF96EE7020206D54A0004D5BF
:1018F0002046BDE8F041FFF7CABEC001CBD50029A4
:10190000C9DA2046BDE8F041FFF774BE01000010BF
:1019100020010004711F000810B5040003D0D4F8A2
:10192000840010B107E0012010BD002084F8800081
:10193000204600F027F82420C4F8840020680168BD
:1019400021F001010160204600F0F4FC0128EBD0F9
:10195000A06A10B1204600F077FA2068416821F4AF
:10196000904141602068816821F02A0181602068EF
:10197000016841F0010101602046BDE8104000F01F
:10198000C7BA000010B586B0044614216846FEF7B9
:1019900029FD17492068884227D11648016E41F475
:1019A00080410166016E01F480410591C16C41F0F6
:1019B0000101C164C06C694600F0010005904FF45C
:1019C000C060009002200190002002900390072048
:1019D00004904FF09040FEF71FFE00221146252094
:1019E000FEF764FF2520FEF753FF06B010BD000090
:1019F000003801400010024010B4D0F88830202B8D
:101A00001BD1B9B1B2B190F88030012B15D00123B0
:101A100080F880300023C366094C0368A34206D0D7
:101A20005C68240203D51C6844F080641C6010BC10
:101A300000F0BABD012010BC70470220FBE7000097
:101A4000008000400B4930B4884210D10A4A00217E
:101A500011600A4901220A4C0A704A788B78A35413
:101A6000521C4A70012230BC891CFFF7C5BF30BC34
:101A7000704700007400002024080040000000208F
:101A8000140000202DE9F8430446D0F884001F46D6
:101A900016460D46202851D1DDB1D6B194F880000C
:101AA00001284BD0012084F880004FF00008C4F8D2
:101AB0008C802120C4F884001834FEF791FEA6879C
:101AC0008146E68754F8100C183CB0F5805F03D0CF
:101AD00004E00120BDE8F883206920B12E460025EE
:101AE00084F8808010E00026FAE78021204600F08C
:101AF000C7FDB8B9C6B116F8010B21688862B4F801
:101B00005600401EA4F85600B4F856004B464FF05D
:101B1000000200970028E8D14FF04001204600F075
:101B2000AFFD30B10320D5E735F8020BC0F3080054
:101B3000E3E72020C4F884000020CBE70220C9E7B7
:101B40007047FEE7094808B5C16C41F02001C16447
:101B5000C16C01F020010091C16C41F00101C16430
:101B6000C06C00F00100009008BD000000100240B1
:101B700010B588B00024184800940194029403948E
:101B80000494059413490694016041F63F71C0E93D
:101B900001144FF6FF71C0E903148461FFF712FCD2
:101BA00008B1FEF7C6FC4FF48050009069460A4821
:101BB000FFF784FC08B1FEF7BCFC049404A90648B6
:101BC0000694FFF7B1FB002801D0FEF7B2FC08B085
:101BD00010BD00000008004028000020184810B583
:101BE000164901604FF416514160002181600C22BA
:101BF000C160C0E904128161C16101624162816218
:101C0000FFF78AFE08B1FEF794FC00210C48FFF7AD
:101C100018FD08B1FEF78DFC00210948FFF7EBFC29
:101C200008B1FEF786FC0648FFF7C4FC002803D085
:101C3000BDE81040FEF77DBC10BD0000003801403B
:101C400074000020FEE7FEE770477047FEF7CEBD48
:101C500030B5A5B038216846FEF7C4FB14211FA893
:101C6000FEF7C0FB44210EA8FEF7BCFB4FF400704A
:101C7000FEF74EFE0220C10103914021049101258F
:101C800000900A21CDE90805CDE90A1007900C90D3
:101C90000D906846FFF72EF908B172B6FEE70F20E7
:101CA00000241F900320CDE92004229402211FA8C4
:101CB0002394FEF7D7FF08B172B6FEE7CDE90E54C4
:101CC0000EA8FEF78BFE002801D072B6FEE725B005
:101CD00030BD00000248016841F4700101607047A6
:101CE00088ED00E02DE9F0430268234B234D244E9C
:101CF000244C4FF08049984207D0484505D0A8426F
:101D000003D0B04201D0A04203D122F070074A684C
:101D10003A431D4FDFF874C0DFF8748098420DD04D
:101D200048450BD0A84209D0B04207D0A04205D008
:101D3000B84203D0604501D0404503D122F440753C
:101D4000CA682A434D6922F080022A4302608A68E9
:101D5000C2620A688262984207D0A04205D0B842A7
:101D600003D0604501D0404501D1096901630121DB
:101D70004161BDE8F0830000002C014000040040F8
:101D80000008004000340140004001400044014090
:101D90000048014010B5846842EA032224F47F44DD
:101DA0000A432243826010BD8268034B1A400A43F3
:101DB00042F00701816070478FFFCFFF10B5036AC3
:101DC000046A24F001040462846924F0F00444EA03
:101DD000021423F00A020A438461026210BD10B5A6
:101DE000036A23F0100303628369046A23F47043D7
:101DF00043EA023224F0A00343EA01118261016246
:101E000010BD000030B5416EB9B1026891689268AA
:101E1000C1F342610B4B520F9C5CE50003F10804D7
:101E2000A25CB5FBF2F2A0F86A205A5C615CD200B9
:101E3000B2FBF1F1A0F8681030BD0121A0F86A10E2
:101E4000F8E700006A28000890F82810C90706D0B3
:101E500001684A68C36A22F400321A434A6090F863
:101E60002810890706D501684A68036B22F480327E
:101E70001A434A6090F82810490706D501684A6855
:101E8000436B22F480221A434A6090F82810090715
:101E900006D501684A68836B22F400421A434A60FF
:101EA00090F82810C90606D501688A68C36B22F429
:101EB00080521A438A6090F82810890606D5016876
:101EC0008A68036C22F400521A438A6090F8281042
:101ED000490611D501684A68436C22F480121A43FE
:101EE0004A60416CB1F5801F06D101684A68836C75
:101EF00022F4C0021A434A6090F82810090606D559
:101F000001684A68C06C22F4002202434A607047AC
:101F1000F8B500260446C0F88C60FEF761FC054663
:101F2000206800686FF07E47000708D52B46002226
:101F30004FF400112046009700F0A2FB60B9206822
:101F4000006840070AD52B4600224FF48001204646
:101F5000009700F095FB08B10320F8BD2020C4F8DD
:101F60008400C4F8880044F86C6F00202675F8BD22
:101F700010B5806A0021A0F85E10A0F85610FFF797
:101F800088FB10BD01680A6822F490720A6001683B
:101F90008A68094B1A408A60C16E012904D1016820
:101FA0000A6822F010020A602021C0F8881000217F
:101FB000C166016770470000FEFFFFEF70B5B0F823
:101FC0006010D0F8882004460068222A04D0816975
:101FD00041F00801816170BD406AA26D0840108027
:101FE000A06D801CA065B4F85E00401EA4F85E00E1
:101FF000B4F85E000028EED12068016821F49071E9
:1020000001602068816821F0010181602020C4F80E
:10201000880000252567E06E012804D02046FFF7E0
:1020200011FDE56670BD2068016821F010010160B6
:10203000B4F85C102046FFF7DCFAF2E72DE9F04730
:102040000446B0F860600068C569D0F800A0D0F818
:102050000880D4F88810222905D0816941F0080150
:102060008161BDE8F087B4F868704FF000095BE06B
:102070002068406AA16D30400880A06D801CA0657A
:10208000B4F85E00401EA4F85E002068C5696907C8
:1020900030D0E9070AD05FEACA5107D501210162B1
:1020A000D4F88C0040F00100C4F88C00A8070BD5D0
:1020B0005FEAC87008D0216802200862D4F88C005A
:1020C00040F00400C4F88C0068070BD55FEAC870C4
:1020D00008D0216804200862D4F88C0040F0020087
:1020E000C4F88C00D4F88C0020B12046FFF7D1FA58
:1020F000C4F88C90B4F85E00B0B92068016821F48F
:102100008071016020688168194A11408160202037
:10211000C4F88800C4F87090E06E01281CD02046F6
:10212000FFF790FCC4F86C900FB1A806A0D4B4F8E7
:102130005E00002895D0B4F86810814291D92068DB
:10214000816821F0805181600A4820672068016819
:1021500041F02001016084E72068016821F010014E
:102160000160B4F85C102046FFF743FADAE700009C
:10217000FEFFFFEFBD1F000870B5B0F86010D0F88B
:10218000882004460068222A04D0816941F00801B1
:10219000816170BD406A0840A16D0870A06D401C4F
:1021A000A065B4F85E00401EA4F85E00B4F85E00BE
:1021B0000028EED12068016821F490710160206848
:1021C000816821F0010181602020C4F88800002589
:1021D0002567E06E012804D02046FFF733FCE56652
:1021E00070BD2068016821F010010160B4F85C1036
:1021F0002046FFF7FEF9F2E72DE9F0470446B0F874
:1022000060600068C569D0F800A0D0F80880D4F8F4
:102210008810222905D0816941F008018161BDE85B
:10222000F087B4F868704FF000095BE02068406AFE
:10223000A16D30400870A06D401CA065B4F85E0030
:10224000401EA4F85E002068C569690730D0E90720
:102250000AD05FEACA5107D501210162D4F88C0087
:1022600040F00100C4F88C00A8070BD55FEAC870E5
:1022700008D0216802200862D4F88C0040F00400E5
:10228000C4F88C0068070BD55FEAC87008D02168D5
:1022900004200862D4F88C0040F00200C4F88C00DE
:1022A000D4F88C0020B12046FFF7F3F9C4F88C90E5
:1022B000B4F85E00B0B92068016821F48071016053
:1022C00020688168194A114081602020C4F8880084
:1022D000C4F87090E06E01281CD02046FFF7B2FBD6
:1022E000C4F86C900FB1A806A0D4B4F85E00002822
:1022F00095D0B4F86810814291D92068816821F0A6
:10230000805181600A4820672068016841F02001FF
:10231000016084E72068016821F010010160B4F8D1
:102320005C102046FFF765F9DAE70000FEFFFFEFDB
:10233000792100082DE9F04104460168806822698E
:10234000E3691043626900251A431043DFF82CC289
:102350000A688B4B1A4002430A6020684168E268B1
:1023600021F44051114341602168A069614501D0C9
:10237000226A10438A68834B1A4002438A602068AD
:10238000C16A626A21F00F011143C1627E4923686C
:102390007E488B420DD1D0F8880010F0030006D0A3
:1023A000012855D0022842D003283FD152E0012015
:1023B0003DE077498B420BD1D0F8880010F00C003B
:1023C00035D0042833D0082840D00C282ED141E045
:1023D00070498B420BD1D0F8880010F0300026D025
:1023E000102835D0202831D030281FD132E06A495A
:1023F0008B420BD1D0F8880010F0C00017D04028D5
:1024000026D0802822D0C02810D123E063450DD1EA
:10241000D0F8880010F4406009D0B0F5806F17D074
:10242000B0F5006F12D0B0F5406F13D010205B4AAA
:102430005B4F00264FF40041634539D160B102285B
:102440000DD004280DD0082831D10EE00220EEE78F
:102450000420ECE70820EAE7FEF7F2FC03E011466F
:1024600003E0FEF711FD01007DD0606A37F810200F
:102470006768B1FBF2F007EB470383426CD8B0EB1F
:10248000073F69D8002308461946FDF715FF0902E2
:1024900041EA106102027808101871413A4600239F
:1024A000FDF70AFF3F4AA0F54071914259D953E028
:1024B000E3694FF6EF788B422DD109284CD2DFE843
:1024C00000F005080D4B274B4B4B0E00FEF7B8FCF8
:1024D00001E0FEF7C7FC010001D144E01146606A4B
:1024E00037F81000B1FBF0F04100606801EB5001DB
:1024F000B1FBF0F080B2A0F1100141452CD84FF6AD
:10250000F0710140C0F3420001432068C1602AE03D
:10251000FEF7BAFCDFE709281ED2DFE800F0050865
:102520000D1D1F1D1D1D0E00FEF78AFC01E0FEF7AC
:1025300099FC010001D116E01146606A37F81000DD
:10254000B1FBF0F1606801EB5001B1FBF0F080B23B
:10255000A0F11001414504D9012504E0FEF794FCE7
:10256000E7E72168C8600120A4F86A0024F8680F32
:102570002846A660E660BDE8F081000000800040CB
:10258000F369FFCFFFF4FF11003801400010024053
:102590000044004000480040004C00400024F4008B
:1025A00052280008FFFC0F0070B58165A0F85C2080
:1025B000A0F85E200021016783684FF48056FF2455
:1025C000B34204D10369D3B940F2FF131DE07F2564
:1025D0009BB1B3F1805F15D0A0F86010C0F88C10EB
:1025E0002223C0F8883003689C6844F001049C6092
:1025F000436EB3F1005F0ED027E0036943B9A0F842
:102600006040EBE703691BB13F23A0F86030E5E7CA
:10261000A0F86050E2E7B0F86830934215D88268BD
:10262000B24201D1026972B1114A026780F880108A
:1026300001680A6842F480720A600068816841F0AB
:10264000805181600FE00B4AEFE78268B24201D10E
:10265000026952B1084A026780F880100068016878
:1026600041F490710160002070BD044AF3E700005E
:10267000F92100083D20000879210008BD1F00084D
:102680002DE9F0479A4617460E4604464FF00009DA
:102690004FF02008089D39E0681C37D0FEF7A0F8FD
:1026A000A0EB0A00A84222D80DB3206801684907B0
:1026B0002CD5C069C043000528D421684FF40060C0
:1026C00008622068016821F4D07101602068816887
:1026D00021F001018160C4F88480C4F88880C4F8C6
:1026E0008C8000BF84F880900320BDE8F0872068CC
:1026F000016821F4D07101602068816821F0010136
:102700008160C4F88480C4F88880EBE72068C069E1
:1027100036EA000004D00020B842BDD00020E4E733
:102720000120F9E70148FEF7B5BF00007400002062
:10273000FEE70907090E002804DB00F1E02080F81D
:102740000014704700F00F0000F1E02080F8141D25
:102750007047000010B5134913A0FDF76BFEB0B130
:10276000104913A0FDF766FE98B113A42046FDF7AB
:102770001AFE82B24FF0FF3321461348FFF782F969
:10278000124A0021084611705378064C06E010A446
:10279000ECE713A4EAE72154401CC0B29842FAD3F4
:1027A000517010BD14000020636861726C6965008F
:1027B0006368656E000000005768617420612070D6
:1027C0006974792E2E2E0A0074000020000000206B
:1027D0005375702120436861726C6965210A00009D
:1027E00057656C7021206368656E210A0000000047
:1027F00005480078002805D0044800680F2801D952
:10280000FFF7A8BF70470000000000202408004028
:10281000FDF7F4FFFFF71CFAFFF794F9FFF7DEF975
:10282000FFF7A6F90548FEF713FE01220449054803
:10283000FFF7E2F8FFF7DCFFFCE7000028000020CC
:1028400002000020740000204FF04070E1EE100AFA
:102850007047010002000400060008000A000C0096
:102860001000200040008000000101010103070169
:10287000000008040204080101010000000000003B
:10288000000001020304060708090000000001021D
:1028900003040000B4280008000000201400000019
:1028A00014020008C8280008140000205407000083
:1028B00030020008000000001000000001000000CD
:0828C000000000000024F400F8
:04000005080001D915
:00000001FF
